:020000040000FA
:0600000002162302095B59
:0300130002097D62
:03002B000213CEEF
:03003300020BA518
:03003B000209D2E5
:03004B000212AEF0
:0300530002089010
:03005B0002110788
:0300630002112265
:03006B00020B4B3A
:03007B00020B7CF9
:100083000208EF010020FD000201570500000001F6
:10009300071C131C0000191C251C000000002B1C4E
:1000A3004F1C551C5B1C00000000000000000101F8
:1000B3000204081020408001FFFF090D0104010024
:1000C300010000000000000006FFFFFFFFFFFF012B
:1000D30001010400F119000000E8030000FFFFBD67
:1000E3001AE803000064006400B801A0BB0D00A07F
:1000F300BB0D00020200F8FF0705021E0401051EE6
:1001030002051E020A0A01010808010310270280E2
:100113003E0102FEFFE8030A050001FFFF010A1486
:1001230001E0C503423F1A51123FF304B53F0000FB
:10013300803E010105030101FF0F10FEFF073B0095
:100143000000003D3A00000000FF000000FF001225
:100153001633601D1216427005191919801A1214EC
:100163009C701F1214C4C37003E667331919194036
:10017300071818182208080874FFF618F618F61856
:10018300F6221214C460171216E8702192F01216A8
:10019300F17019501720F014080808090909E7F647
:1001A3001819E7F61819E7F61819E7F6221216F1E7
:1001B30060E6E869701F0808E62480F608E436F66E
:1001C30018547FB47F0CE654806007F6E418F618E1
:1001D300F622181822E9C6CC08C6CD08C6CE08C632
:1001E300CFC0E0E8C0E0EAC0E0EBC0E009E9F8090D
:1001F300E7FA09E7FBE6F918E6F8C3EC98ED99EEA0
:100203009AEBC2E7F5F0EFC2E795F0500E600CEB06
:10021300CFFBEACEFAE9CDF9E8CCF8EAA2E7D2E7D8
:10022300FAEB33FB13F5F0EEA2E7D2E7FEEF33FF71
:10023300C5F013A2E730E601B313C5F0C3C0E0C0B5
:10024300F07F00C39BFB605E9418600F401D146039
:100253001AD0E023F9D0E0F80203338AF0E94860CA
:1002630003D2F0E4AFF0FAF9F8803BEB30E40D8908
:10027300F0EA6003D2F0E4AFF0F9CAF8EB30E30D33
:1002830088F0EF6002D2F0AFF0E4CAC9F8EB54078C
:100293006014FBC3EA13FAE913F9E813F8EF1350F8
:1002A30002D2E0FFDBEDD0E0C0E030E739C3E49FEA
:1002B300FFF5F0EC98FC42F0ED99FD42F0EE9AFE6A
:1002C30042F0D0E0F9D0E0F8E5F0607AE923F9EE06
:1002D30020E742D8028067C3EF33FFEC33FCED33F2
:1002E300FDEE33FE80EAEC28FCED39FDEE3AFED05C
:1002F300E023F9D0E0F84002801BC3EE13FEED13B8
:10030300FDEC13FCEF135002D2E0FF08B800067FA8
:100313007F74FF802EEF3350178CF020F0026010B3
:100323000CBC000C0DBD00080EBE000408E860DF25
:10033300E933E813FFEE2313FE4F4D4C8008E954D5
:1003430080FFE4FEFDFCEE33EF33F47004FCFD7E2E
:1003530080D0E0FBD0E0FAD0E0F8D0E0CFC618CEF2
:10036300C618CDC618CCC6F9221216337004181855
:100373001822121642700D74FFF61819F61819F6A2
:100383001819F622E7548066F61216F1700F12164A
:10039300E870F014F608F608F608F680D11216E8AD
:1003A300700CF608F608768008E6447F80EC121499
:1003B300C7700C12149F60BFE65480F6E480BB1232
:1003C300149F700519191980A5E869700C763F18F8
:1003D300768018F618F6E8F922E6CDC0E018ECC0EE
:1003E300E0E633CD33CDD313F6E719FCE719193320
:1003F300CC33C3947F400ECD9D502408E65480F641
:10040300E418F6800FF4043D14501408E6447FF614
:10041300187680E418F618F6D0E0FCD0E0FD22CC84
:10042300D313CCFD18E4C6CBC0E018E4C6CAC0E0C1
:100433000808ED08C633E613F618E433C675F0036F
:10044300C3CA97CA09CB97CB199C40047D08802E59
:10045300BD000302051516B6FF050606081618C3E8
:10046300CA33CACB33CB33CA27CA09CB37CB193CE0
:10047300C37D08803E187D0820E75CC633C6CA33B7
:10048300CACB33CB33DDF1D5F0EB30E77BCA97CA68
:1004930009CB974ACB199C406F4B7025E620E0218E
:1004A3008066187D08C3CA97CA09CB97CB199CD31A
:1004B300C633C6CA33CACB33CB3350C9DDE7D5F015
:1004C300E1D3E4C636C608C636C608C636C608C66D
:1004D30036C61818188031C3CA97CA09CB97CB19E7
:1004E3009CB34097C633C6CA33CACB33CB33DD3450
:1004F300D5F02EC6A2E0C640C8CA27CA09CB371911
:100503004A70BECB3CB480B90808E63308E63360D2
:100513001F181818D0E0FAD0E0FBD0E0FCD0E0FDC3
:1005230022187D08CA27CA09CB37CB193CD3808050
:1005330013F618E4B67F11F618B6FF0EF618C604C4
:1005430070D20808768080CAF618F618F680C5C0FF
:1005530082C0831206AF600814601214601C802BE3
:10056300EA6005EB42808023E85280801EEA600542
:10057300EB42908016E852908011EBC39420500B0D
:10058300EA6005EB42A08003E852A002061DC08288
:10059300C0831206AF600814602C146050807BE89F
:1005A30052F374016A601274026A601574046A700B
:1005B30003EB428FEB42FD806153F7DFE8528F80FC
:1005C300F343F72080F6E852F474016A6012740270
:1005D3006A601574046A7003EB42F6EB42FE803ADC
:1005E30053F7BFE852F680F343F74080F6EBC3942A
:1005F300205027E852F574016A601274026A60158C
:1006030074046A7003EB42F7EB42FF800D53F77FEC
:10061300E852F780F343F78080F6D083D08222C07C
:1006230082C0831206AF600814602B14604E806C86
:10063300E852F352FD74016A600F74026A600F742A
:10064300046A7058EB428F805353F7DF800343F7FC
:1006530020E8528F8046E852F452FE74016A600F1C
:1006630074026A600F74046A7032EB42F6802D5391
:10067300F7BF800343F740E852F68020EBC3942092
:10068300501AE844E0F852F552FF74016A6010749E
:10069300026A601374046A7003EB42F702061D5387
:1006A300F77FE852F780F543F78080F6E95407FCBB
:1006B30074B72CF582E4341DF583E0FBF4F8E9C448
:1006C300540F540322C082C0831206AF6008146023
:1006D300151460228034EA6005EB42808003E852FF
:1006E30080EB42FD8024EA6005EB42908003E852F0
:1006F30090EB42FE8014EBC39420500EEA6005EBAE
:1007030042A08003E852A0EB42FF02061D0012162E
:1007130033604F1216426012E7548066F612149C3F
:1007230070111216E8703B090909F4F618F618F669
:1007330018F6221214C470151216F108080860EA9C
:10074300E6447FF618768018E4F618F6221216F1BE
:1007530060161216E87012E4F608F608F608E65476
:1007630080F609090918181822EAC0E0EBC0E0EC8A
:10077300C0E0EDC0E0E687F0A4FBACF008E687F04C
:10078300A42CFCE435F0FA1809E687F0A42C4B609E
:10079300027401CA35F0FCE433FB09E687F0D2F7B3
:1007A300A42CCB35F0FC1908E687F0A42BCC35F04C
:1007B300FBE433FD0819E687F0D2E7A42C4ACB35D6
:1007C300F0CD3400FC09E687F0D2E7A42DCC35F058
:1007D300FDE433FA0918E687F0D2F7A42CCD35F0FF
:1007E300CA3400FC08E687F0D2E7D2F7A42ACC3556
:1007F300F07A7E20E70B0ACB33CBCD33CDCC33CC91
:1008030033CB3350147004ED30E00ED2F1E4CD3D20
:10081300CDCC3CCC3B5005DA05C2F1EB547FC6335B
:1008230008E63392F0FBE73309E733C39A502D2BE5
:1008330070190C0D4C4D70151806E608C333700D76
:1008430020F10AA2F013F6E418800B4024E4F630FA
:10085300F002768018F618F618F68024D33B14506D
:100863001074FFA2F013F6187680E418F618F680D9
:100873000FA2F013F618E63303F618ECF618EDF6AC
:10088300D0E0FDD0E0FCD0E0FBD0E0FA22C0E07481
:10089300F1120DA1A2AFE433F509D2AF85A708AFDA
:1008A300A1EF5508FE74105E60061218C575A1EF1E
:1008B30074085E60081218CB75A1F78024EFA2E0DC
:1008C30092F0E508A2E082F05017906198E0F8906A
:1008D30004C2E0C398A2D265D0335002E8F075A1F8
:1008E300FEE509A2E092AF7F02020E00C0E074F2BF
:1008F300120DA1A2AFE433FED2AF9061A4E0F8756C
:100903009B00E59158540860087591F712191380FC
:1009130023E59158541060087591EF12191980144A
:10092300E591A2E092F0E8A2E082F05007E0C2E095
:10093300F0121A759061A3E0F8E5E9585404600ECB
:10094300121A4B75E9FB906193E0A2E640F2EEA226
:10095300E092AF7F01020E00C0E074F2120DA1A27B
:10096300AFE433FED2AF9061A5E0F8E5BF5854047D
:10097300600675BFFB121A8D80D4C0E0C0D0E8C0FA
:10098300E0E9C0E0C082C083A8C1E8C0E090042FC2
:10099300E0F874AE28F582E43403F583D0E0F090F8
:1009A300042EE0F8A3E0687006E595900431F0901A
:1009B300042FE004F0C394804002E4F0A374C6F073
:1009C300D083D082D0E0F9D0E0F8D0D0D0E032C0EC
:1009D300E0C0D0E8C0E0E9C0E0C082C0839004B2C8
:1009E300E0F8A3E0687008539AFBA374018022C265
:1009F300E99004B2E0F8740128F0743228F582E437
:100A03003404F583E0F5C19004B2E0C3948040025E
:100A1300E4F080AC120A6230F039120AA780341273
:100A23000A6220F01430E72B74FFFCFBFA747F801A
:100A330022E4FCFBFA7480801AB48008BC00F2BB89
:100A430000EF800F50EBF9E4C39AFAE49BFBE49CBC
:100A5300FCE499C6CC18C6CB18C6CA18C6F922E45A
:100A6300C9C608CAC608CBC6D3330308CCC633925B
:100A7300F0C3947F402E94184019C9B90704CACB18
:100A8300CC225025C309CA33CACB33CBCC33CC33A6
:100A9300D9F422F4600DC9CCC313CB13CBCA13CA48
:100AA300D9F6CC22E4FCFBFA2214FCFBFA22C3E4C1
:100AB30098F8E499F9120AF28026C3E49AFAE49BBF
:100AC300FBE920E7E9120AF2E498F8E499F922C372
:100AD300E498F8E499F9120AF2E498F8E499F9C36E
:100AE300E49AFAE49BFB22EB20E7CFE920E7E0B9A5
:100AF3000010BB0008E88AF084F8AAF022E4FBC8DF
:100B0300FA22EB70227B10C833C8C933C9335007AC
:100B1300C39AC3DBF280069A50012ADBEAC833F496
:100B2300C8C933F4C9FA2275F008E4C833C8C93315
:100B3300C933C99AC99B5004C92AC93BD5F0ECFBF8
:100B4300C833F4C8E4C9FA22C0E074F2120DA1A2BA
:100B5300AFE433FED2AF90065EE05589600FE589BE
:100B6300FA7900121D3390065EE0F45289C2C5EE95
:100B7300A2E092AF7F01020E00C0E074F2120DA159
:100B8300A2AFE433FED2AF90065FE0558A600FE573
:100B93008AFA7901121D3390065FE0F4528AC2EBA0
:100BA30080CDC0E074F2120DA1A2AFE433FED2AF48
:100BB300900660E0558B600FE58BFA7902121D33C6
:100BC300900660E0F4528BC2E880A4080808EAC0EB
:100BD300E0EBC0E086F0E7A4FA180986F0E7A42A60
:100BE300FA180986F0E7A42AFA180986F0E7A42A76
:100BF300FA1986F0E7A4FBE5F02AFA190886F0E76C
:100C0300A42BFBE5F03AFA190886F0E7A42BFBE5E1
:100C1300F03AFA18180986F0E7A4C5F02BFBE43A7A
:100C2300FA1908E7C5F0C6A426F6E5F03BFBE43A5B
:100C3300FA1886F0E7A4F6E5F00826F6E43B08F692
:100C4300E43A08F6D0E0FBD0E0FA22080808E630E0
:100C5300E711121500120C66080808C64480C6186E
:100C6300181822181818E9799EC608CAC608CBC6F0
:100C730008CCC6C370207996CACBCC7019798ECBB9
:100C8300CC70137986CC700EF9802ACA33CACB3361
:100C9300CBCC33CC331930E7F2CCCBCA33501470FE
:100CA30004EA30E00DE4CA3ACACB3BCBCC3CCC508F
:100CB3000209C3E913C6CC182313C6CB18C6CA1836
:100CC300C6F922E4CFC0E0E4CEC0E0E4CDC0E0E466
:100CD300CCC0E075F020E626F608E633F608E633E6
:100CE300F608E633F6181818EC33FCED33FDEE3353
:100CF300FEEF33FFC3EC9709ED9709EE9709EF97E2
:100D0300191919400FFFEC97FC09ED97FD09EE97B0
:100D1300FE191906D5F0BFECF709EDF709EEF7094F
:100D2300EFF7191919D0E0FCD0E0FDD0E0FED0E0D8
:100D3300FF222518C582C0E0E51934FFC583C0E052
:100D4300E518C3958224F810AF08858319858218A6
:100D53008008858319858218D2AFCEF0A3E520F0F1
:100D6300A37808E608F0A3DEFAEFF0A3E58124FAFE
:100D7300F8E608F0A3E608F0A3E608F0A30808E6FF
:100D830008F0A3E608F0A315811581D0E0FED0E0BA
:100D9300F8158115811581E8C0E0EEC0E022C0D0CE
:100DA3002518C582C0E0E51934FFC583C0E0E51806
:100DB300C3958224F310AF088583198582188008B0
:100DC300858319858218D2AFC8F0A3E9F0A3EAF0AE
:100DD300A3EBF0A37908E709F0A3D8FAECF0A3EDAD
:100DE300F0A3EEF0A3EFF0A3D0E0F0A3D0E0F0A3E4
:100DF300D0E0F0A3E520F0A3E5F0F0A3228519836A
:100E0300851882E0C0E0A3E0F9A3E0FAA3E0FBA326
:100E13007808E0F608A3DFFAE0FCA3E0FDA3E0FE18
:100E2300A3E0FFA3E0C0E0A3E0C0E0A3E0F5D0A30C
:100E3300E0F520A3E0A3F5F010AF088583198582C0
:100E4300188008858319858218D2AFD082D083D0C9
:100E5300E0F8D0E032121503181818120CC6121558
:100E6300D2191919221215D2191919080808E618E6
:100E7300181820E7E0120CC61215031818182209D7
:100E83000909E719191920E7DC080808E6181818F2
:100E930020E703020CC6121503181818120CC61209
:100EA30015031818181215D2191919221216D3B9C5
:100EB3000003020EEEE4900331785B791B8002F0AD
:100EC300A3D8FCD9FA7A8B7B1D90008678CD790163
:100ED3008015E493A3AD82AE838A828B83F0A3AAA9
:100EE30082AB838D828E83D8E9D9E7758297758328
:100EF300A2740712132B75821775833674001213AD
:100F03002B75F0108E1A8F1B85821F85831E851803
:100F130082851983E0CEA3E0CF851F82851E83EBF4
:100F2300C9EAC8EDCBECCAC3E833C8E933C9EA332D
:100F3300CAEB33CBC3EA9EF51DEB9FF51CB35004FC
:100F4300AB1CAA1DEC33CCED33CDD5F0DAAE1AAF22
:100F53001B22121633601C12164260171216F17010
:100F6300071216E87001D322C0D01216E87006D01B
:100F7300D0B322C32233D0D0501430E0F6C3E79667
:100F83000809E7960809E7960809E796B32220E0DF
:100F9300D5E6970809E6970809E6970809E697B39F
:100FA30022121633601B12164260161216F17007D6
:100FB3001216E8600CB322C0D01216E87005D0D028
:100FC30022C32233D0D0501330E0EBC3E796080995
:100FD300E7960809E7960809E7962220E0E4E697F2
:100FE3000809E6970809E6970809E69722D083D00F
:100FF30082ECC0E0EDC0E0E493A3FCE493A3FDED39
:101003004C600D1210C8EC24FFFCED34FFFD80EFA3
:10101300E493A3FCE493A3FDED4C600D1211CEEC1D
:1010230024FFFCED34FFFD80EFD0E0FDD0E0FCE4D5
:1010330093A3C0E0E493C0E022851983851882E07E
:10104300A3FEE0A3F5207808E0A3F608DFFAE0A307
:10105300FFE0A3C0E0E0A3C0E0E0A3C0E0E0A3C0E2
:10106300E0E0A3C0E010AF088582188583198008EB
:10107300858218858319D2AFD083D082021331D0F1
:1010830083D082E9C0E0E493A3C386F0C5F095F072
:10109300F908E493A386F0C5F095F0700BE493A3ED
:1010A300C3994005E9048002A3E475F002A42582F4
:1010B300F582E5F03583F583D0E0F9E493A3C0E04E
:1010C300E493C0E022C0E0C3E493960874019396CE
:1010D30018400FE493667008087401936618700053
:1010E3007019A3A3C3E49396087401939618A3A35A
:1010F300400DD0E0D0E0D0E002102CA3A3A3A3A323
:10110300A3D0E022C0E074F2120DA1C2D9901DD386
:1011130012113A4005E0F9121FD97F01020E00C0F7
:10112300E074F2120DA1C2DC901DD512113A4005F4
:10113300E0F9121FD980E3E0C39400A2D265D03353
:10114300227404800474028000CCC0E0EDC0E0E5AA
:1011530018C39CCCAD1950011D10AF068C188D1906
:1011630080068C188D19D2AF12128DD0E0FDD0E01D
:10117300FC2274028000CCC0E0EDC0E0E518C39C03
:10118300CCAD1950011D10AF068C188D1980068C3B
:10119300188D19D2AF121249D0E0FDD0E0FC221213
:1011A3001633602512164260201216F170030216E0
:1011B300E8080808E76670101819E766700A181936
:1011C300E76670041819E76622F422C0E0C0F088CD
:1011D300F0E4936670080874019366187000A8F031
:1011E300A3A3700BD0F0D0E0D0E0D0E002102CA38A
:1011F300A3D0F0D0E022D083D082CCC0E0E493A38C
:10120300600612130C1470FAE493A36006121431EF
:101213001470FAD0E0FCE493A3C0E0E493C0E022AE
:10122300C008C3E096F50808A3E096420808A3E0C7
:1012330096420808A3E0964208A2D265D033E50897
:101243007001D3D00822CAC0E0E493A3C582CCC501
:1012530082C583CDC583F0A3C582CCC582C583CDAA
:10126300C583DAE5D0E0CA22A2E792D65002F4049D
:1012730030F70663F0FF05F0B3400384800384F482
:101283000430D60563F0FF05F022CAC0E0E0A3C531
:1012930082CCC582C583CDC583F0A3C582CCC5826C
:1012A300C583CDC583DAE6D0E0CA22C0E0C0D0C092
:1012B30082C08375AF0090069DE02401F0A3E03463
:1012C30000F0D083D082D0D0D0E032700908080873
:1012D300226016181818C6C333C608C633C608C614
:1012E30033C608C633C6D5E0EA22C008C3E096F584
:1012F3000808A3E096420808A3E096420808A3E082
:101303009645087001D3D00822C0E0E493A3D39C90
:101313005010E493A3C39C400AD0E0D0E0D0E00295
:101323001216A3A3A3D0E022C09FF59FE473D09F1E
:1013330022D083D082C09FE493C0E0740193C0E0C5
:10134300740293F59F222518F58210AF08F5184013
:101353000C15198008F51840021519D2AF851983A9
:101363002200C0D0251810AF08F518500C051980BD
:1013730008F51850020519D2AFD0D0227404800AA0
:1013830074038006740280027401C0E0F404121333
:1013930049D0E012167E226017080808C6A2E71398
:1013A300C618C613C618C613C618C613C6D5E0E9B1
:1013B30022BB0102E722C082C08389828A83BB00E9
:1013C30003E08002E493D083D08222C0E0C0D0E85F
:1013D300C0E0A8A8D2AFC2C7E8A2E792AFD0E0F8B6
:1013E300D0D0D0E0326016080808C6C313C618C6AA
:1013F30013C618C613C618C613C6D5E0EA22C3E03F
:10140300C696F608A3E0C696F608A3E0C696F608C5
:10141300A3E0C696F6222518F8E43519F922251813
:10142300FAE43519FB222518FCE43519FD22C0E046
:10143300E493A36C7009D0E0D0E0D0E0021216A3CD
:10144300A3D0E022251810AF08F518400C15198019
:1014530008F51840021519D2AF22C3E09608A3E09D
:101463009608A3E09608A3E096A2D265D03322E7BC
:101473006670100809E766700A0809E766700408D1
:1014830009E76622E066701008A3E066700A08A305
:10149300E066700408A3E06622181818E6084608F8
:1014A3007009E626087005E633F4220822C3E493A4
:1014B300960874019396087402939608740393969E
:1014C30022191919E70947097009E727097005E780
:1014D30033F4220922C3E096F008A3E096F008A3B0
:1014E300E096F008A3E096F022C3E697F60809E633
:1014F30097F60809E697F60809E697F622181818EA
:10150300E4C396F608E496F608E496F608E496F63D
:1015130022E026F608A3E036F608A3E036F608A391
:10152300E036F622E627F60809E637F60809E63735
:10153300F60809E637F622E493F608740193F608F1
:10154300740293F608740393F622E657F60809E645
:1015530057F60809E657F60809E657F622E056F06B
:1015630008A3E056F008A3E056F008A3E056F022E3
:10157300E647F60809E647F60809E647F60809E6E6
:1015830047F622700422600D18C6C333C608C6335B
:10159300C6D5E0F41822E667F60809E667F60809F7
:1015A300E667F60809E667F622E026F008A3E036C8
:1015B300F008A3E036F008A3E036F022E056F60880
:1015C300A3E056F608A3E056F608A3E056F622E495
:1015D300C397F709E497F709E497F709E497F72224
:1015E300600D08C6A2E713C618C613C6D5E0F322DA
:1015F300C6F4C608C6F4C608C6F4C608C6F4C622AE
:10160300C3E09608A3E09608A3E09608A3E0962219
:10161300C3E7960809E7960809E7960809E79622BB
:1016230075D00075813F75183175190300020EAF2F
:10163300E6084608C3134608336002E633F422E79C
:10164300094709C3134709336002E733F422600CE7
:1016530008C6C313C618C613C6D5E0F422E6F008BD
:10166300A3E6F008A3E6F008A3E6F022E0F608A359
:10167300E0F608A3E0F608A3E0F622CAC0E0E6F02D
:10168300A308DAFAD0E0FA22E0FCA3E0FDA3E0FE2F
:10169300A3E0FF22EAF0A3EBF0A3ECF0A3EDF0222A
:1016A300E0FAA3E0FBA3E0FCA3E0FD22E8F0A3E95A
:1016B300F0A3EAF0A3EBF022ECF0A3EDF0A3EEF03D
:1016C300A3EFF022E0F8A3E0F9A3E0FAA3E0FB2202
:1016D300E5C754F84401F5C77901222518F582E4DA
:1016E3003519F58322E72719471947194722E626B3
:1016F30018461846184622C2AF75D69F020000222C
:101703001213347FD70512133435D805121334342A
:10171300D90512133467DA0512133420FE041213A9
:101723003493FE0412133419FF041213343FB30726
:1017330012133450B307121334EEB307121334F9F0
:10174300B307121334F47F00121334E3FF041213AC
:1017530034D7B607121334E7B607121334FFB607AC
:1017630012133467B70712133456AF07121334D961
:10177300AF071213343FB00712133478A0071213C4
:1017830034B3A0071213340EA10712133466A10752
:10179300121334ECA10712133444A2071213348A30
:1017A300FC0612133498FC0612133411FD061213AF
:1017B30034E5FD06121334B7FF06121334ADB9072F
:1017C300121334B69907121334009A07121334967E
:1017D3009A071213341C9B071213344D9B071213E1
:1017E30034659B07121334D99B07121334EF9B07FD
:1017F300121334029C071213340C9C07121334D6B1
:1018030092061213344E9306121334EE93061213F8
:1018130034AA9406121334BE950612133492960614
:10182300121334C2970612133449990612133475EE
:101833009906121334F09906121334FD9A06121303
:1018430034789B0612133415A406121334E3A50649
:101853001213341FA706121334E4A806121334DB41
:10186300FA0212133407FB0212133478FD02121327
:1018730034B8FD02121334F8FD021213340CFE02C5
:1018830012133425FE0212133416FF02121334BB53
:10189300FF02121334CFFF021213342AA9071213C3
:1018A300344EA90712133467A90712133499A907F1
:1018B300121334C9A907121334F6A90712133458A3
:1018C300AA0712133467AA0712133471AA07121353
:1018D300347EAA0712133420970712133440970754
:1018E3001213347F97071213349A9707121334B9DC
:1018F30097071213341F98071213342898071213EB
:1019030034859807121334A998071213346A990778
:101913001213347799071213348899071213347109
:10192300B70712133489B707121334B5B707121365
:1019330034BCDA0612133410DC061213341EDC0630
:1019430012133431DC0612133446DC061213345BF3
:10195300DC061213346EDC06121334E2DC061213B7
:101963003447DD06121334E9DD06121334ADDE0607
:10197300121334BDDE06121334CCDE061213343ECA
:10198300B60712133462B6071213348AB60712135A
:1019930034B2B60712133411B407121334559E0729
:1019A3001213347C9E071213349A9E071213340DBC
:1019B3009F07121334638E071213347C8E0712139E
:1019C30034888E071213349C8E07121334BA8E0791
:1019D300121334C48E07121334CE8E07121334E15C
:1019E3008E071213346B8F07121334E08F07121311
:1019F30034149007121334629007121334AF900714
:101A0300121334CA9007121334D49007121334FA02
:101A130090071213345F9107121334DFB4071213C4
:101A23003401B507121334E5FF01121334008006A5
:101A33001213342A80061213344780061213345AC1
:101A43008006121334708006121334CE80061213EC
:101A530034068106121334FE8406121334438606B9
:101A6300121334768606121334D986061213345CA5
:101A730088061213348488061213349988061213C5
:101A830034A98806121334ED8806121334488906E4
:101A93001213345889061213341FAD071213343945
:101AA300AD0712133461AD071213347AAD07121365
:101AB300349EAD07121334BCAD07121334D3AD07F4
:101AC30012133401AE071213341CAE07121334B0D1
:101AD3007F001213349E8707121334AE8707121345
:101AE30034B58807121334E988071213340B8907B6
:101AF3001213342E89071213344C890712133486B8
:101B03008907121334EB89071213342D8A07121332
:101B1300346C8A071213349D8A07121334D48A074C
:101B2300121334F69B06121334F29C061213340F6D
:101B33009D06121334319D06121334F69E061213BA
:101B430034179F06121334CC9F0612133493A00646
:101B5300121334A2A106121334D4A2061213347042
:101B6300F006121334C5F0061213343FF1061213B4
:101B73003452F10612133479F1061213340CF206BF
:101B8300121334E6F206121334888906121334B39F
:101B930089061213346A8A06121334A88A061213AA
:101BA300342E8B06121334C88E06121334DB9006C0
:101BB3001213342ED80212133461D8021213349C38
:101BC300D802121334B7D802121334D4D802121322
:101BD30034A9D902121334A2DB0212133449DC02F2
:101BE3001213342DE30212133417E5021213348B4C
:101BF300E50212133426E602121334EEE70212133F
:101C030034B0E802121334E7E80212133420E90275
:101C130012133437E90212133471E90212133474C4
:101C2300E902121334C9E9021213341FEA02121330
:101C330034E1EA02121334A3EB0212133436EE0238
:101C4300121334A1EF02121334D4EF021213342F00
:101C5300F0021213347CF002121334D0F002121388
:101C63003469F10212133416F3021213344BF302E4
:101C730012133433F5021213346BF502121334CCFE
:101C8300F6021213344CF802121334A7F80212139B
:101C9300348CF902121334BEF9021213344EB20714
:101CA30012133453B2071213346DB207121334AA4A
:101CB300B207121334CEB207121334E8B207121369
:101CC3003401B30712133425B3071213345AEC0645
:101CD300121334AEEC061213347EED06121334AB3A
:101CE300ED06121334D8ED0612133402EE06121366
:101CF3003426EE0612133466EE06121334F2EE06A1
:101D030012133423EF061213344CEF0612133479F3
:101D1300EF0612133497EF06121334BBEF061213B8
:101D230034DBEF0612133411F006121334D0D0064D
:101D33001213344FAE07121334C0AE0712133422FA
:101D4300AF071213347DFA051213347DFB0512130A
:101D5300348EFC05121334C6FD051213341FFE0521
:101D63001213345DFE051213346BFE05121334CACD
:101D7300FF0512133487F80612133442FB061213BD
:101D830034AAFB061213346A91071213346F9207B5
:101D93001213343393071213344D9307121334FA87
:101DA3009307121334239407121334C7A70712138C
:101DB30034E7A707121334FAA807121334FDA80750
:101DC300121334D9AB071213340FAC07121334298F
:101DD300AC071213346BAC071213347BAC0712132A
:101DE3003415AD071213349EB206121334A8B2068B
:101DF300121334E2B2061213344BB30612133468CF
:101E0300B3061213340AB40612133413B4061213AE
:101E13003458B40612133481B4061213348EB40644
:101E2300121334FFB4061213348AB506121334D8CE
:101E3300B50612133416B6061213347BB606121304
:101E4300349EB60612133415B7061213346CB70654
:101E5300121334A7B706121334DCB706121334EE89
:101E6300B70612133400B8061213341FB806121340
:101E73003428B806121334E3B8061213342FB90604
:101E83001213346DB90612133488AA07121334C817
:101E9300AB071213341F9C07121334559C071213FC
:101EA300349D9C07121334F69D07121334F6B707BB
:101EB3001213347795051213349B9605121334D5F8
:101EC30096051213347F9805121334A9980512133B
:101ED300341E9B051213345E9B05121334F49C05C8
:101EE300121334919D05121334E39D0512133486A6
:101EF3009E05121334BE9E05121334009F05121360
:101F0300346FA005121334BDA105121334EEA305DB
:101F13001213341CA40512133443A4051213344CB6
:101F2300A4051213349CA4051213342EA505121311
:101F3300345DA805121334E0A805121334DFFF0340
:101F4300121334F5FF0312133483F4061213349976
:101F5300F4061213343DF5061213347CF5061213FE
:101F63003499F506121334CAF50612133417F6061C
:101F73001213344AF60612133485F6061213347A12
:101F8300F806121334C4BF06121334EFC10612133A
:101F93003422C3061213343AC306121334B3D506DC
:101FA300121334EED6061213347ED8061213349A63
:101FB3007800121334567900121334C37A001213C3
:101FC30034FF7B001213349C7C001213347AA40771
:101FD300121334EBA407121334D6F101121334A9EC
:101FE300F201121334F3F2011213342FF30112131B
:101FF3003429F5011213345BF50112133479F60118
:10200300121334A5F601121334AFF701121334F28D
:10201300F70112133472F801121334CCF9011213BD
:102023003421FA0112133481FA0112133443CB061B
:102033001213346ACB06121334A1CD06121334B42F
:10204300CD0612133409CE061213344FCF061213E2
:1020530034D0CF0612133458B007121334B7B00775
:10206300121334F5B00712133436B107121334FACE
:10207300B60512133463B705121334AEB705121342
:1020830034E9B70512133454BA0512133474BE0578
:102093001213348DC0051213349BC1051213346A15
:1020A300C20512133499B906121334CCB9061213AC
:1020B30034EFBA0612133495BC06121334AEBC06C1
:1020C30012133451BD06121334A9BD06121334E0A2
:1020D300BE0612133491B507121334DBB50712137E
:1020E3003458B107121334A4B107121334E3FF02B7
:1020F3001213340080041213340C80041213346E50
:1021030080041213347880041213340B81041213E5
:1021130034478104121334078204121334148204E3
:10212300121334678204121334B482041213345624
:1021330083041213348C830412133409840412139A
:1021430034A985041213347D87041213344A880496
:10215300121334CB8904121334308B04121334C595
:102163008B04121334F88C04121334EC8D04121301
:1021730034258F04121334BB9304121334A894042C
:102183001213344095041213346595041213348AE0
:10219300950412133422960412133438960412133E
:1021A300345A9604121334C09604121334DF96047F
:1021B300121334089704121334289804121334FEAC
:1021C3009804121334739A04121334949A04121356
:1021D30034159B04121334BB9B04121334039C0465
:1021E300121334749C04121334009D0412133464C8
:1021F3009D04121334C49D04121334739E041213EA
:1022030034DF9E04121334129F04121334909F047C
:10221300121334ECA0041213345CA104121334EE31
:10222300A10412133451A304121334D8A3041213B8
:10223300343DA4041213346BA604121334F7A70419
:1022430012133407A8041213343BA804121334A93D
:10225300A804121334E4A80412133446A904121375
:1022630034DBA904121334B6AB0412133472AD0475
:102273001213347CAE0412133479B20412133446AD
:10228300B3041213345EB40412133408B6041213E5
:1022930034FC83071213346C84071213347A8407D3
:1022A3001213348885071213342DA905121334E44D
:1022B300A905121334EBAA0512133469AB051213E3
:1022C30034ABAC05121334CCAC0512133477AD0523
:1022D30012133422AE0512133402B2051213341E44
:1022E300B40512133485B50512133427B907121335
:1022F300341CB80412133477B80412133401B9042C
:1023030012133472BA041213344ABB041213343353
:10231300BC041213344ABC041213349CBC041213BD
:102323003400BD0412133441BD0412133454BD04EC
:10233300121334AABD0412133403BE041213341B44
:10234300BE04121334CBC00412133460C10412133D
:10235300348AC104121334D3C104121334C3C30423
:102363001213342DC40412133401C504121334445C
:10237300C5041213345EC504121334A5C504121325
:1023830034C5C5041213346FC6041213346DC70465
:10239300121334C7C70412133418C8041213342396
:1023A300C904121334C7CB04121334FDCB04121324
:1023B300346FCC0412133494CC041213340ECD04B2
:1023C300121334D7CD0412133414CE0412133476FB
:1023D300CE0412133437CF041213343ACF0412133A
:1023E3003444CF041213344ECF0412133461CF0498
:1023F300121334DDCF0412133406D004121334192C
:10240300D00412133445D0041213346CD0041213C5
:102413003490D004121334CBD0041213343DD104BE
:1024230012133465D104121334A6D104121334DB0E
:10243300D104121334FBD10412133438D20412130F
:10244300346FD20412133479D304121334ACD4048A
:10245300121334C2D404121334CFB807121334E75F
:10246300B80712133405DF0612133443DF061213C1
:1024730034CFDF06121334DAE006121334F6E20621
:102483001213349EAB06121334EDAB061213348DC4
:10249300AD0612133448AF061213348AAF06121373
:1024A3003473B0061213347DB1061213349FB10690
:1024B300121334E9B1061213346AB206121334BD8F
:1024C300D603121334E0D603121334D3D7031213F3
:1024D300341CD80312133474D803121334D0D80322
:1024E3001213341CD90312133492D9031213341E5A
:1024F300DA0312133493DA03121334D6DA03121302
:1025030034A7DE03121334F6E00312133430E1036D
:10251300121334B4E103121334E5E4031213345AEF
:10252300E503121334EAE603121334F2E70312133A
:102533003408E9031213347EE90312133445EA0322
:10254300121334AEEA03121334B1EA0312133485BF
:10255300EB03121334C1EC0312133481EE03121391
:10256300347CF00312133487F10312133423F20380
:102573001213346EF30312133474F403121334BAC4
:10258300F90312133474F503121334008005121384
:1025930034A080051213340A8105121334B1810566
:1025A300121334108205121334BC820512133465DE
:1025B30085051213348B86051213340F8705121306
:1025C30034EC8805121334918905121334348A05C7
:1025D300121334938A051213344C8B05121334CB24
:1025E3008C05121334888E051213340990051213C7
:1025F300346391051213347392051213341993053E
:10260300121334389405121334F4D4041213346CB3
:10261300D504121334B4D5041213342BD605121374
:102623003441D6041213348BD604121334C0D604A7
:102633001213343ED70412133498D704121334F10F
:10264300D80412133470D90412133487DA04121322
:1026530034A9DA04121334B5DB04121334C6DB04D1
:10266300121334DEDB04121334FEDC041213341BA6
:10267300DD04121334EEDD0412133412DE041213DC
:102683003429DE041213344ADE041213346CDE04DC
:102693001213345EDF04121334B6DF041213342C26
:1026A300E1041213348AE104121334A9E10412136E
:1026B30034DBE20412133458E304121334C5E30485
:1026C30012133405E40412133467E40412133417A9
:1026D300E504121334E9E604121334D4E7041213A5
:1026E30034CEE804121334D4E904121334F0EA04A8
:1026F300121334FEEA04121334D7EB0412133477A3
:10270300EC04121334BBEC04121334D0EC04121394
:1027130034E1ED0412133484EE04121334DCEE04BA
:102723001213342C8B07121334D48C0712133491E5
:102733008D07121334E68D0712133400800712132A
:10274300341E800712133462800712133488800703
:10275300121334AE8007121334C68007121334DE0B
:102763008007121334F680071213345981071213AA
:10277300349B8107121334BD8207121334C68207B8
:10278300121334CF8207121334D88207121334E2A0
:10279300820712133403830712133400E80612135B
:1027A30034E0EB06121334EEEB06121334F3EB06AC
:1027B30012133407A3071213346EB807121334E548
:1027C300B9071213343BA607121334D5FF051213AE
:1027D30034008002121334578002121334C3800270
:1027E3001213344F81021213340582021213344D33
:1027F3008202121334668202121334898202121384
:1028030034AB8202121334E9820212133438830286
:10281300121334638302121334C183021213346814
:1028230084021213341085021213348C850212139E
:1028330034598602121334A08602121334EC860232
:10284300121334748702121334AD87021213340344
:1028530088021213341F88021213344E8802121393
:10286300345A8A02121334888B02121334B48B0243
:10287300121334E88B02121334098C021213341826
:102883008C02121334238C02121334D28C021213CF
:1028930034428D02121334CD8D02121334D58D02BE
:1028A300121334428E021213347E8E0212133444F6
:1028B3008F021213341790021213346C9002121306
:1028C300340B9102121334659102121334AA91024C
:1028D3001213344394021213348695021213347084
:1028E3009802121334549902121334389A021213B1
:1028F30034499A02121334BB9A02121334529B02C4
:10290300121334B79B02121334A79C02121334CC54
:102913009C02121334EA9C02121334069D02121312
:1029230034799D02121334889D02121334109E02CF
:102933001213340D9F021213341A9F0212133423FD
:102943009F0212133405A10212133427A202121399
:102953003437A20212133465A302121334E4A30220
:10296300121334FFA4021213343BA50212133415BD
:10297300A702121334D2AA02121334E6AA021213C4
:1029830034F0AA02121334FAAA0212133404AB026B
:102993001213341DAB0212133427AB0212133494F7
:1029A300AB021213349FAB02121334C7AB021213E0
:1029B30034D2AB0212133437AC0212133442AC02DA
:1029C30012133466AC021213348AAC02121334FCB1
:1029D300AC0212133445AD0212133461AD0212136B
:1029E30034D2AD021213341EAE0212133467AE0298
:1029F300121334A5AE0212133426AF02121334CDD0
:102A0300AF021213349CB10212133401B202121337
:102A1300342FB30212133455B3021213349DB4028C
:102A2300121334D7B702121334D5B902121334A0D8
:102A3300BB0212133439BC021213343ABE0212130E
:102A430034EFBE0212133428BF021213348EBF02B6
:102A530012133498BF02121334C1C102121334008B
:102A6300C30212133457C30212133402C4021213E3
:102A730034B2C502121334FFC6021213341FC70245
:102A830012133474C70212133475C8021213349D1F
:102A9300C802121334FCC802121334F4C90212130D
:102AA300346BCA021213347ECB02121334ECCB0202
:102AB300121334EBCC0212133445CF021213346ECB
:102AC300CF02121334D4D00212133456D20212138B
:102AD30034ADD2021213345BD30212133400D40286
:102AE30012133459D40212133417D502121334A912
:102AF300D50212133408D6021213344AD602121323
:102B0300347BD602121334D2D7021213340080035B
:102B13001213343280031213346B800312133429DB
:102B23008203121334FF82031213345E83031213DE
:102B330034748403121334C084031213344E870392
:102B4300121334288A031213346F8B0312133407BE
:102B53008C03121334138C031213345C8C0312137F
:102B6300349E8D03121334948E03121334BE8E03DA
:102B7300121334148F031213346D8F03121334E0C2
:102B83008F03121334169203121334989303121300
:102B930034839403121334CD95031213340598032D
:102BA300121334029B03121334119B03121334A523
:102BB3009B03121334509C03121334939C0312137C
:102BC30034DC9C031213342C9D03121334909D03A5
:102BD300121334029E031213341E9E031213344D38
:102BE3009E031213348C9E03121334879F03121314
:102BF3003436A003121334B3A203121334E5A30330
:102C0300121334BDA4031213343FA50312133474F7
:102C1300A903121334A3A903121334FEA903121335
:102C23003431AA03121334A9AA03121334DCAA03FE
:102C33001213343DAB031213348DAB031213345A06
:102C4300AC0312133413AD03121334D7AD031213B1
:102C53003451B003121334B3B10312133404B30366
:102C630012133428B4031213342BB4031213345A3B
:102C7300B40312133452B60312133411B7031213ED
:102C83003440B7031213345EB80312133426B90366
:102C9300121334E4BA0312133416BB031213345859
:102CA300BB0312133457BC03121334CABC031213ED
:102CB30034F3BE0312133452BF03121334A6BF03FB
:102CC300121334D5C103121334B8C203121334746C
:102CD300C30312133488C3031213349CC3031213A4
:102CE30034C9C303121334F9C303121334B4C50331
:102CF300121334C6C6031213341BC70312133464EE
:102D0300C7031213348BC70312133453C8031213AC
:102D130034F9C8031213347FCA03121334C6CA0327
:102D230012133438CB031213348DCC0312133436FD
:102D3300CD031213346ACD0312133482CD0312135D
:102D43003425CE03121334A1D00312133449D20312
:102D530012133467D20312133485D203121334517E
:102D6300D3031213349FD603121334528401121364
:102D7300348A84011213348A8901121334D08901ED
:102D8300121334068B011213346B8B01121334E0CC
:102D93008C01121334EA8F011213341391011213AD
:102DA30034269B01121334B69B01121334A09E01E7
:102DB300121334AD9F0112133410A00112133458AF
:102DC300A101121334C6A30112133458A50112131F
:102DD30034E5A50112133404A70112133491A7019A
:102DE3001213349BA701121334C3A70112133463C4
:102DF300A8011213344EA9011213341BAA01121392
:102E03003438AA0112133461AA011213348EAA01B1
:102E1300121334D5AC01121334A4AD01121334E3ED
:102E2300AD0112133465AE0112133406AF01121350
:102E33003438AF011213347FAF01121334B2AF0130
:102E4300121334F6AF0112133445B0011213344A8E
:102E5300B001121334A6B001121334EAB0011213F5
:102E630034C4B10112133429B2011213348FB201E5
:102E73001213340AB30112133472B60112133475E8
:102E8300B701121334F3B80112133409BC0112133E
:102E930034ABBC01121334F4BE01121334AFBF01BF
:102EA300121334EEBF01121334C6C101121334E3FB
:102EB300C101121334ECC101121334F5C101121311
:102EC3003400C2011213341FC201121334C3C301ED
:102ED30012133420C4011213342AC40112133434DC
:102EE300C40112133493C401121334DDC401121349
:102EF30034DEC50112133435C60112133446C7013B
:102F03001213348FC70112133449C80112133460EA
:102F1300C90112133435CA011213347CCB011213C5
:102F23003480CC0112133479CD0112133491CD01C5
:102F3300121334C8CD01121334D2CD01121334DC71
:102F4300CD01121334E7CD0112133405CE01121350
:102F5300344DCE01121334ABCE01121334D2CE0151
:102F6300121334E4CE0112133499CF01121334D265
:102F7300CF01121334F4D00112133447D1011213C9
:102F8300342DD20112133454D201121334C4D2019A
:102F930012133440D3011213349CD401121334C3DB
:102FA300D50112133485D60112133453D7011213EA
:102FB3003411D801121334F9D801121334A3D901EF
:102FC3001213340BDA01121334C0DA011213341C56
:102FD300DB0112133474DB011213343ADC011213D4
:102FE300345DDC0112133418DD011213343ADD01B0
:102FF3001213349BDD01121334CBDF01121334C4DB
:10300300E00112133470E10112133491E30112133E
:1030130034DAE30112133425E40112133481E40199
:10302300121334DFE40112133403E50112133427BE
:10303300E5011213345CE50112133484E501121324
:1030430034C9E5011213341DE60112133476E60187
:1030530012133470E7011213340EE90112133453BF
:10306300E9011213347CE90112133405EA01121346
:103073003478EA0112133486EA01121334AAEA01FE
:1030830012133400EB011213341BEB01121334D669
:10309300EB0112133402EC0112133445EC01121349
:1030A30034A8EC01121334B6EE01121334E2EE012C
:1030B3001213349DEF0112133481F00112133415EE
:1030C300F10112133418E60512133450E6051213F6
:1030D3003471E605121334B3E60512133417E7050A
:1030E30012133421E70512133431E7051213346840
:1030F300E70512133411EB05121334D9EC0512133F
:1031030034BDEE051213345FEF05121334E9EF05F6
:10311300121334E13E001213348A3F001213346950
:1031230040001213347541001213349541001213F9
:1031330034B74200121334674400121334D44400EA
:10314300121334A54500121334AB46001213342373
:1031530047001213345E4700121334B747001213AB
:1031630034F247001213343B4800121334CF4800A3
:103173001213346549001213343A4A001213340D02
:103183004B001213349B4B00121334C14B00121328
:1031930034EE4B001213341F4C00121334EC4C006A
:1031A300121334FC4C001213344F4D001213345CD1
:1031B3004D00121334694D00121334724D00121373
:1031C30034D64D00121334344E001213347F4E00A4
:1031D3001213349A4E00121334C14E00121334DE0C
:1031E3004E00121334EA4E001213347B50001213B4
:1031F300349450001213341051001213342351002D
:10320300121334335100121334D7510012133443C1
:103213005300121334565400121334F6540012138D
:10322300340055001213347F5500121334905500A7
:10323300121334CF5500121334FD5500121334CA40
:1032430056001213342157001213345A5700121325
:1032530034B05700121334CE57001213341C5800E5
:10326300121334E758001213343559001213348201
:103273005900121334055A001213342F5A00121333
:1032830034655A00121334745A00121334D35A009B
:103293001213344B5B001213348C5B00121334DCB7
:1032A3005B00121334075C00121334215C00121309
:1032B300343B5C00121334105D001213341A5D00AA
:1032C300121334555D00121334655D00121334B6C6
:1032D3005D00121334CA5D00121334EC5E00121346
:1032E30034015F00121334945F001213340860003A
:1032F300121334AD6000121334B860001213341B80
:103303006200121334376200121334836200121303
:1033130034F162001213342363001213343D63004B
:103323001213349D63001213343C64001213348768
:103333006400121334DA6600121334726700121336
:1033430034E96700121334466A001213345E6A00CC
:10335300121334616A001213346D6A00121334813C
:103363006A00121334896A00121334C06A001213FC
:1033730034B46B001213343E6C00121334C06C006F
:10338300121334406D00121334176E0012133439C4
:103393006E00121334D26E001213342F6F00121307
:1033A30034326F00121334A16F00121334ED700026
:1033B3001213340072001213348B72001213349EF2
:1033C30073001213346574001213349674001213CD
:1033D30034BC7400121334C57400121334F4740033
:1033E300121334A47500121334547600121334C725
:1033F30076001213346A7700121334DD7700121348
:10340300341C78001213346578001213349DF803CA
:1034130012133452F803121334BCF7031213342D6E
:10342300F60312133462FC04121334E7FA04121382
:1034330034E5F904121334A6F70412133450F704D5
:1034430012133493F5041213340AF304121334845D
:10345300F20412133449D30512133475D20512132F
:103463003440F104121334FCEF0412133475D10504
:1034730012133496D00512133475EF041213341A51
:103483009507121334F99407121334B694071213E1
:1034930034529407121334BDCF05121334E3CE050F
:1034A30012133419CE0512133488CC051213345178
:1034B300CC0512133423CC05121334D7CB051213C6
:1034C3003440CB05121334B0CA051213348ACA052B
:1034D3001213343FCA0512133409CA051213348C6C
:1034E300C90512133427C905121334D6C80512139C
:1034F30034FEC7051213346EC70512133422C705F1
:103503001213349DC60512133458C6051213343CE6
:10351300C605121334D8CA06121334E4C4051213B1
:103523003439CA0612133477C6061213349CC506FF
:1035330012133486B9071213346BB907121334818B
:10354300FE0312133423FD03121334BAFC031213C4
:1035530034B6C40512133483C40512133407C405E7
:10356300121334D2E50612133451FC03121334C37D
:10357300E406121334FDE30612133484E306121334
:1035830034CDE50512133431FB0312133474E5050E
:10359300121334F8D5041213343FE5051213340A19
:1035A300E505121334D6E40512133469E405121346
:1035B3003451E4051213342CE40512133405E105E8
:1035C300121334D8DE05121334DFDC051213346B07
:1035D300DC051213341CDC05121334D6DB0512137D
:1035E3003478DB05121334BBF60512133473FA0374
:1035F30012133437F6051213344CF505121334D471
:10360300F30512133484F10512133498F0051213E1
:1036130034D7F40300000080FBE4730000000020B3
:10362300014E840000010020014E840000020020AE
:10363300014F840000030020015084000004004275
:10364300016D800000050042017E800000060042FB
:1036530001A080000007002001AB80000000404271
:1036630001A0800000100042018F800000110020A3
:10367300012D07000012001003B61D060000001004
:1036830011000008000000203300000C0055003931
:103693003300000C001C00423300001200550020D0
:1036A30001000014000E0042220000050B0000215F
:1036B300010000050B010021010000050B0001239F
:1036C300010000050B010123010000050B0201238A
:1036D300010000050B030123010000050B04012178
:1036E300010000050B050121010000050B06012166
:1036F300010000050B070121010000050B08012152
:10370300010000050B090121010000050B0A01213D
:10371300010000050B0B0121010000050B0C012129
:10372300010000050B0D0121010000050B0E012115
:10373300010000050B0F0121010000050B10012101
:10374300010000050B110121010000050B120121ED
:10375300010000050B130121010000050B140121D9
:10376300010000050B150121010000050B160121C5
:10377300010000050B170121010000050B180121B1
:10378300010000050B190121010000050B1A01219D
:10379300010000050B1B0121010000050B1C01208A
:1037A300010000050B1D01280100008F00010057D7
:1037B3001B87000100251E35000400E91D250002BA
:1037C30000ED1D26000200EF1D27000200F11D2859
:1037D300000100FB1D29000100FC1D84000400FD05
:1037E3001D86000100011E2A000100021E2B00019C
:1037F30000031E2C000100071E2D0008003F1B2E96
:10380300000100081E2F000100091E300001000AFC
:103813001E310001000B1E32000100471B33000163
:1038230000481B340001000C1E36000100491B3800
:103833000001000D1E39000100061E830002002353
:103843001E63000100541B64000100041E65000197
:1038530000051E6D000100551B71000800371B6633
:10386300000100221E43000100131E440002001445
:103873001E45000100161E46000200171E470008E1
:10388300004C1B48000100191E4B0001001A1E04C6
:10389300000100261EA1000100291E370001002897
:1038A3001E88000100271E3C0001004A1B3D000149
:1038B300000E1E490002001B1E67000100561B4D2F
:1038C3000002001D1E4E0001001F1E4F00020020BB
:1038D3001E3E000100121E510001000F1E52000186
:1038E30000101E53000100111E540001004B1B0069
:1038F3000000000000000136360101000102010052
:10390300010301000104010606050200000701008E
:10391300340801000F090401010D0100FF0E080026
:103923000017020000190100FF1A0100011B01002A
:10393300FE1C0100081D0200001F01000120010000
:1039430001210200002301000F24020000260100D0
:103953000127010008280200FF2A0100072B0102AA
:10396300402C0100002D0100012E0100012F010058
:10397300FF30010B1D310800003A0100083B010034
:103983000F3C0100013D0100FF3E04000042040022
:1039930000460400004A0400004E040000520400E4
:1039A30000560400005A0400000000210100010039
:1039B30021020000012366000101236700020123A5
:1039C300680003012369000401216A000501216BDA
:1039D300000601212C010701212D010801212E01DF
:1039E3000901212F010A012130010B012131010CB1
:1039F3000121C8000D0121C9000E0121CA000F01D8
:103A030021CB00100121CC00110121CD0012012195
:103A1300CE0013012132011401213301150121CFFD
:103A2300001601213401170121D000180121D10012
:103A3300190121D2001A0121D300010371030103EB
:103A43000103010301030103220302030103100322
:103A53000003000300030003000300030003420309
:103A630000032403060300030003040312032503D6
:103A730023032503230304030403000300030003B8
:103A830044030003000323030003650321003503FC
:103A93008103000305030003000300030003250360
:103AA3002303030471040204600411047004020478
:103AB30002040104020410046104000414046304F6
:103AC3007304720462044304000413040604000430
:103AD300000404041204000400040004000451045C
:103AE300640000040004000444040004000400040F
:103AF3000004650400043504810464000504000423
:103B030083040004030071003001600011007000A1
:103B130031022003500480001000610000001400F3
:103B2300630073007200620043000000130006008C
:103B3300000000000400120000000000000000006C
:103B430004000400370037003C024400000000007A
:103B53000000000065000000350081000000050042
:103B630000008300000003027102300160021102B1
:103B730070020102020202028002100261023A0094
:103B830041006302730272026202430200021302E3
:103B930038000002000204021202000200020002C6
:103BA300000204020402370037003C024402000210
:103BB30039000002000265020002350281020002A0
:103BC3000502820283020002010171010101010168
:103BD30011010101310101010101800110016101A4
:103BE3003B00140063017301720162014301000190
:103BF300130106013D01350004011201000100011A
:103C03000001000104010401330133013C014401BB
:103C13003201360000010001650100013500810118
:103C23000001050182018301000136000100060045
:103C330000000F0000000000000000000000000072
:103C430003FFFF00000403FFFF0000FFFF0FF40169
:103C53000005C4040320000100000B000000000065
:103C630000000003010F000000000000000000003E
:103C73000000000000000000000000000000000041
:103C83000000000000000000072261220D22112124
:103C9300132267221322732219221121132267226E
:103CA3001F221121252211212B2211213122112121
:103CB300372211213D221121432279224922112148
:103CC3000000000000000000000000004F228B22D3
:103CD300552211214F228B22552211214322792271
:103CE3005B2211210000A925130055251F005B2528
:103CF3001F8061250100A9250200DD240300E324C0
:103D03000400E9240500EF240600FB2430001925F4
:103D1300310013253200252533002B2535003125AD
:103D23003400372536003D251100492514004F2561
:103D330015000D25FFFF00000A000000020000002F
:103D43000400000008000000100000002000000034
:103D5300400000008000000000010000000200009D
:103D63000004000000080000001000000020000014
:103D73000040000001A72D06D12D08CB2D0BE92D06
:103D830010BF2A02AD2D05BF2D07B32D0C8F2D0DAE
:103D93009B2D64BB28FF000007ECFDFDFDECDCDC84
:103DA300CCBCACAC9C9C8C7C7C6C6C5C5C5C4C4CF0
:103DB3003C3C2C2C1C1C00000004060000040600E4
:103DC3000104060002040600420408000004001671
:103DD3000F00000B150B020002220F3300000E5AD6
:103DE3006967426565416C6C69616E636530390171
:103DF300030507090B0D0F00020406080A0C0D1436
:103E03000AE5D5C5B5A5A5958585756500034A4918
:103E1300434E181A250502303017181921301B1D7F
:103E23001F30303016181920231A1C1E3000393D5C
:103E33003F373C3C362C442D000119161816161832
:103E43002303000C0E020B040B0A0708000F0204E5
:103E530002010101010902E803000000BE040A9BFC
:103E63003D00000000023E0E00FA067F00E803FF5B
:103E73001E1E00050C08040400102809080903018C
:103E83000C0508031532060300FF0A0C1004E004B6
:103E9300124711A2E792AF22E4F0A3F0A3F022A30A
:103EA300123E9BA3F0227F0C02103CE0F508E4F5E0
:103EB30009F50AF50B227401F09004DAE0640F228D
:103EC30074091213647F0402103CA3A3E024F5C316
:103ED3009413229004FA126A017A147B0022C0829E
:103EE300C083901C737473F0A37431F0A37485F0D2
:103EF300A37431F0901C77745BF0A37431F0A37456
:103F030055F0A37431F0A37491F0A37431F0A3744A
:103F130097F0A37431F0A3748BF0A37431F0A374FE
:103F230043F0A37431F0901C837467F0A37431F0F1
:103F3300A3746DF0A37431F0A37461F0A37431F032
:103F4300A3749DF0A37431F0901C94125F8E6006ED
:103F53001261F8121EA7901C911256BA7408F0A3AE
:103F6300E4F0A3F0901D34F0901C96F07C0BFDF967
:103F73007A977B1C121DF97C0B7D0079007AA27B5A
:103F83001C121DF90256C374F7120D3574F712147F
:103F930047EAFEEBFF1254E174051240577403F035
:103FA300EE2402FAE43F124031242DFCE43FFD8C61
:103FB300828D8312416F12404060081248B974FF2A
:103FC300F0A3F0EE242BE43F1C1CFD8C828D83A315
:103FD300E0C0E08A828B831254F2D0E01240408822
:103FE300828983125CEA24031267CB122069740866
:103FF3001216DE7403F09004EF12114874021214C7
:10400300297903EEFAEFFB12332F7402121364E9DA
:10401300F5087007EEFAEFFB123215A908740902CE
:1040230048C9F582E43FF583127436125CDFFB8ADC
:10403300828B8312404FE8F0A3E9F0EE22126A1F4D
:1040430012404FE8F0A3E9126F9BE02212413A8A33
:10405300828B8322F0A3E4F012405F22EE240DF55D
:1040630082E43FF5832274F1120D35EAFEEBFF8CF7
:10407300088D09890A1241448A828B8312413A745A
:104083000F1216DE12415DE824FF18E934FFF988A8
:10409300828983E50A12414F9004F412414C900443
:1040A300F312414C74111216DE12415DEE2404FC2E
:1040B300E43FFD880B8A828B83E0F50C8C828D8331
:1040C300E0250CC3950B126A1BE8F0A3E912544ECA
:1040D300A3A3A3A3A3A3A3A3E0640370081257AAF3
:1040E300F0A3E4800312445012405A7409F0750C93
:1040F30097750D1C750E00780C121383124444122D
:104103001DED7403121364750CFF750DFF780C120B
:104113001387AC08AD097903EEFAEFFB12332F7462
:1041230002121364E9F5087007EEFAEFFB12321579
:10413300A9087F0702103CE024FFF8A3E034FFF94D
:1041430022EE2402FAE43FFB2212416F1241532272
:10415300F0E824FF18E934FFF922E0F50CA312413B
:104163006F12415388828983E50CF022E0888289AB
:104173008322C082C083901CB3E0C39408400474BC
:10418300078001E08A828B83F033333354F8F902DA
:1041930056C374F0120D35EAFEEBFF890C8C0E8DBD
:1041A3000F750A00A2AFE433F50BC2AF901CAD80CC
:1041B3003F12427D503712428E64037030EE24F971
:1041C300FEEF34FFFF850882850983A3A3E024055E
:1041D300FCA3E03400FDEEFAEFFB122069EE24FFAE
:1041E3001EEF34FFFF7410250AF50A150C12541B39
:1041F300127432E50C6006E508450970B4E50BA2BC
:10420300E092AFA2AFE433F50BC2AF901CAD802CAC
:104213002402FAE43509FB8A828B83126A0A240694
:10422300F582E438F58312429B8A828B83124283A0
:10423300A3A312429B050A150C12541B125430609F
:104243002212428E640270F112427DE50840C112CF
:10425300457EA2E550E3850E82850F837401F0E568
:104263000C70D6E50BA2E092AF8E828F83E50AF045
:10427300EE24FFFAEF34FFFB8035124589A2E622D4
:1042830012428722126DFFA3A3A322850882850908
:1042930083126DF912643322E08E828F83F0EE2451
:1042A300FF1EEF34FFFF221233FB74041213647FEB
:1042B3000802103C74EC120D3574F512144789137F
:1042C3008A128B0F851882851983E4F00412142156
:1042D300123125E9F89004D9E0292434F508FA7B52
:1042E30000121E0B8A0A8B0BAE0AAF0BEE4F700344
:1042F300024438EE2402F50AE43FF50BA808EE2841
:10430300F8E43FF9850A82850B831240392404F5CA
:1043130010E43FF511851082F583E4F09004D9E0B1
:10432300FCF8C3E498F895E0F9850A82850B83E0ED
:1043330028F508A3E039F5099004D71266C3750E72
:1043430000780C1213837D00AA08AB09121DED74CB
:1043530003121364AC18AD1974011216DEE0F9E50B
:104363000824FFFAE50934FFFB12312B8A828B8381
:10437300E4F0EA24FFF508EB34FFF509E50FC45434
:10438300F0F9901D35E0C4333354C0F89004D3E002
:10439300A2E0E43313134849440F124458E512C40E
:1043A30054F04513850882850983F0A808850A829D
:1043B300850B83E0FA851082851183E02AC398F088
:1043C300850A82850B83E8F0A3E509F012445012B5
:1043D300405AE4F0740A1216DEE4F07508A2750977
:1043E3001CF50A7808121383124444121DED74035A
:1043F300121364851882851983E06009EE240E1276
:1044030055774408F0123317E9F9E4F508F509780C
:10441300081213877404121429EEFAEFFB12332FD8
:104423007402121364E97006EEFAEFFB800BEEFAE6
:10443300EFFB121E117A007B00740B121364023E11
:10444300A97C0B7D00EE2418FAE43FFB221254E50D
:10445300E4F0A322E085088285098312446222F0F6
:104463001266972274F3120D358A0A8B0BA2AFE4FE
:1044730033F50CC2AF750800750900901CAD802C94
:104483001246A55024850A82850B83A3A312785F65
:104493008E828F83A3A31261FB12331DE9600A127C
:1044A30044CBC2E6F08E088F0912469A1249537024
:1044B300CFE50845096006124585D2E6F0E50CA272
:1044C300E092AF7F0502103C1244CF221266B0E0A7
:1044D3002274F0120D35EAFEEBFF8C0C8D0D750E78
:1044E30000A2AFE433F50FC2AF7508007509009061
:1044F3001CAD8020850A08850B09124585D2E4F09E
:10450300E50812457ED2E7F0E50A24FBF582E50BC8
:1045130034FFF583E0F50AA3E0F50BE50A450B60EC
:1045230043E50A125306350BF583E0A2E750D9851C
:104533000A82850B83A3A3121148AC0CAD0DEEFACE
:10454300EFFB1233237402121364E960BBE50845E1
:104553000960A1E508240D12459164017006124516
:104563009AD2E4F0E50FA2E092AFE50845096006B0
:1045730012320F750E01A90E0242B21253301245C8
:10458300942212458922E508241112459122F582CD
:10459300E43509F583E022850882850983126DF9E4
:1045A300E02274F2120D3574FE121447750C007577
:1045B3000D00851882851983E4F0A3F0A2AF33F5CB
:1045C3000AC2AF901CADE0FEA3E0FF8035EE24FBF2
:1045D300F582EF34FF127430780C121387EEFCEF80
:1045E300FD7AAD7B1C121E417402121364EEFCEFC4
:1045F300FDAA18AB19121E2FAE08AF09901CB3E029
:1046030014F0EE4F60271246A5501DEE240BF8E47C
:104613003FF988828983E024FFF0A3E034FFF08828
:10462300828983125F8E60A51246968099E50AA25D
:10463300E092AF901CB3E060319004DAE0640F6065
:1046430006901D34E070237A8B7B1C123407908410
:10465300351211447A8B7B1C1233FB7404121364DE
:10466300800874F01258E1123203AA18AB19121E13
:10467300358A0A8B0BAE0AAF0BEE4F60131231373C
:104683001244CBA2E28E828F83A350D674E980D4E6
:1046930002495B8E0C8F0DEE24FBF582EF34FFF5A0
:1046A30083221244CFA2E72274F7120D35EAFEEB00
:1046B300FF1231371254EF12361CE964019004F6ED
:1046C300700AE02401F8A3E034008004E0F8A3E0DA
:1046D300F9125B3D125EE6901CB3E070219004DAA0
:1046E300E0640F70197A8B7B1C12340790843512A7
:1046F30011447A8B7B1C1233FB7404121364A9A834
:10470300C2AF901CB3E004124711A2E7800DF0E999
:10471300A2E7E433F8E922E508A2E092AF02597D6B
:1047230074F7120D35EAFEEBFF124758F0123137DA
:10473300EEFCEFFD7AAD7B1C121E3BA9A8C2AF9025
:104743001CB3123E919004DAE0640F7005790812ED
:1047530032CF02597D1244CFC2E42274F7120D35D1
:1047630074EA121447EAFEEBFF9004D3E06040853D
:1047730018828519837401F01216DEE41248301290
:1047830016DEAA82AB831220698E828F831245A024
:10479300C0E0740A1216DED0E0126A30740B1216EF
:1047A300DEAA82AB83123347AA18AB1912279B7474
:1047B300160248C974F7120D35EAFEEBFF123119E0
:1047C300E9F974DC69601E74DD69601974E4696079
:1047D3001474F369600F74DE69600A74DF6960053D
:1047E30074DB697007EEFAEFFB1232D502597D7460
:1047F300F7120D3574EB121447EAFEEBFF851882AE
:1048030085198374061248301216DEAA82AB83120E
:104813002069126A35740A1216DEAA82AB83123338
:1048230047AA18AB1912279B74150248C9F0EE2446
:1048330013FCE43FFD74022274F7120D3574F71272
:104843001447EAFEEBFFEE242D12557760651251F3
:1048530008AA18AB1912206974081216DE7403F043
:104863009004EF1211481248B9121148900502E062
:10487300F97404121429EEFAEFFB12311F740412B7
:104883001364E9F974DC69602374DD69601E74E400
:1048930069601974F369601474DE69600F74DF6909
:1048A300600A74E869600574DB697007EEFAEFFB70
:1048B3001232D5024020EE1248BE22242BF582E4A8
:1048C3003FF58322740312136402597D74F2120DAF
:1048D300358A088B09750C00750D00750AE7A2AFC0
:1048E300E433F50BC2AF901CAD8003124696124918
:1048F3005360351246A550F3125574640170ECEE03
:10490300242FF582E43F124B02E06870DE780C122C
:104913001387EEFCEFFD7AAD7B1C121E417402126D
:104923001364901CB3E014F0E50BA2E092AFEE4FDA
:104933006013EEFAEFFB12313779F0EEFAEFFB1268
:1049430032D5750A00A90AAA08AB091232D5800D1F
:10495300E0FEA3E0FFEE4F2274021213647F06020F
:10496300103C74F4120D3574F7121447EAFEEBFF92
:104973008E828F83A3E064F37003024A0F8E828FCB
:1049830083A3E064DF7003024A0F8E828F83A3E068
:1049930064E860788E828F83A3E064DB606E1231FB
:1049A30079E9F508705EEE240E1255776056124AC7
:1049B300191231C1EA4B604C74081216DE124A23F5
:1049C3001211487508FF7509FF78081213878E8244
:1049D3008F83A3A3A3A3A3A3A3A3E0F97404121433
:1049E3002912311F7404121364E9F50874F365087E
:1049F300601274DF6508600C74E86508600674DB98
:104A03006508700F8E828F83A3E508F0EEFAEFFB43
:104A1300123185023EC3EE240FFAE43FFB790922EB
:104A230074021271F874FFF0A3124A3022124A344E
:104A330022125CF3A3A32274F5120D358A088B09A5
:104A43007E008A828B83A3A3A3A3A3A3123ECD409C
:104A5300027EE88A828B83A3A3A3A3A3A3A3A3A316
:104A6300A3E0C3941040047EE880138A828B83A35F
:104A7300A3A3A3A3A3A3A3A3A3E0640F600A901D0E
:104A830011E0540870027EE8EA240BF582E435094C
:104A9300124B02A3A3A3A3A3A3A3A3E0C398500C05
:104AA300EA240B124591640F60027EE89004F3E060
:104AB300F47003A3E0F470027EEC7A237B00121EF1
:104AC300A1901C9412620B901C94125F8E60298536
:104AD3000882850983A3A3A982AA8389088A097501
:104AE3000A0078081213837C237D001261F8121DDB
:104AF300ED740312136480027E1AEEF9027399F5C2
:104B030083E0F88A828B83A3A32274F5120D35EA1E
:104B1300FEEBFF8E828F83A3A3A3A3A3A3A3A3E090
:104B23009004DA1270DB9004F51270C19004D51270
:104B330070E0901D35F0F91219C7901D35E060182B
:104B4300EE2404FAE43FFB79501219AFEE2406FA7F
:104B5300E43FFB79E11219AF901D34123EB96004B2
:104B6300740180027400901C961270C71213837C28
:104B73000B7D007A977B1C121DED7403121364EEF8
:104B83002418F508E43FF50978081213837C0B7D9C
:104B9300007AA27B1C02739174F7120D35EAFEEBC7
:104BA300FF8E828F83A3E070061261F812317F8E2D
:104BB300828F83742C1258E11232E102597D74F70B
:104BC300120D35EAFEEBFF901C94125F8E600D12FE
:104BD30061F8901C94E4F0A3F0121EA78E828F83D9
:104BE30074081258E112279B02597D74F6120D3591
:104BF300901D34E06013901C96E0700D124C0F1260
:104C03003131EA4B6003123215026D3B9004D5E05B
:104C1300FB9004F5E0FA9004DAE0F92274F4120D43
:104C23003574E7121447EAFEEBFF750B018E828F92
:104C330083A3A3A3A3A3A3A3E0A2E25068EE242B20
:104C4300F582E43F12785D124CDD12313DE9705577
:104C53009082A3E064017005750B008048124CE557
:104C63001213837C0B7D007411121421121DED7439
:104C730003121364123317E9FA740E121419880815
:104C830089097808121387750830750900780812A6
:104C930013871248B91211481269D17901123335B9
:104CA30074061213648518828519837410124830B0
:104CB3001216DEAA82AB8312205D1248B91269FD77
:104CC300740B1216DE125EE6740D1216DEE50B127D
:104CD300575412279B7419023EC5EE2413FAE43F7E
:104CE300FB22EE24081270CF22C082C083901D35B0
:104CF300E060031233890256C3C082C083901D2C27
:104D03007473F0A3741CF0A37477F0A3741CF0A362
:104D13007483F0A3741CF0901E4D74A5F0A3743A31
:104D2300F0901D167413F0A37431F0901CB87449FD
:104D3300F0A37431F0901CBA744FF0A37431F09067
:104D43001D11E044028001E4F00256C3C082C08317
:104D5300EAFCEBFD7903025D5FC082C083EAFCEBF2
:104D6300FD7905025D5FC082C0837908026ECCC005
:104D730082C08374FE121447901CC074FDF0A374A8
:104D830031F0901CC274F7F0A37431F0800D7AAD4A
:104D93007B1C121E3512574A123305901CAD125F4D
:104DA3008E70EB901CAF125F8E600F7AAF7B1C127C
:104DB3001E3512574A12330580E9901CADE4F0A367
:104DC300F0901CB3123E9C7402800274111213649F
:104DD3000256C374F6120D35E9FF743029F582E4E7
:104DE300343EF583E493FEFA7B00121E0BEA4B601C
:104DF30011EA2E125EDC8A828B83A3A3A3A3E4F0C1
:104E0300802C7A027B00121E0BEA4B601D741A2F52
:104E1300F582E4343EF583E4938A828B83F0A374B2
:104E23001AF0901D0CE0F9121E177A007B00026D38
:104E33003BE9FC740629F8EAA2E0501EE875F00A83
:104E430084E5F0F96014740A28C399F8E9C394055A
:104E53004004740A28F8740B28F8ECC39413400434
:104E63007A1480027A06EA2879002409F8500109A5
:104E73007A0A7B00120AEAE8F9021331C082C0837E
:104E8300901D11E05402600A1227A1E96004790120
:104E9300800279000256C3C082C083901D11E05482
:104EA300026016901CB3E0700C125F8B600BE0C8BD
:104EB30012542850047901800279000256C3C0823B
:104EC300C0839082A0E0F8901CB5E0C3985005120F
:104ED3001E0B80047A007B000256C3C082C083127B
:104EE300330579000256C374F7120D3574FE12149C
:104EF30047851882851983EAF0A3EB125059A3A3BF
:104F0300A3A3A3E0600A14606024FE6069024FDA81
:104F13009004DAE0640F60181232DBE9701285182E
:104F2300828519831261FB901CBC1254F212361C49
:104F3300900502E0C0E0851882851983125CBDD01C
:104F4300E012505974141271F412785F7AAF7B1C1B
:104F5300121E2FA8A8C2AF901CB5E00412621179EB
:104F6300201232CF74020248C98518828519831230
:104F73006E01741580D085188285198312503CA365
:104F8300A3E06053851882851983E02402F8A3E027
:104F93003400F988828983127632E0C0E085188272
:104FA300851983E0FCA3E0CC2406F582E43CF58379
:104FB300D0E0126A3D8882898312620B851882854C
:104FC3001983125324851882851983601312504163
:104FD30060051250494043AA18AB19123305808467
:104FE30012504160F2125049501C125438FA85187D
:104FF30082851983125043F87450125ED7343EF5FC
:1050030083E4936A6014851882851983125041647E
:105013000870C4125438640870BD12543814125006
:1050230061240AC0E08518828519831254F2D0E006
:1050330012506104024F49E0F8A3125D0A22E0F81E
:10504300A3E012506822851882851983126A0E1212
:105053005069C3940A22125073F583888222125036
:105063007312506822C82406F582E438F583E022DF
:105073001271F8E0F8A3E022C082C083901CC4122E
:105083005F8E6008126E0212361C8002790002568F
:10509300C374F7120D35EAFEEBFF12405F7401F0A3
:1050A300EE2430F582E43FF58312676B1240392416
:1050B30032125577C0E0EE2413F582E43FF583D036
:1050C300E0F0EE2433125577C0E0EE2414F582E4C9
:1050D3003FF583D0E0F0EE242CF582E43FF5831214
:1050E3001148125108EE242E125577F912332F74FA
:1050F30002121364E9F5087007EEFAEFFB1232159A
:10510300A90802597DEE2423FCE43FFD22C082C09E
:10511300831232DBE960047920800279010256C3ED
:10512300C082C083EA1253061251C7D2E0024D4B2C
:10513300C082C0831251C1640170111251CC400C62
:105143008A828B83A3E0F91232D5806FEA2410128E
:1051530051C4A2E650128A828B83A3E0F9901CBE4D
:105163001254F212361C80531251C16401700D1295
:1051730051CC50088A828B83743080368A828B8329
:10518300A3E0641B8A828B83700474228024A3E0CF
:10519300700D1251C1F87425125ED7343E800B1284
:1051A30051C1F8741A125ED7343EF583E4938A82B0
:1051B3008B83F0901D0CE0F9121E170256C3EA24EC
:1051C3000DF582E43BF583E022EA1253303BF5838D
:1051D300E0A2E32274F7120D35E9FE125F8B700330
:1051E3000252FDEE6011741B6E7013E0C81253007F
:1051F300640570030252C8126DF1E40252CC74E9E3
:105203006E706212531C700B1227A7E960051253CC
:1052130036606279EE12192B901CB6125319901C4A
:10522300B6603B125339901CB6700B12531914F02D
:10523300121AF30252FD125324C2E71254441253BA
:10524300006403700C126A0712530612506ED2E206
:10525300F079ED12192B12530C12361C8075126D56
:10526300F474E9806474E16E703E1227A7E9605517
:1052730012533670509004FCE0C0E0126A07241207
:10528300F582E438F583D0E0F09004EBE0C0E090E1
:105293001CB612503A12503AD0E0F09004EBE004FE
:1052A300F07901121ADB8052741C6E7018901CB6D0
:1052B3001261FB901CC61254F212361C901CB6E409
:1052C300F0A3F08035126DF1EEF0901CB61261FB85
:1052D300123203126A071269D9E0548060109005F4
:1052E30002E0F91219EB900501E0F91219DF901CA5
:1052F300B6E4F0A3F079101232CF02597D240D12D7
:10530300506B222411F582E422901CB61261FF90A7
:105313001CBA126DFB22E0F8A3E0C8241212506BF2
:1053230022E0F8A3E0C812533012506E222410F585
:1053330082E422901CB6126A0E1269DDE054042244
:1053430074F4120D35750A00750B00A2AFE433FF38
:10535300C2AF125F8B60030254001254EF12361C6B
:10536300E94410F8901CAD800985080A85090B12E1
:10537300541B125430700302540012458558687050
:10538300E8780A121387AC08AD097AAD7B1C121EAC
:10539300417402121364901CB6E508F0A3E50912E8
:1053A3005444125428405D901CB4E014F0EFA2E082
:1053B30092AF901CB6E0240EF8A3E03400F98808FD
:1053C30089098882F5831261FB901CB612543EF959
:1053D3001231C7E9901CB1F012544CE05480901C78
:1053E300B66026126A0A241312506BF91219EB12D3
:1053F3006A07241412506BF91219DF8018EFA2E028
:1054030092AF8011901CB380A1125324A2E1B3E4A4
:1054130033F9121ADB023EC8E50824FBF582E509DD
:1054230034FFF58322241112506BA2E72212743643
:10543300E508450922851882851983124287A3E06E
:1054430022F0901CB6126A0E22A3E4F0850882852E
:1054530009832274F7120D35EAFEEBFF1232FFEED9
:105463002410125577A2E3400C12557464017005A1
:1054730090829E800390829FE0F9EEFCEFFD7AAD6F
:105483007B1C121E47E96046EEFAEFFB901CC0122C
:1054930054F212361CEE240E12557754047020A8D1
:1054A300A8C2AF901CB4E0041261F1FAE8A2E7923B
:1054B300AF1254E1A3E05401702112320F801CEEAD
:1054C300FAEFFB901CB81254F212361C800D8E8238
:1054D3008F83A374F11258E112320302597D1254DF
:1054E300E522EE240EF582E43FF58322901CC212DE
:1054F3006DFB22C082C08312320F0256C374F712AF
:105503000D35EAFEEBFF7900901D11E05402700C9B
:10551300EE24301255775404600279E8901D11E0AF
:105523005460700CEE24301255775402600279E80F
:105533008E828F83A3A3A3A3E0F89082A4E0C398F1
:10554300500279E8EE242E125577700CEE242B12BC
:105553005577700479F5800BE970051231F1E9F99B
:10556300E96007EEFAEFFB1232D502597D34FFF5FD
:1055730009EE240DF582E43FF583E022C082C08367
:105583008A828B83740DF012279B0256C3C082C09C
:10559300838A828B83E4F0A3F0EA24301251C4544B
:1055A3000490829E7012E0F8901CB4E0C3984012FD
:1055B30079F11232D50256C3E0F8901CB3E0C398D8
:1055C30050EE901D0CE0F9121E1780E974F6120DCF
:1055D30035E9FE244CFAE43400FB121E0BEA4B605F
:1055E30012EE8A828B83A3A3A3A3F0EA244C125E58
:1055F300DC80047A007B00026D3BC082C083901C78
:10560300C8745DF0A37432F0A3748DF0A37432F008
:10561300A37463F0A37432F0A37469F0A37432F03B
:10562300A37487F0A37432F0A3747BF0A37432F0F5
:10563300A37475F0A37432F0A37493F0A37432F0DF
:10564300A37499F0A37432F0A3749FF0A37432F09F
:10565300A374ABF0A37432F0A3746FF0A37432F0AD
:10566300A37457F0A37432F0A37451F0A37432F00F
:10567300901CE47481F0A37432F0A374A5F0A374B6
:1056830032F0A374BFF0A37433F0A374B1F0A37426
:1056930032F0A374B7F0A37432F0901D08E4F090D5
:1056A3001D0BF0901CF41256BA7402F0901CFD12FC
:1056B30056BA7401024D4B74CFF0A37432F0A32297
:1056C300D083D08202133174F5120D3574F11214A4
:1056D300478518828519837402F074011216DEE976
:1056E300F060047AFF7BFF74021216DE12620B7500
:1056F300080075091D750A0078081213837C0B7D59
:105703000074071216DEAA82AB83121DED74031216
:105713001364AA18AB1912279B740F02739674F7BC
:10572300120D3574FD121447851882851983740A86
:10573300F074011216DEE9F074021216DEEA125753
:105743005412279B0248C7851882851983EAF0A360
:10575300EBF0AA18AB192274F6120D3574F7121474
:1057630047EAFEEBFF1257AA12405774021258D2AF
:10577300AA18AB1912205DEE242E124025243012F4
:1057830067D8121387740212142979831A1AEFFB4C
:1057930012332F7402121364E9F5087007EEFAEF5F
:1057A300FB123215026D341254E574012274F012A7
:1057B3000D3512727F12166F7808790C120BCE78A2
:1057C3000812137F7AF77B1C0242AA74F4120D3578
:1057D30074C61214479004DAE0640F6010851882CF
:1057E300851983742E1257541232E180277AEE7B87
:1057F3001C123407123ED6120AF288088909E4F50E
:105803000AF50B780812137F7AEE7B1C1233FB74B4
:1058130004121364743A023EC574F5120D35EAFEA0
:10582300EBFF8E828F83A3E0F860030258BBEE2464
:105833002D12557764026007E06403600278E8EE96
:105843002423F582E43FF583123ECF400478E880B9
:105853006AE87064EE2423FAE43FFB79E11219AF9E
:10586300EE242EFAE43FFB79501219AFEE242D12E9
:1058730055776402700E1269C71269FD9004E9122C
:105883005EE680129004E974FEF0A3041258D27A03
:10589300E07B04122069EE2418124CE81213837C77
:1058A3000B7D007A007B1D121DED7403121364EE51
:1058B300FAEFFB12324BE9F8E86011E88E828F832E
:1058C300A3126C2974171258E11232E1027399F092
:1058D300EE2425FCE43FFD228E828F837429F0EEB3
:1058E300FAEFFB2274F6120D3574F7121447901D6C
:1058F3000BE0703B7401F0F9121AA5AA18AB191248
:10590300331175080075091D78081213877508018E
:1059130075090078081213879004EF121148740672
:105923001214297A037905123335740612136402AB
:105933006D3674F7120D35EAFEEBFF7901121AABDF
:105943008E828F83E064207004A374EBF0901D0BB0
:10595300E0A2E25003C2E2F0E0A2E15008125B7F52
:10596300123245800C8E828F83742A1258E11232D0
:10597300E18007EEFAEFFB12337D7F0102103C74E6
:10598300F4120D3574FE121447EAFEEBFF7901128F
:105993001AAB7AEE7B1C1234077AF77B1C1234079E
:1059A300125CC9851882851983125CFDE0F50B70C2
:1059B3000FAA18AB1979531219AF1274261219AF23
:1059C300124CE51213837C0B7D007A007B1D121DA4
:1059D300ED74031213648518828519831261FBA980
:1059E3000B12323F901D0BE0A2E1500C7A008E8225
:1059F3008F83A3E0F9123245901D0BE4F074020289
:105A03003EC574F7120D35EAFEEBFF8E828F83A33A
:105A130074EBF0901D0BE0A2E150077A0079EB12D2
:105A23003245EEFAEFFB12327B02597D74F7120D09
:105A330035EAFEEBFF7901121AAB7AEE7B1C1234C6
:105A4300077AF77B1C123407901D08E4F0901D0BB6
:105A5300F07AFF7BFF8E828F83A3E0F912323F023D
:105A6300597D74F7120D35EAFEEBFF1232750259B8
:105A73007674F7120D35EAFEEBFF7901121AAB8E3D
:105A8300828F83A3A3A3A3E060047400800274EB5A
:105A9300125AC65003C2E2F0E0A2E15008125BC8FA
:105AA3001232458014A2E050108E828F83742AF044
:105AB300A374EB1258E11232E1EEFAEFFB12322734
:105AC30002597D8E828F83A3F0901D0BE0A2E22208
:105AD30074F6120D35EAFEEBFF901D0BE0D2E1F0F8
:105AE3007901121AA58E828F83A3E0703C123317BB
:105AF300E9FAEE240DF508E43FF509780812138757
:105B03007508017509007808121387125B3D12119D
:105B130048EE2402FCE43FFD790512333574061286
:105B23001364E98E828F83A3F08E828F83A3E06058
:105B3300067A00F9123245026D3B125B4122EE24D4
:105B43000BF582E43FF5832274F7120D35EAFEEB81
:105B5300FF7901121AAB8E828F83E064207004A355
:105B630074EBF0901D0BE0A2E25003C2E2F0E0A25E
:105B7300E15006125B7F12324502597DC2E1F07A91
:105B8300008E828F83A3E0F92274F7120D35EAFEAB
:105B9300EBFF7901121AAB7AEE7B1C1234078E826B
:105BA3008F83A3A3A3A3E060047400800274EB12A9
:105BB3005AC65003C2E2F0E0A2E15006125BC812DB
:105BC3003245025ABCC2E1124A30A3E0A2E4E433F4
:105BD300FA8E828F83A3E0F92274F7120D35EAFE61
:105BE300EBFF7901121AAB8E828F83A374EB125AE7
:105BF300CB5003C2E2F0E0A2E15006125B7F123207
:105C03004502597D74F7120D35EAFEEBFF7AEE7B00
:105C13001C123407EEFAEFFB12329F02597674F727
:105C2300120D35EAFEEBFF7AEE7B1C123407EEFA17
:105C3300EFFB12329F02597D74F7120D3574EF1288
:105C43001447EAFEEBFF1269D17AE07B0412205776
:105C5300E960628518828519837409F0740112164C
:105C6300DE74EFF0125CC9F874021216DEE8125CFF
:105C7300FDA3A3E0C0E074041216DED0E0125CEAD8
:105C8300640870158E828F83A3A3125CBDE0C0E00D
:105C930074051216DED0E0800674051216DEE412D7
:105CA3006A3074061216DEAA82AB83123347AA182F
:105CB300AB1912279B74110248C9126A0E2407F507
:105CC30082E438F58322125CDFFB8A828B83126ABB
:105CD3000188828983E0FCA3E0F9EC22EE2402F838
:105CE300E43FF9E8FAE922125CEE22125CF3E022C7
:105CF300F08E828F83A3A3A3A322F0A3E9126A1FCA
:105D0300125D0722E0F8A3126E02A3A322C082C091
:105D1300831233890256C3C082C083901D2874C87E
:105D2300F0A3741CF0A374E4F0A3741CF0901E475A
:105D330074CBF0A3743BF0A37469F0A3743BF090AD
:105D43001D147439F0A37432F0901D11E044010264
:105D53004D4BC082C083EAFCEBFD79021232ED02A7
:105D630056C374F6120D3574FE121447901D0D12AE
:105D73005F8E60077A0D7B1D123305901D13E4F0CF
:105D8300901980125F8E60268007AA18AB19123310
:105D930005901D0CE0F9121E238A088B09A808A997
:105DA30009851882851983125EE6E84970DC74025E
:105DB300026D3874F7120D35E9FA7B00901D0CE083
:105DC300F9121E4D02597D74F7120D3574F0121439
:105DD30047EAFCEBFDE9FE8C828D83E0F874461202
:105DE3005ED7343EF583E493C0E074011216DED02F
:105DF300E0F0640B700DEE8C828D83A3F012336B95
:105E0300025ECAE07003025ECA640C6003025EBBFA
:105E1300741A6E700B74041216DEE4F0A3025EBAF9
:105E230074041216DEECF0A3EDF0EC242F125ECF17
:105E3300C0E074031216DED0E0126F921216C7741C
:105E4300061216DE1216AF8C828D831269F4740A61
:105E53001216DE125EE6EC240E125ECF54106009B9
:105E6300851882851983E48013EC2412125ECFF81F
:105E73009004FCE0C398851882851983F0E0C0E0A4
:105E8300740C1216DED0E0F0EC2415125ECFC0E0E5
:105E9300740D1216DED0E0F0EC2416125ECFC0E0D3
:105EA300740E1216DED0E0F0EC2417125ECFC0E0C1
:105EB300740F1216DED0E0F074021216DEEEF074E8
:105EC3000112142112279B74100248C9F582E43D84
:105ED300F583E02228F582E422F8E43BF98A828BF9
:105EE30083A3A3E8F0A3E9F022C082C083901D132B
:105EF300E0640370047901800279000256C374F7E9
:105F0300120D35901D13E0125F7812785D8A828B33
:105F130083E0C2E7F025E0F8EC125ED73DF583A3FA
:105F2300E493FE125F78F583125F8E6005EE901D99
:105F330013F08A828B83E0125F84EC28F582ED39BB
:105F4300F583E493FCC4540F25E0F87422125ED762
:105F5300341DF583125F8E70051233598014EC548F
:105F63000F25E0FCE82CF582E439F5831254F21294
:105F7300361C02597D125F84744528F582741E39DC
:105F83002225E0F8E433F922901CB6126A01E849AD
:105F93002274F1120D3574FE121447890AEAFEEBDE
:105FA300FF126090FA7B00121E0B8A088B09EA45E8
:105FB3000960388A828B83E50AF0A3E4F08E0C8FA4
:105FC3000DF50E780C121383A80A12609DEA2402C1
:105FD300FAE43509FB121DED7403121364AA08AB2E
:105FE30009901D0CE0F9121E17801285188285197D
:105FF30083E50AF0791AAA18AB191232D574021282
:10600300136402413574F2120D3574FE121447897C
:106013000B8A088B09126090F50AFA7B00121E0B9B
:106023008A0C8B0DAE0CAF0DEE4F604A8E828F83C0
:10603300E50BF0A3E4F0A80AEE28F8E43FF98E821A
:106043008F83125EE48E828F83A3A3A3A3E4F0F570
:106053000A7808121383A80B12609D124448121D7C
:10606300ED7403121364EEFAEFFB901D0CE0F912CA
:106073001E1779008014851882851983E50BF07942
:106083001AAA18AB191232D5791A02495B740F296F
:10609300F582E4343EF583E49322743B28F582E4ED
:1060A300343EF583E493FC7D0022C082C083E990F3
:1060B3001D0C024D4B74F6120D3574FE121447EA93
:1060C300FEEBFFEE542070378040A8A8C2AF901CAF
:1060D300B5E0141261F1F508E8A2E792AF8A828B6A
:1060E300831261E8901D0F12620B1232E185188250
:1060F300851983E0641560077A0F7B1D1233057AD7
:10610300AF7B1C121E35EA4B70C0EF5480701280B7
:106113001C901D0F12620B1232E17A0F7B1D12339A
:1061230005901D0CE0F9121E23EA4B70E4EE5410A7
:10613300600E851882851983742D1257541232E12B
:10614300EEA2E0500E8518828519837424125754E9
:106153001232E1EE5402600E85188285198374258C
:106163001257541232E1EE5404600E8518828519D9
:106173008374261257541232E1EE5408600E8518C8
:106183008285198374281257541232E1EE54406009
:106193001074011216DE1271F3742C12575412325A
:1061A300E1EE5480601074011216DE1271F3742F45
:1061B3001257541232E1901D0D125F8E6020A8A871
:1061C300C2AF901D0D1261FB901D0DE4F0A312628E
:1061D3001112620A1232E17A0F7B1D1233057A0023
:1061E3007B00025DB1E0851882851983F022F0E817
:1061F300A2E7E43322901C941261FF22E0FAA3E0A9
:10620300FB22A3A3A3A3A3A3EAF0A3EBF0221261AF
:10621300F1FEE8A2E792AF22C082C083901D0F1265
:1062230069FDEA687002EB697007901D0FE4F0A343
:10623300F00256C374F7120D35EAFEEBFFEE4F7012
:1062430003121745A2AFE433F508C2AF8E828F83E2
:10625300125F8E6028E824FBFAE934FFFB901D0FE0
:1062630012785FE86C7002E96D7007901D0FE4F01F
:10627300A3F08E828F83E4F0A3F0121EA702471AC5
:10628300C082C083901D36744DF0A37433F0A374A1
:106293005FF0A37433F0A37465F0A37433F0A374B5
:1062A30021F0A37432F0A3746BF0A37433F0A374DE
:1062B3001BF0A37432F0A37427F0A37432F0901D83
:1062C30044749BF0A37433F0A37471F0A37433F09C
:1062D300A37477F0A37433F0A37483F0A37433F03F
:1062E300A3747DF0A37433F0901D35024D4AC08230
:1062F300C0839004E9E064FE7003A3E0F470097CBA
:10630300E07D0412205D80158A828B83A3A3A3A35F
:10631300A3A3A3A37402F0126473125EE60256C32E
:10632300C082C0839004F3C3E094FEA3E094FF40D3
:10633300047903800279020256C3C082C0831264C7
:106343007E8C828D83126433687039740268701C8A
:106353008A828B8312638CE06870298A828B83A381
:1063630012638CA3E068701C7901801A740368704F
:1063730013EC2405FC50010DEA2405FA50010B121D
:106383002063800279000256C3A3A3A3A3A3E0F86A
:106393008C828D83A3A3A3A3A32274F6120D357E4F
:1063A30000740A1216DEE0126427FF8A828B83A32D
:1063B300A3A3A3A3A3A3A3E06F706474026F704E9F
:1063C3008A828B83C082C08388828983A3A3A3A389
:1063D300A3E0F50888828983A3A3A3A3A3A3E0FB77
:1063E300AA08D083D082E06A7003A3E06B70308880
:1063F300828983A3A3A3E0FA88828983A3A3A3A3A7
:10640300E0F9EA6C7002E96D70157E018011740386
:106413006F700CE82405FCE439FD122063E9FEEEFD
:10642300F9026D3BF8A3E0F9888289831264332271
:10643300A3E01313543F540322C082C0838A828B88
:1064430083A3A3A3A3A3A3A3A3E06402701412646E
:1064530073E0687003A3E06970047901800F790029
:10646300800BEAFCEBFD7AE07B041220570256C353
:106473009004E9126A018A828B83228A828B8312B7
:106483006433F82274EC120D35EAFEEBFF8C128DA7
:1064930013750A008C828D83A3A3A3A3A3A3A3A331
:1064A300E0F510E9A2E75008750CFF750DFF8006B3
:1064B3009004EF1266C3E9C2E7F511EE240E1255FC
:1064C30077542060071266A4740880041266A4E45B
:1064D3001266CB540460071266AC748080051266A2
:1064E300AC74101266CB5410600612667CE4800B09
:1064F3009004FCE0C0E012667CD0E01266CBA2E020
:106503005003750A20540860067410450AF50A8E74
:10651300828F83A3A3E024FFF508A3E0125570C381
:106523009402E0400B640B6005E0141244587403BA
:10653300450AF50A750B0090050FE0640170118E92
:10654300828F83A3A3A3A3E0C394674003750B10B7
:1065530085110E750F00740E780E121586E50F4522
:106563000BF50B74141216DEE0F50EA3E0F50F74B1
:10657300026511700E9004F41244579004F31266EE
:10658300BA80137403651170121266867C037D054D
:10659300AA08FB1220691266938004E5116028E5BE
:1065A300106014E50E650C7004E50F650D7008743A
:1065B30040450AF50A8010850882850983E50D1296
:1065C30066D1E50C12445E85100C750D00740A78D3
:1065D3000C121586E50D450BF50B7402651070154D
:1065E300851282851383A3124457851282851383F0
:1065F3001266BA8013740365107012126686AC12A9
:10660300AD13AA08FB1220691266938004E510609B
:1066130010850882850983E50F1266D1E50E1244C1
:106623005EA808A909E824FFF508E912557070056A
:106633009004DF80039004EBE0FA04F0EA88828997
:106643008312544EE50B1266D1E50AF0EE2404F8EA
:10665300E43FF9124144AC088A828B83E0F50A884F
:10666300828983E0250AC39C126A1BECF0A3E50927
:10667300126B97E4F0F9023EA9EE2412F582E43F8F
:10668300F58322E50824F9F508E50934FFF5092225
:1066930012669722E50824FFF508E50934FFF5099A
:1066A30022EE1253303FF583221266B022EE2411FC
:1066B300F582E43FF58322E0850882850983F02291
:1066C300E0F50CA3E0F50D22F01254E5E0221244AC
:1066D30062850882F5832274EE120D35890A8A0BCE
:1066E3008C108D11750C1A74161216DE127432AAE0
:1066F30008FB1231C18A0E8B0FAE0EAF0FEE4F6047
:106703006074141216DE12676BE8F0A3E912405AA4
:10671300E50AF085080C85090D750E00780C121337
:1067230083124444121DED7403121364741212167F
:10673300DE121148AC10AD11A90BEEFAEFFB1233C8
:106743002F7402121364E9F50C7016E50A24F9603C
:10675300031470061244CBD2E5F0EEFAEFFB1232CB
:1067630015A90C7F0A02103C126E101254E6227413
:10677300F6120D3574F7121447EAFEEBFF7801EEBB
:10678300242F125577600278051254E1E81240571E
:1067930074041267CB12205DEE242C124025242EA4
:1067A3001267D8121387740212142979031A1AEF85
:1067B300FB12332F7402121364E9F5087007EEFA23
:1067C300EFFB123215026D34F0EE2423FCE43FFD9F
:1067D300AA18AB1922F582E43FF58312416F125CCC
:1067E300EE04F078082274F2120D358A088B09EC56
:1067F300FEEDFF8A828B837405F0EE243212557707
:106803008A828B83A3A3F0EA2403F50AE43509F50E
:106813000B850A82F5831266C31269C71216C7E590
:106823000C125306350DF5831216AF1269D1AA0C5B
:10683300AB0D12205D850A82850B83126E08FAA3C5
:10684300E0FB88828983A3A3A3126205EE242F129F
:106853005577C0E01269E6D0E0126A252415F58267
:10686300E438F583E4126A251269D9E4126A3085A3
:106873000A82850B83E02416FAA3E03400FB12336B
:10688300478E828F83A3A3A3A3A3A3A3E0C0E08522
:106893000A82850B83126A0A240DF582E438F58394
:1068A300D0E0126A14FAA3E0FB850A82850B8312F7
:1068B30069FDE8240BFCE439FD8A828B83E08C823A
:1068C3008D83F0A3E4126A3DE0F50B8C828D83A3E4
:1068D300E0450B126A1BA3E0FCA30A0AAB83A2E701
:1068E300E433C0E0E8240FF582E439F583D0E0F027
:1068F30074075C600478018002780075F003740704
:106903005CA428F8EA28FAE43BFBE5082405F8E44C
:106913003509F98A828B8312416F126A3D85088299
:1069230085098312620588828983E0F50A54072565
:10693300E0FCE50AC4540F5407F50A750B00740311
:10694300780A121586EC250AF8EA28F8E43BF9855B
:106953000882850983A3A3A3A3A3A3A3A3A3E8F006
:10696300A3E9125CEAFA8E828F83A3A3E02AFAA337
:10697300E03400FBC3EA98EB9940308E828F83A307
:10698300A3E0F8850882850983A3A3A3A3A3A3A3F4
:10699300A3A3E0FA8E828F83A3A3A3A3E0C39A28C1
:1069A300850882850983A3A3A380108508828509AE
:1069B30083A3A3A3A3A3A3A312544CA3A3A3A3A3FB
:1069C300F0024960EE2425F582E43FF58322EE24AC
:1069D30013FCE43FFD221269DD22240EF582E43824
:1069E300F583221269EA22E82410F582E439F5835B
:1069F30022A3A3A3A3A3A3A3A3A3126A0122E0F840
:106A0300A3E0F922901CB6126A0E22E0F8A3E0C8B4
:106A130022126C29A3A3E022126A1F22F08A828B1E
:106A23008322F0850A82850B83126A0E22F0126A92
:106A33003522EE2408FCE43FFD22126A1FA3AA823A
:106A4300AB832274F5120D358C088D09750A007815
:106A5300081213837C0B7D00027391021331C082F1
:106A6300C08379181232D50256C3C082C0838A828A
:106A73008B83E0C3940B50031233530256C3C0827B
:106A8300C083791980DE74F7120D35EAFEEBFF90AF
:106A93001D0D125F8E6010901D0D1261FB12335F8E
:106AA3007A0D7B1D123305EEFAEFFB1232FF901DB8
:106AB3000DEEF0A3EF8002F0A3F002597D74F712FC
:106AC3000D3574DE121447EAFEEBFF8E828F83E0EE
:106AD30024FD601124FE601524ED600924FA600D85
:106AE30014600A803D74161216DEE48007741612D1
:106AF30016DE7401F0125108740B1216DEAA82AB73
:106B03008312206974131216DE126B9C1216DE12A6
:106B13005EE6740A1216DE126BA81216DE125EE629
:106B2300804274161216DE7402F01269D1740B12CD
:106B330016DEAA82AB8312206974131216DE126B5F
:106B43009C1216DE125EE6740A1216DE126BA8128F
:106B530016DE124039126A3674171216DEAA82AB99
:106B630083123347851882851983740B126B97E060
:106B7300C0E074011216DED0E0126A3074171216E8
:106B8300DEAA82AB83123347AA18AB1912279B7470
:106B9300220248C9126C29A3227403F09004F31251
:106BA3006A017402227402F09004EF126A017414F1
:106BB3002274F7120D35EAFEEBFF8E828F83A3E07A
:106BC300F5087036EE242C126C2F7003A3E0696075
:106BD300037508E8EE2423FAE43FFB123329E96046
:106BE30032EE242FF582E43FF583E4F0E508700AE2
:106BF300EEFAEFFB12333BE9F508E50860128E82EB
:106C03008F83A3E508126C2974191258E11232E13B
:106C130002597DEE242F12557760D1901D34E07018
:106C2300CB7508E880D8F08E828F8322F582E43F0B
:106C3300F583126A019004EFE06822C082C0837476
:106C4300F112144774021216DE7404126A1BA3E0D5
:106C5300C0E074031216DED0E0F0EA242CF582E4DF
:106C63003BF5831269FD740D1216DE125EE6EA240B
:106C730023FCE43BFD74041216DEAA82AB831220CC
:106C83005D74041216DEAA82AB83123329E9600E07
:106C9300126CAE1219AF9004E974FFF0A3F0740202
:106CA30012142112279B740F024DD0851882851967
:106CB3008374FFF0A3F0AA18AB1979532274F61268
:106CC3000D3574E81214478A088B0974021216DE14
:106CD3007403F0EA2413FEE43509FFEEFCEFFD74C0
:106CE300041216DEAA82AB8312206912459AC0E011
:106CF300740C1216DED0E0F0E5082408FCE4350934
:106D0300FD740D1216DEAA82AB83123347EEFAEF3F
:106D1300FB123329E9600E126CAE1219AF9004E92D
:106D230074FFF0A3F0740212142112279B741880CD
:106D330004A90874091213647F0202103C74F6124A
:106D43000D3574D4121447EAFEEBFF8E828F83A3B2
:106D5300A3126DF4E0A2E650179004EF126E0868D8
:106D63007003A3E0697009901D35E0604112338917
:106D7300740B12141974031216DE12738312334147
:106D8300851882851983742B1257541232E19004AB
:106D9300D4E0600874081216DEE0600E8518828560
:106DA3001983740512575412279B742C80879004FF
:106DB300F8E060BC124CDD123329E970B3EE24080D
:106DC300F508E43FF509780812138775080175097A
:106DD3000078081213879004EF1211487CE07D04B9
:106DE3007A037906123335740612136480BC901C3F
:106DF300B6126DFBA322A3A3126DFF22E0F8A3E05A
:106E0300F583888222126E101248BEE022E0F8A3B6
:106E1300E0F9EE22C082C08374EF12144785188212
:106E23008519837409F074011216DE74EE12575437
:106E330012279B024DCE74F7120D35A2AFE433FF38
:106E4300C2AFE9600312199D121925900502E0F9FA
:106E53001219EB900501E0F91219DF901D35E0F9E5
:106E63001219C79004EF1261FB1219CD9004F312AB
:106E730061FB1219D37A037B051219D97E00126EB6
:106E8300BD125F8E6009126EBD1254F212361C0ED3
:106E9300EEC3940740E81233D71232C9901D4EE473
:106EA300F01231BB12330B7AF27B0479521219AF11
:106EB300EFA2E092AF790002597DEE125F84741461
:106EC30028F582741D39F583221232E70256C3C0B6
:106ED30082C083901D4F74A7F0A37433F0A374C5CD
:106EE300F0A37433F0A374CBF0A37433F0A374ADA5
:106EF300F0A37433F0A374B9F0A37433F0A374B3A1
:106F0300F0A37433F0901D227436F0A3741DF0A324
:106F13007444F0A3741DF0A3744FF0A3741DF09098
:106F23001D11E4F0A3F012191F0256C302133174AA
:106F3300F7120D35EAFEEBFF8E828F837407126F13
:106F43008DE08E828F83A3A3126F8DA3A3E08E8225
:106F53008F83A3A3A3126F9BA3A31216C78E828F43
:106F630083A3A3A3A31216AF8E828F83A3A3A3A38A
:106F7300A3A3A3A3E4F0EC2418125ECFF812763A8D
:106F8300A3A3A3E8F0A3E9026ABC126F92A322129F
:106F93006F9BA3A3A3A3A322F08C828D832274F4FB
:106FA300120D35EAFEEBFF901D5CE4126B97A3A371
:106FB300A3A3A3E0C394064006901D5C74E8F08E7F
:106FC300828F83A3A3A3A3A3A3A3E0C3940F40151A
:106FD3008E828F83A3A3A3A3A3A3E064036015906E
:106FE3001D5C74E8F08E828F83A3A3A3A3A3A3E005
:106FF3006403700E901D11E0A2E04006901D5C74C6
:10700300E8F0EEFCEFFD7A5B7B1D1233A18E828FDD
:1070130083A3A3780812166F740A78081213E890F2
:107023001D6F78081216608E828F83A3A3A3A3A378
:10703300A3A3E0901D731270DB901D741270E09097
:107043001D751270C1901D76F0EE240C12557790C9
:107053001D77F0A3740AF0900502E0901D79F0907B
:107063001D6C1256BA74041270C71213837C0B7D05
:10707300007A7A7B1D121DED7403121364901D5C5C
:10708300E0702A8E828F83A3E07022901D5DE06002
:1070930006901D5C74EAF0901D5DE0F91219F78EFD
:1070A300828F837426F07904121A9F80078E828F51
:1070B300837429F0EEFAEFFB1232E1023EC8F012BC
:1070C3005B41E022F0EE240D1270CF22F508E43F7D
:1070D300F509750A007808221270E6E0221270E6BC
:1070E300A3E022124A34A3A3A32274F4120D35742D
:1070F300F7121447EAFEEBFF901D5DE07031901D1F
:1071030078E0640A6029121A09E9C0E0901D78E06A
:10711300F8901D64E028F8A3E03400F9E824F5F5BD
:1071230082E934FFF583D0E0F0901D63E004F09032
:107133001D6F780812166F740178081213E8901DFA
:107143006F7808121660901D78E004F0E508A2E05D
:107153004006E0C3941E40D7E0641E70030271EA48
:107163007A787B1D79E11219AF74081216DE740266
:107173001271F474FFF0A3F0901D5DE060046402EB
:107183007009EEFAEFFB1233B38062E0640170061C
:1071930079087A80800479077A8375087A75091DDE
:1071A3007808121387E4F508F50978081213877530
:1071B30008FF7509FF780812138774061214291241
:1071C30033357406121364E9F874DB68601474E5EC
:1071D30068600F74F368600A74DF68600574E868B8
:1071E300700BE8901D5CF01258DB1232E1023EC3D3
:1071F300E41271F822F08518828519832274F01243
:107203000D35750801750900750A00750B00901D91
:1072130078E078081212CE78081215F3901D5F7883
:1072230008121560901D5DE06403700F12727F12E7
:10723300166F7808790C120BCE8035750801750925
:1072430000750A00750B00901D73E078081212CECA
:107253009084217808121514908435780C12166FD7
:107263007808790C120BCE901D5DE07003121A039F
:10727300780812137F7A667B1D0242AA9004FD12DE
:107283003EAE908435780C2274F5120D3574D41209
:107293001447EAFEEBFF901D5DE06402600DE064BD
:1072A300016008E064056003027379901D5CE4F0FB
:1072B300740B12141974031216DE12738312334102
:1072C300901D74E0F8901D63E0C3985077A3127487
:1072D30032901D63E0F50A803285088285098312A6
:1072E30069F474141216DEE0687003A3E069700F8A
:1072F300740B121429AA08AB09122057E97045151B
:107303000AE5082421F50850020509E50A70CA7444
:107313000B12141988088909750A00780812138357
:107323007C217D00901D63E08CF0A4F8A9F0A3E01C
:1073330028FAA3E039FB121DED7403121364901DA8
:1073430063E004F09004D4E0600E74081216DEE0EB
:107353007006901D74E07007AA18AB1912279B9052
:107363001D74E06017901D63E0F8901D74E0687071
:107373000B1258DB800312743E1232E1742C80131B
:10738300E8F0A3E9F0EEFCEFFDAA18AB1922121DF9
:10739300ED74031213647F0302103C74F6120D356F
:1073A30074FE121447EAFEEBFFEE241B12557764BA
:1073B300037067EE24241255776403705D127426FC
:1073C3001219AF8E828F83A3A3127432850882F5BC
:1073D3008312744A50020509AA18AB19795012197D
:1073E300AF85088285098312744A50020509AA18D9
:1073F300AB19794B1219AFAA08AB0979E11219AF8E
:10740300850882850983A3127455126CB81219AFCB
:10741300901D5CE4F01258DB800312743E1232E1DB
:10742300025DB1EE2413FAE43FFB794A22F583129D
:10743300743622E0F508A3E0F50922901D5C74E898
:10744300126C297429F022127455F0E5082402F510
:107453000822E0FAA3E0F9EA851882851983F0A3EC
:10746300E922C082C0837A667B1D1234071219FD9C
:107473007904121AAB901D5DE064037006901D5CE5
:10748300E060097A797B1D79E11219AF7A5B7B1D84
:1074930002558AC082C08374F5121447EAFCEBFDDF
:1074A300AA18AB191233A174011216DE74FC125719
:1074B3005412279B740B024DD0C082C083790702FC
:1074C3006ECC74F7120D35901D85E4F0A3F0901D7A
:1074D30087F0A3F0901E4F1274E9901E531274E9C3
:1074E300901D89026ABAF0A3F0A374FFF0A3E4F03D
:1074F3002274F4120D35901D89E4F0A3F0901D85DC
:10750300125F8E6032901E4F780812166F12759BB1
:1075130012145D50221218AD8A088B098C0A8D0B48
:1075230012759B12145D500612759B121660901D06
:1075330085127594125EE6901D87125F8E901D89E9
:107543006023125F8E601312503D780812166F90FD
:107553001D8712759E12145D5010901D871275942D
:10756300125EE68005125F8E6021901E4F7808122E
:10757300166F901D8912759E12145D500E901D8911
:1075830012503A1216A31218B980031218BF023E02
:10759300C8126A01901D8922901D85125D07780823
:1075A3002274F0120D35A2AFE433F508C2AF901D7B
:1075B30089125F8E607412764E12166F901E4F788A
:1075C3000C12145D500B121745901D89125F8E60CB
:1075D300591218AD8A0C8B0D8C0E8D0F1276481232
:1075E30012ED5046908375780C12166F127648127E
:1075F300145D5003121745901D89E0FEA3E0FFEED2
:10760300FAEFFB1234078E828F83A3A3A3A3A3A352
:10761300A312763A127632E508A2E092AF12361C34
:10762300A2AFE433F508C2AF809FE5080277D61214
:1076330061FF8A828B8322A3E0F98E828F83A3A3C7
:10764300A3A3A3A322901D89E0F8A3125D0A780CDB
:107653002274F0120D358A088B098C0A8D0B741075
:107663001216DE801C908375780C12166F8E828F33
:1076730083A3A3780C12145D50031217458E828FD7
:107683008312495360338E828F83A3A37808121524
:10769300AC1276BF7002EF6970CB908375780C12D1
:1076A300166F8E828F83A3A3780C12145D50B68E4F
:1076B300828F83A3123EA280C40242B2901D89121C
:1076C3006E10682274F0120D35A2AFE433FEC2AF20
:1076D300901D87127432901D85121148901E4F78A9
:1076E3000C12166F780C121503AA0CAB0DAC0EAD71
:1076F3000F1233E974021213648039901E4F780C11
:1077030012166F850882850983A3A3780C12145D72
:107713004015901E4F780C12166F850882850983D9
:10772300A3A3780C1214D88508828509831269FDF6
:1077330088088909E508450970C1901E5378081225
:10774300166F901E4F78081214876015901E5312FF
:1077530016C7901E4F1216AF901E4F1216A3121883
:10776300A71233DDEE806C74F0120D35EAFEEBFFE9
:10777300A2AFE433F50CC2AFECFAEDFB8C828D8340
:107783008008AA0EAB0F8A828B83E0F50EA3E0F587
:107793000FE50E450F601A850E82850F83A3A3782C
:1077A3000812166F8E828F83A3A3780812145D507C
:1077B300D18A828B83EEF0A3EF126C29E50EF0A33E
:1077C300E50F126F9B1276C27002EF6970031233DA
:1077D300DDE50CA2E092AF0242B274F4120D35EA79
:1077E300FEEBFF740C1216DEC082C0831218AD8A42
:1077F300088B098C0A8D0BD083D08278081215145C
:107803008E828F83A3A378081216607C857D1DEE7C
:10781300FAEFFB1233F5023EC874F7120D35ECF89C
:10782300EDF98C828D838004A882A98312785F8C02
:10783300828D83E58245836014EA65827003EB657C
:107843008370E512785512620B7901800279000288
:10785300597D1261FF8882898322F583E0FCA3E0CE
:10786300FD2274F7120D35EAFEEBFFA2AFE433F508
:1078730008C2AF7C857D1D123401E9700B7C877DC6
:107883001DEEFAEFFB1234011276BF7002EF69703E
:10789300031233DD02471A74F3120D358B0C900675
:1078A3005AE0F8EBC3984003027951EB75F01AA440
:1078B300F8A9F0748A28F582740539F583E0547FBA
:1078C300640B6003027951E5822407F8E43583F9F8
:1078D300E8FEE9FFE82402F8E43FF9E8FAE98882E0
:1078E300F583E0A2E04031D2E0F0908421780812E1
:1078F300166F8E828F83A3A3A3A378081215AC8A75
:10790300828983E0A2E150109083E91211447A0145
:10791300A90C127F7D1213648E828F83A3A3A3E02D
:10792300F874FF6870087508E87509038006E8F5C0
:1079330008750900E5093395E0F50AF50B78081297
:10794300137F7A00A90C121CD974041213647F05E7
:1079530002103C74F2120D3574FC12144789098A23
:1079630008ECF8EDF9EA75F01AA4FAABF0748A2A78
:10797300FE74053BFFEE2407F50AE43FF50B127B8B
:10798300DEFCA3E0FDE50A2402FAE4350B8A0CF5DC
:107993000DE509600C8A82850D83E0C2E0F0027A6E
:1079A300B9740168496003027A577E00027A3AEE9D
:1079B30075F01AA4F8A9F0748A28F50A740539F544
:1079C3000B850A82F583E0547F640B7069E50A2412
:1079D30007F8E4350BF98882F583A3A3E0A2E1500D
:1079E3005588828983A3A3A3A31216C7851882850A
:1079F30019831216AFA818A919880C890D780C12CF
:107A03001387750C04750D00780C1213877C007DA9
:107A130000850A82850B83A3E0F50A8C0B74037837
:107A23000A121586E50A2410FAE50B3404FB121F2B
:107A33002B74041213640E90065AE0F8EEC39850A8
:107A4300030279B29083E91211447A01127F7B1207
:107A53001364806274026849705C8C828D83121691
:107A6300C7E8494A4B604F850C82850D83E0C2E02D
:107A7300F0D2E2F0E50A2404F8E4350B880AF50BAA
:107A83008882F5831216C78C828D83A3A3A3A312C6
:107A930016AF850A82850B83127F838C828D8312B6
:107AA30011447A02127F7B1213647A018E828F83D0
:107AB300A3E0F9121C8B74041213647F0602103CBA
:107AC30074EC120D3574FC1214478B08740C6C4D56
:107AD3006003027BD274181216DEE064557002A3B1
:107AE300E06003027BD2EB7003027BCEE975F01AF0
:107AF300A4F8A9F0748A28FE740539FFEE2407FA66
:107B0300E43FFB127BDEF8A3E0F9E8497003027B54
:107B1300D2EA2402F512E43BF513EA2404F50AE45D
:107B23003BF50BE82404F510E439F511741A121629
:107B3300DEE0FAA3E0FB74026508704A8A0C8B0D41
:107B4300750E00780C1213837C047D0074031214E9
:107B530021121DED7403121364851882851983782D
:107B63000C12166F780C120A17850A82850B831282
:107B73007F8C127BE954FAF07A018E828F83A3E023
:107B8300F9121C8B804574FF65087008127BE9C2EB
:107B9300E2F08037850A82850B83780C12166F78A2
:107BA3000C120C69851882851983780C121660A84B
:107BB30018A919880C890D750E00780C1213837C93
:107BC300047D00121DED74031213647901800279A0
:107BD3000074041213647F0C02103CEE240FF58230
:107BE300E43FF583E022851082851183E4F0A3F05E
:107BF300A3F0A3F0851282851383E02274F0120DA3
:107C0300358A0BE975F01AA4F8A9F0748A28F87478
:107C13000539F9E82407F508E439F509E8240FF5EF
:107C230082E439F583E0FEA3E0FF8E82F58312162A
:107C3300C7E8494A4B60067401650B70117901125C
:107C43001D098A0C8B0DAC0CAD0DEA4D70067A0044
:107C53007B0080408E828F831216C7E8494A4B60AF
:107C6300068E828F838006850882850983A3A3A35A
:107C7300A3780C12166F780C120C698C828D83A377
:107C8300780C1216608C828D83A3A3A3A3A3E4F0C4
:107C9300ECFAEDFB7F0802103C74E8120D3574F228
:107CA30012144774051216DEEAF074041216DEEBA2
:107CB300F089167A087B00121EA18A148B15EA4BF1
:107CC3007003027F65AE1674702EF582E43405F5F9
:107CD30083E0FA74782EF582E43405F583E0F51732
:107CE300C4540F5403C0E074031216DED0E0F0E571
:107CF300175407F874B728F582E4341DF583E0C000
:107D0300E074021216DED0E0F090065AE075F01A25
:107D1300A4F8A9F0748A28F508740539F5098508CB
:107D230082F583A3EEF0850882850983A3A3E51773
:107D3300F074804A850882850983F0A3A3A3A3A3D3
:107D4300A3E4F0E5082413F582E43509F58374C14F
:107D5300F0A3741FF0E5082415F582E43509F583D3
:107D630074B5F0A3741FF0127F6F7403F0E5082459
:107D730018F582E43509F58374BBF0A3741FF0E5AD
:107D830008240FF582E43509F583E514F0A3EBF03D
:107D9300E5082407F8E43509F9851882851983E88D
:107DA300F0A3E9F07C087D007900AA14121DF97490
:107DB300031216DEE0C0E0127FA1D0E0F0740212DD
:107DC30016DEE0C0E0127F9CD0E0F08518828519B2
:107DD30083E02403F50AA3E03400F50B850A82F55A
:107DE30083740AF074061216DE127F83740612146B
:107DF300297A01A916121CF1E9603A74061216DEFB
:107E0300780C12166FE50C600F14601024FE6010DE
:107E13001460111460128014740180127403800EB4
:107E23007414800A7464800674FF8002740A850ADD
:107E330082850B83F074061214297A02A916121C88
:107E4300F1E9604D74061216DE1216C7E8494A4B73
:107E5300603F74061216DE780C12166F90834D780D
:107E63001012166F780C7910120BCE8514828515BB
:107E730083127F8C127F6FE0D2E3F0851482851525
:107E8300831211447A0290065AE0F9127F7D12138D
:107E93006474041216DEE07003027F39127F9CA320
:107EA300E0D2E1F0740A1216DE127F838E08F50920
:107EB30074037808121586E5082410F508E50934DB
:107EC3000485080CF50D740A1214198808890978B9
:107ED300081213877C047D00850C08850D09AA0808
:107EE300AB09121F1F7402121364E97049740A125A
:107EF3001419880889097808121387750804750905
:107F03000078081213877C007D00AA0CAB0D121FAA
:107F1300317404121364E9701D740A1216DE12160A
:107F2300C7851882851983E0FCA3E0F5838C82A3BF
:107F3300A3A3A31216AF74051216DEE0FAA9171253
:107F430006227CAF7D1F90065AE0FB74021216DEF8
:107F5300E0FA74031216DEE0F9121D3990065AE0B6
:107F630004F0740E1213647F1002103CE50824170A
:107F7300F582E43509F58322A908121CDF74042273
:107F8300E4F0A3F0A3F0A3F022E50CF0A3E50DF0D9
:107F9300A3E50EF0A3E50FF022127FA1A32285181B
:107FA30082851983E0F8A3E0F583888222C082C02A
:107FB30083901D90E06033E59E70FC439403E59449
:107FC300A2E250FAE064027008121A21121A3380F6
:107FD30011E064016003121745E59DA2E640031218
:107FE3001745901D90E4F0121AB7D083D082021384
:047FF3003102133113
:108000005054564F5349474E3100828384860000B6
:1080100000000000000000000087808190920000B6
:108020000000000000000000001E001F0000000013
:10803000000000000085800000000000000000003B
:10804000000000000000000001010101010000002B
:108050000000000000000000000000010305070907
:108060000B0D0F00020406080A0C0DBFFB0970740B
:10807000766F2E696E666F202020202020200B70E6
:1080800074766F2E73776974636820202020200037
:1080900020202020202020202020202020202020E0
:1080A0000A323032312D30342D31380100000000D9
:1080B00000000000000000000000000000000000C0
:1080C00000000000000000000000000000000000B0
:1080D00000000000000000000000000000000000A0
:1080E0000000000000000000000000000000000090
:1080F0000000000000000000000000000000000080
:10810000000000000000000000000000000000006F
:10811000000000000000000000000000000000005F
:10812000000000000000000000000000000000004F
:10813000000000000000000000000000000000003F
:10814000000000000000000000000000000000002F
:10815000000000000000000000000000000000001F
:10816000000000000000000000000000000000000F
:1081700000000000000000000000000000000000FF
:1081800000000000000000000000000000000000EF
:108190000000000000000000000000008491940036
:1081A00000000000000000000000000000000000CF
:1081B00000000000000000000000000000000000BF
:1081C0005054564F5349474E320000000000000003
:1081D000000000000000000000000000000000009F
:1081E000000000000000000000000000000000008F
:1081F000000000000000000000000000000000007F
:10820000000000000000000000000000000000006E
:108210000000F932712D5D17192BA92BFD2289243D
:10822000F920E31BE91B751DEF1BEF1B010305077D
:10823000090B0D0F00020406080A0C0DFF01860051
:108240000000000079FF0187000000000079313252
:1082500034413031323441DDDDDDDDDDDDDDDDFFBA
:10826000FFFFFFFFFFFFFFFFFFFFFFFFFFFFFFFF1E
:10827000FFFFFFFFFFFFFF7E0000020103F97EFE0C
:1082800004000400010000FE0600040001000000DC
:1082900000000000000000FF7E001100EE7E0508D7
:1082A00005000801747E000300FC7E056E63706D9E
:1082B00030057073697A6582003A003B00056D6392
:1082C000706D307E000100FE7E0100001905000087
:1082D000008000000064000000F401000011E5725D
:1082E0008A0100C8420000C8C10000204101E87DA9
:1082F0004700E87DC701007A4700007AC7CDCCCCA3
:10830000BDCDCCCC3D01009643000096C301004892
:10831000430000803D000000C31900000097511881
:1083200000FEFFFFFF0000803AACC527386F1283C4
:108330003A0000FF00FFFFFFFF00200000000000E8
:10834000FF000020000040000000D4FEFFE8030012
:108350000000000080350C0000008000000006FFD7
:10836000FF0000003F70170000881300002C010080
:10837000009A99993F000000000000803F004800EB
:1083800000CB59CE3F0B000000E9030000CDCC1C10
:108390004000F8FF070370706D00C039C400007A18
:1083A00044FAD10F3F0345525232000000BC020094
:1083B0000058020000000001001027000004000027
:1083C0000019E0FCFFF8FF0000E71F03003C00007D
:1083D000000000C842EC13000093952C3E00000002
:1083E00000030000000001000060EA0000FE4200FF
:1083F000045C440000FFFF00006CEEFFFF00FF7F05
:10840000477440000060F0FFFFE2040000C4FFFF7B
:10841000FFA4440000B3EDFFFF780000003333D326
:108420003A01000000DA032D3AB80B00000A000000
:1084300000681000003000000002576802487A020D
:108440006C7801410125014301560157800001016B
:10845000010D74F7120D35E9901C2AF0901BDFE432
:10846000F0121DAB901C42E4F0A3F0901C2BF0A383
:10847000F012301112284F1229F9121DB1901B670A
:10848000E4F0A3F012277702B0A174EC120D35745A
:10849000D7121447EAFEEBFF54806068901C2AE074
:1084A000F9121E238A088B09EA4509604F7C008077
:1084B000010CEC75F003A4F8A9F0747728F5827428
:1084C0003D39F583E493F4602CE493F88508828BBE
:1084D00083E06870DCAA08EC75F003A4F8747828CF
:1084E000F582743D39F583E493C0E0740193F5831C
:1084F000D08212361CAA08AB09121E11EEFAEF64E4
:1085000080028955EF5420601E122E678A088B095D
:10851000EA4509600A122D9BAA08AB09121E11EE4A
:10852000FAEF6420028955EE542070030288477ADE
:10853000207B00901C2AE0F9121F73EA4B4C4D700F
:108540001A901C3E1216C7E8494A4B700E750C0172
:10855000750D00750E00750F008061750C00750DAE
:1085600000750E00750F00121F7F8A088B098C0A98
:108570008D0B901C3E1216C7E8494A4B602A901C8E
:108580003E78081212ED400E750CFF750DFF750E4A
:10859000FF750FFF801285080C85090D8C0E8D0F5D
:1085A000901C3E780C1214017401780C1213E8E54B
:1085B0000C450D450E450F70030287767C0079044B
:1085C0007A007B00122E318A088B090286A3851857
:1085D0008285198374FFF074011216DE74FFF07443
:1085E000021216DE74FF12A14BFAA3E0FB74031211
:1085F000142912CD5C122E91E96401600302868574
:10860000E508240D12ACA94480F8A3E0F974241203
:1086100016DEE8F0A3E912C165A3A3A3E0C0E074ED
:10862000261216DED0E012CB64A3E0540860167464
:10863000241216DEA3E04401128978C0E0742812E7
:1086400016DED0E0F0E50812E758350912CB4E608F
:108650001CE508240F12C830A3E0C812C12438F565
:1086600083E0F874121216DEE8F0A3E4F09083754C
:108670001211447404121429740712142112296F60
:108680007404121364850882850983A3A3A3A3A39A
:10869000A3A3A3A37406128978F9122E13850A08DE
:1086A000850B09E508450970030287767C0079048B
:1086B000AA08AB09122E318A0A8B0B85088285091C
:1086C00083A3A3A3A3E0F510A3E0F511E4F512F54D
:1086D00013780C79101216134023E5082404F8E4EB
:1086E0003509F9850C10850D1188828983C3E095C1
:1086F00010F0A3E0951112EBCD70A2800E850882D8
:10870000850983A3A3A3A3E4F0A3F08508828509C8
:1087100083A3A3A3A3A3A3A3A3A3A3E064018508A6
:1087200082850983A3A3A3A3A3A3702BE0540460B1
:10873000030285CE850882850983A3A3A3A3A3A3EF
:10874000A3A3A37406F07AB7850882850983128BE8
:1087500000122D8302869DA3A3A3A3E060030285DC
:10876000CE850882850983A3A3A3A3A3A3A3A3A360
:108770007401F002869D122E017C0079017A007B43
:1087800000122E318B09EA4509600C7A207B00909B
:108790001C2AE0F9121E4D850C0A850D0B7C007910
:1087A000047A007B00122E31EA4B701580558A82C4
:1087B0008B83A3A3A3A312E09DE50898E509994044
:1087C000098A828B83A3A312896A7C007904122E02
:1087D000318B0DA90DEA4970D5C3E50A9508E50B63
:1087E00095095013C3E508950AF508E509950BF5B9
:1087F00009E508450970147A207B00901C2AE0F9ED
:10880000121E4D901C3E129B1D8037E50825E0F599
:1088100008E50933F509E4F50AF50B780812137F2A
:108820007A207B00901C2AE0F9121F617404121355
:1088300064121F7FEAF8EBF9ECFAEDFB901C3E1294
:1088400016AFEE64208025EE54106008122A35EE33
:1088500064108018EE54406008122AA7EE6440802D
:108860000BEE5480600B122915EE6480FAEF02893A
:1088700055EF5401600B122FE7EEFAEF6401028905
:1088800055EF54086047122A05901B47E0640170B9
:1088900034901B48E0602EF508E4F509F50AF50B65
:1088A00090834D780C12166F7808790C120BCE78E5
:1088B0000812137F7A007B08901C2AE0F9121F67C8
:1088C0007404121364EEFAEF6408028955EF541031
:1088D0006012901C3CE06005E4F0122A05EEFAEF0D
:1088E00064108071EF54406045901C6312CB50605F
:1088F00036901E12E06401702E901C6412C4851222
:10890000361C901C6912CB50600612C48512361CAE
:1089100090834D1211447A007B40901C2AE0F9129A
:108920001F677404121364EEFAEF64408027EF545B
:1089300002600A122FE1EEFAEF64028018EF54048D
:10894000601612CA187901901BDD12CA011229871C
:10895000EEFAEF6404FB80047A007B0074291213A2
:10896000647F0C02103C8E828F83A3A31289702235
:10897000E0F508A3E0F5092212C169A3E022E8F0BE
:10898000A3E9F0901BDD12D0EF2274F7120D3574BD
:10899000DA121447EAFEEBFFEE4F602DAC18AD196A
:1089A000122E9174061216DEE0601E74171216DE87
:1089B000E0FD74011216DEE0FCEEFAEFFB79001226
:1089C0002D4DE9600479A480027900742602B09EDE
:1089D00074F4120D35EAFEEBFF8E828F83A3A3A3FE
:1089E000A3A3A3E05440603E128FDE122F4BE96038
:1089F000067AFF7BFF8010128FDE74FE6A700374AC
:108A0000FF6B7003028AB112DCFE12CF93122F4B60
:108A1000E98E828F837003028AC112B8E512EE9D3F
:108A2000E4F0A3028AC4901BCAE0A2E14003028AD8
:108A3000B112B0E412C933A3A3A3A3E0FA888289D8
:108A400083A3A312D47A8E828F83A3A3A3A3A3A309
:108A5000A3E054106004794080027900750AFE7525
:108A60000BFF780A121387128AEA121148AC08AD7C
:108A700009128FDE122A0B7404121364E5086A705F
:108A800003E5096B600E12BBA36A7003A3E06B6081
:108A9000030289FA750A00780A12138B790212B65A
:108AA00037FCA3E0FDAA08AB09122F8D7401121345
:108AB000647508CDAA08128AFC122D83E96019801A
:108AC0002412EE8BF07C777D2D8E828F8312CA016B
:108AD000122771E9F50870DCEE4F60097901EEFAB2
:108AE000EFFB122E0DA90802910EEE128AEF221250
:108AF0008AF3222411F582E43FF583228E828F834C
:108B000012EE76E0F92274F6120D35E9FEEAFF7AEC
:108B10000F7B00121E0BEA4B601F8A828B83740C42
:108B2000F0EEA3A3F0EF8A828B8312AE5A901C2A38
:108B3000E0F9121E177900802FEEF9122E378A08FD
:108B40008B09A808A909E849601C88828983A3A326
:108B5000A3A3A3A3A3A3A3740612E75EE0F9122ABA
:108B6000B9EEF9122E13791002C48E74F2120D357B
:108B7000EAFEEBFF8C0A8D0B8908740E1216DE12CA
:108B8000E0A2850C82F583E4F0A312CA0DF5838878
:108B900082E0F9122F27E9602612C9F4122F4BE95F
:108BA0006402701B8E828F83A3A3A3A3A3A3A3A39A
:108BB000A312B76A850C82850D8312C843800375A2
:108BC000080012BEAA12B63B14602E146043146053
:108BD0006414606C146048147003028C6924FE7085
:108BE00003028C86147003028C8F147003028CA213
:108BF000147003028CB0028CC6780C121387AC0A76
:108C0000AD0BEEFAEFFB122A1D7402121364028CF4
:108C1000ABAC0AAD0BEEFAEFFB122A23028CD0129A
:108C2000C9F4122F4BE96003028CC6EEFAEFFB1277
:108C30002A6B028CD0A908EEFAEFFB122F93806BFF
:108C4000EE241712B5E66402707CE508700A12DCA7
:108C5000247003A3E0697078901E0EE06063EEFA62
:108C6000EFFBA908122F1B804212DC247003A3E043
:108C7000697053EE241712B5E664027049EEFAEFFC
:108C8000FB122F03804AEEFAEFFB123005804112EF
:108C9000DC247003A3E069702DEEFAEFFB122F9F26
:108CA000802EEEFAEFFBA908122FABE9F508802021
:108CB000901E12E064017009EEFAEFFB122FB180F2
:108CC0000F750800800A7508007AD37B00122471A2
:108CD000A9088007A90A74031213647F0602103CD6
:108CE00074F4120D3574D61214478A088B098A82DF
:108CF0008B83A3A3E0F9122E378A0A8B0BAE0AAF3F
:108D00000BEE4F7003028DF6850882850983A3A8B8
:108D100082A983E0C0E012C81ED0E012E0AFE06498
:108D2000F16033850882850983A3E064CD602785DF
:108D30000882850983A3E0641A601B85088285097F
:108D400083A3E064E9600F850882850983A3E0645A
:108D5000E16003028EC88E828F83A3A3A3A3A3A383
:108D6000A3E054087003028DFE8E828F83A3A3A319
:108D7000A3A3A3A3A3A3740512C154E064E96047AD
:108D8000901C5F12CB50600612C48512361C901CDA
:108D90006112CB506031901BCAE0A2E1502912CD84
:108DA00038A3A3A312B6298882898312CA0112307C
:108DB00041EA4B6012850882850983A3E0F9901C83
:108DC0006112DD0212361C8E828F83A3A3A3A3A39C
:108DD000A3A3A3A3E0640270108E828F83A3A3A336
:108DE000A3A3A3A3A3A37406F0850882850983A384
:108DF000A3E0F9122E13122E01742A02910B7900AE
:108E0000122E0DE97003028EC8901BCAE0A2E14049
:108E100003028E9D12CB4B7003028E9D8E828F8338
:108E200012CA01740412142912CD5C122E91850805
:108E300082850983A3E064E97023128FB512138B36
:108E4000850882850983A3E0F50A780A12138B123C
:108E50008FC212CA01122EC77402121364740D124B
:108E600016DE12CB4112EAF812C84374091216DE5C
:108E7000E06004794080027900740F1216DE12B6A9
:108E800029740D1216DE12CA01122A17E9600E8E1D
:108E9000828F83A3A3A3A3A3A3E04420F0EE240422
:108EA000F50AE43FF50B8E828F8312ACB2E0F985B0
:108EB0000A82850B8312CA01121DBD850A82850BA9
:108EC00083EAF0A3EB028D78850882850983A3E00D
:108ED000C0E074021216DED0E012A54C12DB16E5DB
:108EE00008240B12ACA9C0E074031216DED0E01205
:108EF000E372E0AA18AB19702412296974021216E1
:108F0000DEE0701C128FDE122F4BE97039901C5F6F
:108F100012CB50603112C48512361C8003122F21EF
:108F200074021216DEE064E9701C128FB512138B06
:108F3000750AE9780A12138B128FC212CA01122E17
:108F4000C77402121364901BCAE0A2E14003028DB1
:108F5000C78E828F83A3A3A3A3A3A3A3A3A3E06429
:108F60000270398E828F83A3A3A3A3A3A3E054042A
:108F7000602A128FDE122F4BE98E828F83700F12C0
:108F8000DD0274FFF0A312A6F87405028DE8A3A316
:108F9000A3A3A3A3A3A3A37403028DE885088285DA
:108FA0000983A3E064E96003028DC7EEFAEFFB12C8
:108FB0002FBD028DC78E828F8312D5A8750A0178C6
:108FC0000A22E50812E37F3509F583E0F98A828BEE
:108FD00083A3A3A3A3A3A3A3A3A312D472228E82C9
:108FE0008F8312B1B0FAA3E0FB2274F4120D35EABC
:108FF000FEEBFF7508007509008E828F83A3A3A383
:10900000A3A3E0603B75080812C9F479FF122BB5E1
:109010008B0BEA450B601075082C8E828F83A3A3FF
:10902000A3A3A3E0D2E0F08E828F83A3A3A3A3A384
:10903000E05403640160030290F64308110290F6C5
:10904000EE241812B5E66049EE241A12B5E6600364
:10905000F4701D12DC247003A3E069700675082209
:109060000290F6901BDFE0640460030290F6801C1F
:10907000EE241BF582E43F12B64A241A12B5E6FA32
:10908000EE2419129B9D122A7DE9706A75090180F0
:109090006512C9F4122F4BE96402700375080112BE
:1090A000DC247003A3E0697006E508D2E1F508E569
:1090B0000860158E828F83A3A3E07006E508D2E5D1
:1090C0008004E508D2E6F50812C9F4122F4BE964D2
:1090D000017006E508D2E0F5088E828F83A3A3E035
:1090E0006014EE241D12B63F122F27E964016006BA
:1090F000E508C2E0F508E508A2E1400CE509A2E0B8
:109100004006E508D2E7F508028AE51213647F04F9
:1091100002103C74EC120D3574C3121447EAFEEBD6
:10912000FF85188285198374FEF0A304F075100082
:1091300075110075080074051214298E828F83A39F
:10914000A3A312CB4312C9FF122E91E9700302931D
:10915000B0780174071216DEE0C394024002780072
:1091600074091216DEE0C3940240027800740E12F5
:1091700016DEE064F87003A3E0F470030293B074A9
:109180000E1216DEE064F97003A3E0F4700302939C
:10919000B0740E1216DEE064FA7003A3E0F47003FC
:1091A0000293B0740E1216DEE064FB7003A3E0F4C9
:1091B00070030293B074081216DEE0F9901BCDE044
:1091C0006960030293B0E8A2E040030293B012B7D3
:1091D0006174241216DE12B66B241C12B76474126A
:1091E0001216DE12C843740B1216DEE0601D741CEA
:1091F0001216DEE0FD74061216DEE0FC8E828F830E
:1092000012C9FF7901122D4DE9703D740512142128
:10921000122D95E9F509740B1216DEE0702F901BE4
:10922000C7E06029742255096422602174425509FF
:109230006442701474221216DE129ACD600F7422EA
:109240001216DE129ABB60057ACF0293B2E9A2E64B
:109250005060901BCAE0A2E1742250111216DE1277
:10926000B63B1211F901010B899200B0931216DE80
:1092700012B63B24FD601214600F24FD600B24FD28
:10928000600724FE60030293B074221216DE129A65
:10929000E3700F74221216DEA312C485A3E0640DDE
:1092A00060107405121421122F87E9640170030203
:1092B0009AA5129AAA12A13E7003A3E069702175C3
:1092C0000A00780A12138B780A12138BEE242F12DD
:1092D0009B9D129AD312CA01122EC77402121364F4
:1092E000740B1216DEE0700302938F129AD312CA27
:1092F000011230418A0A8B0BEA450B70030293BAC4
:1093000074061216DEE0F88E828F83A3A3E028F89D
:10931000A3E03400F9E8240D129AB4F88A828B8312
:10932000A3A3A3E068600EE88A828B83A3A3A312A1
:10933000AE48129B1D790474061216DE12A3AFE02C
:109340002AF8A3E034008882F583A3AA82AB8312B3
:109350001DFF8A0C8B0D8C0E8D0F850A82850B8369
:10936000A3A3A3A3780C1212ED4003029AA5908444
:1093700021780C121514850A82850B83A3A3A3A35D
:10938000E50CF0A3E50DF0A3E50EF0A3E50FF090DA
:109390001BCAE0A2E14003029AA574291216DEE07E
:1093A000605B74101216DE12CA0112286DE9703F5C
:1093B0007AD37B00122471029AA5901C24E06401E8
:1093C00070CD74221216DE129ACD7006E509A2E65F
:1093D00040BD74121216DEE0F47003A3E0F4600CDA
:1093E000EEFCEFFD7405121421122DA1029AA58E38
:1093F000828F83A3A312DD02A3E0C2E5F0741612EC
:1094000016DEE0601DEE2402F8E43FF9E8FAE9FB1D
:1094100012CD4514F012CD45F874161216DEE8F0A0
:109420007006E509C2E7F509E509A2E35061751187
:1094300010A2E25018740A1216DEE054E3F0740A27
:109440001216DEE0131313541FF8E0802CA2E45030
:109450002A740A1216DEE01313543F5407F8600909
:10946000740768600B18E87007C3E509C2E7F509DF
:10947000E8333354FCF8E054E348F0740A1216DE83
:10948000E0C0E08E828F83A3A312AD94D0E0F09071
:109490001BDFE064046008E06409600302956B74FC
:1094A0000E1216DE12DC317003A3E069601F740E29
:1094B0001216DE12CA01122F4BE96402600F740A01
:1094C0001216DEE0540364016003029AA5740712C9
:1094D00016DEE07041EE242F12B5E6C0E0740212F1
:1094E00016DED0E0129B15C0E074031216DED0E049
:1094F000129B0DC0E074041216DED0E0129B021223
:1095000011447406121429740912142112296F745B
:1095100004121364805274221216DE12CD327016B9
:10952000741C1216DEE06402703E74051214217978
:1095300000122F1B803274221216DE129ABB701496
:10954000741C1216DEE06404701E740512142112DD
:109550002F0F801474221216DE129AE3700A79001B
:109560007405121421122F93029AA5746155097083
:1095700003029676E509A2E0507112B62074051236
:109580001421122AADE97060122EC1E9F508741693
:109590001216DEE0701374101216DE12CB3C12B5F8
:1095A000E4687003A3E0696042A90812B62074055C
:1095B000121421122AB3E96024E509A2E3500C85B4
:1095C000188285198374FFF0A3800C740E1216DEC6
:1095D000129AEAE8F0A3E9F0751004800EE509C2DA
:1095E000E5F509750800800353099FE509A2E550D8
:1095F0003FEE242F12B5E6C0E074021216DED0E072
:10960000129B15C0E074031216DED0E0129B0DC051
:10961000E074041216DED0E0129B021211447406AC
:10962000121429740912142112296F74041213647C
:10963000E509A2E6400302993FA818A919880A89FA
:109640000B780A121387A908129AC4121421122D3A
:10965000897402121364E9F508700302993F7422B9
:109660001216DE12B63B6401600302993F74104586
:1096700010F51002993F74071216DEE06401705D68
:1096800074221216DE12B63B6405701EA818A919C2
:10969000880889097808121387129AC212142112B5
:1096A0002D897402121364029AA574221216DE1216
:1096B0009AE37029740E1216DE12CA0112286DE99F
:1096C000601BA818A919880A890B780A1213871237
:1096D0009AC2121421122D89740212136474161284
:1096E00016DEE0702574071216DEE06401700C745B
:1096F000221216DEE0F8129AE3600CEEFCEFFD7425
:1097000005121421122DA1029AA5122E07E9600359
:10971000029AA5741D1216DEE070030297C1742030
:109720001216DE12B629741F1216DEE0FA741E122B
:1097300016DEE0F9122A7DE9607D741F1216DEE064
:10974000701E740E1216DE129AEA12EEADFAA3E043
:10975000FB1228798B0BEA450B6003029939805183
:1097600074201216DE12CA01741F1216DEE0F912FE
:109770002A7785188285198312CF937808740D1281
:1097800016DEE060027810740C1216DEE0600474DD
:109790000828F8740A1216DEE0600108088E828F2D
:1097A00083A3A3E028FAA3E034008A82F583E014BF
:1097B000F0751040029939780812138B790B0298D2
:1097C000F2740E1216DE12C83874091216DEE0604A
:1097D0000302990DE509A2E3500302990D740712E3
:1097E00016DEE064016074790085188285198312A1
:1097F000CA01122AD18A0A8B0BA80AA90BE8496070
:109800001C88828983A3A3A3A3A3E06401604C887E
:10981000828983A3A3A3A3A3E06402603E129AAA51
:1098200012B8DB12CA011230418A828B83E582456D
:1098300083600FA3A3E0F912305FE96005C39408C9
:10984000401974101216DE12CA0112286DE9700355
:109850000298EB74091216DE7404F07800E8F5083B
:10986000780812138B741E1216DEAC82AD83740F4F
:109870001216DE12CA01740A1216DEE0F9122AE389
:109880007401121364E9600F7510208E828F83A318
:10989000A312B63B543FF0741D1216DEE060237431
:1098A0000E1216DE12B629741E1216DEAA82AB83C1
:1098B000122E8B85188285198312CF937440451020
:1098C000F51074071216DEE064016015790074105B
:1098D0001216DE12B629740E1216DE12CA01122AF0
:1098E00083E509A2E3503479408032780812138B63
:1098F0007902740F1216DE12B62974111216DE12D6
:10990000CA01122F8D7401121364029AA5E509A2EF
:10991000E3400302985B784002985D79007410126E
:1099200016DE12B629740E1216DE12CA01122A179A
:10993000E9600674204510F510122EC1E9F508857E
:109940001882851983E064FE7003A3E0F470037548
:109950000800901B4AE0640160030299EF12B5E32E
:10996000F47003A3E0F470030299EF740E1216DE94
:10997000C3E094F9A3E094FF507512B7617410121C
:1099800016DEE0687003A3E069606474101216DEEE
:1099900012CA011228798A0A8B0BA80AA90BE84976
:1099A000604D88828983A3A3A3A3E06401600D882E
:1099B000828983A3A3A3A3E06402703374301216D8
:1099C000DE740112E0B9F8A3E0F9743B1216DE125E
:1099D000C8437430121421122825E960127433121E
:1099E00016DEAA82AB8312288BE9600312241DE5E0
:1099F00009A2E74003029AA5E5087003029AA58E22
:109A0000828F83A3A3A3A3E0FA7B00121EA18A0A7C
:109A10008B0BEA450B7003029AA5EE2404F512E4C1
:109A20003FF5138E828F83A3129AF412138385124B
:109A300082851383E0FC7D00121DED740312136414
:109A400074071216DEE0C0E0742B1216DED0E0F0D0
:109A5000742E1216DEE4F0A3F0742B121419880C85
:109A6000890D780C121387750900780912138B7809
:109A700010121387780812138B12B5DA1211488569
:109A80001282851383E0F974081216DE12B629AA31
:109A90000AAB0B122E7F7408121364E96007AA0A3E
:109AA000AB0B121EA7743D02895EEE242DF582E4F5
:109AB0003FF58322F582E412E8E32212DD08E06438
:109AC0000722790012B5DE12B62D74072212B1B04A
:109AD000640622EE242BF582E43FF58312B6501281
:109AE000B5DF2212DD08E064032212D0EF85188270
:109AF00085198322A3E0F50CA3E0F50D750E00781F
:109B00000C22F0EE2425F582E43FF58322F0EE24CA
:109B10003112B5EA22F0EE243012B5EA22E4F0A3C5
:109B2000F0A3F0A3F02274F4120D35EAFEEBFF8CE3
:109B3000088D09901B47E0600F12DC247003A3E03E
:109B4000697005122A058052790012C9F4122AD1CF
:109B50008A828B83E58245836035A3A3A3A3A3A355
:109B6000E05418602AE508241C12C830121148E598
:109B700008241312C830121148EE2418129B9D12AB
:109B80009BA212CA01122AE97404121364800B7991
:109B900000129BA212CA01122A2F02910E12B5EADC
:109BA000F9228E828F83A3A3A3A3A3A3A3A3A312AB
:109BB000B65012C8232274F0120D3574EA121447FD
:109BC0008A0A8B0BEA2402F50EE4350BF50F0A0A1C
:109BD000FB12287F8A088B09AE08AF09750801853A
:109BE0000A82850B83A3E0F509750C01AC0EAD0F5D
:109BF000740B1216DEAA82AB83122069741312163C
:109C0000DE74FEF0A304F074151216DE7402F07414
:109C1000081216DEE4F0901E3AE0700EEE4F700A65
:109C2000E50970067508C3029DF2901BDFE0640829
:109C300060067508C2029DEE850A82850B83A3A388
:109C4000A3A3A3A3A3A3A3A3E0A2E1500EA2E35066
:109C500005750C04800C750C038007A2E350037596
:109C60000C02EE4F7003029D018E828F83A3A3A38B
:109C7000A3E06404600D8E828F83A3A3A3A3E0649A
:109C800003700C7404650C602C7403650C60268EE4
:109C9000828F83A3A3A3A3E06402600D8E828F83CF
:109CA000A3A3A3A3E0640170317402650C60067481
:109CB00001650C70188E828F8312CA01122F69E918
:109CC000703F12A6EE1216DE12C84380348E828FC9
:109CD00083A3A3A3A3E06402600D8E828F83A3A35A
:109CE000A3A3E06401700A8E828F8312CA01122A34
:109CF0004DE50A2402FAE4350BFB12288B7E007F27
:109D00000074131216DEE064FE7003A3E0F47046E4
:109D1000122831E97040E509601B901E4312CA0108
:109D2000122F69E9700F901E4312A6F21216DEE898
:109D3000F0A3E98020850A82850B83A3A3A3A3A3B4
:109D4000A3A3A3A3A3E05402F9122A417413121689
:109D5000DEEAF0A3EBF074131216DEE064FE70038B
:109D6000A3E0F470067508C7029DEEE509F50D78CD
:109D70000D12138B850A82850B83A3A3A3A3A3A330
:109D8000A3A3A3A3E0F9E50A2402FCE4350BFD74C8
:109D9000141216DE12CA0112298D7401121364E91D
:109DA000704CA90CE50A2402FCE4350BFD74131277
:109DB00016DE12CA0112285B8A0E8B0FAE0EAF0F91
:109DC000EE4F601F74026509700D8E828F83A3A30E
:109DD000A3A3A3E0D2E3F074151216DEE4F0750835
:109DE00000800B74131216DE74FEF0A304F0E50974
:109DF0007009AA18AB19122759800AFCA90CAA18D5
:109E0000AB19122F09E9FCEE4F6053E50960208E73
:109E1000828F83A3A3A3A3A3E0D2E6F07402650913
:109E2000700D8E828F83A3A3A3A3A3E0D2E5F08558
:109E30000A82850B83A3A3A3A3A3A3A3A3A3A3E045
:109E4000A2E6500D8E828F83A3A3A3A3A3E0D2E743
:109E5000F08E828F83A3A3A3A3A3A3E004F0E5085D
:109E6000703BEC60337D007A017B10121DB7EE4F22
:109E7000600CE50A2402FAE4350BFB12288B7413FC
:109E80001216DEE064FE7003A3E0F4600B7413129C
:109E900016DE12CA01122A4D741602ACCDFC80C522
:109EA00074F7120D3574F7121447EAFEEBFF901B9E
:109EB000DFE06403600DE064016008E064096003B2
:109EC000029FA08E828F83A3E06003029F787C00B4
:109ED0007D007A027B00121DB7129FA58A828B83B8
:109EE00012B76A901BD012C843795312274D901BAA
:109EF000DFE064096009901BDD12CA0112303B8566
:109F00001882851983740112CB76794212274D90FD
:109F10001BDF7404F07401121421794A122747746C
:109F2000011214297AD57B1B122069901DD9E06497
:109F30000B70057406F0800B7900901BDD12CA01CE
:109F4000122987901BD3E064FE7003A3E0F4601035
:109F500079007401121429901BD312CA0112285BD4
:109F6000901BCAE0A2E35004D2F08002C2F012CBF0
:109F70006C795212274D80258E828F83A3AE82AFDB
:109F800083FC7D007A037B10121DB78E828F8312B3
:109F9000A12B12CA01122987901BDFE4F0122DE3D6
:109FA000740902B09EEE2402FAE43FFB22C082C094
:109FB00083901B6712CB50701F901BDFE014600969
:109FC00024FC600A14600C800F901B728034901B7C
:109FD0006E802F901B70802AE8496008901B6812E1
:109FE000A3C0700C8A828B83A3E0F9122975801DAF
:109FF000901B6712CD4964027005122FD5800E9018
:10A000001C5D12CB50600612C48512361C02C1DCE6
:10A0100074F4120D3574FE1214478A088B097A0005
:10A020007B04901C2AE0F9121F6DAA18AB19795015
:10A030001227477A0F7B00121E0B8A0A8B0BAE0A7F
:10A04000AF0BEE4F6020850882850983A3E0701670
:10A05000901BDDE0F47003A3E0F4603B12A13870C4
:10A0600003A3E0696031850882850983A374EA123D
:10A07000A54412274D7AD37B1B794B12274D7ADDED
:10A080007B1B795012274D7AD27B1B79E112274D29
:10A09000EE4F700302A1238E828F837402F0901B17
:10A0A000DDE0F47003A3E0F4600A12A1387003A3AA
:10A0B000E069705285188285198312A128E8F0A3FF
:10A0C000E912A544122747901BD012ACC312C84313
:10A0D0007AD37B1B794B1227477AD27B1B79E1120B
:10A0E0002747750A00780A12138B780A12138B908F
:10A0F0001DD012A12B12B629901BD312CA01122E09
:10A10000C7740212136485088285098312A131A3E2
:10A11000F0901BDF7403F0EEFAEFFB901C2AE0F9DD
:10A12000121E17740202910BE0F8A3E0F9901BDDF8
:10A1300022A3E08E828F832285188285198312D014
:10A14000EF901BDDE06822E8F0A3E912A14F22F0B6
:10A15000850882850983E02274F5120D3574D112C9
:10A1600014478A088B098A828B8312B287741C1267
:10A1700014298A828B83A3A3A3A3A3A3A312A3B8A6
:10A1800012C9F8122DF5741C1216DEE0702C850829
:10A1900082850983A3A3A3A3A3A3A3A3E0C3940BD2
:10A1A00040188E828F83A3A3A3A3A3A3A3A3E064D9
:10A1B00002700712C81EE0F4600302A3AA901BDF1E
:10A1C000E06402700302A28FE06406700302A28FB3
:10A1D000901B6712CB50600812A3C0700302A2C389
:10A1E000901BDFE064086008E06404600302A3AA37
:10A1F000741E1216DE12A3AFA3A3A3A312B28790FC
:10A200001B67E0F849600712CD4F64026077901B2E
:10A21000DDE06E7003A3E06F600302A3AA74016A1D
:10A22000601674231216DEAC82AD837AF17B1B12AA
:10A230002063E9600302A3AA7A007B02901C2AE053
:10A24000F9121F73EA4B4C4D600302A3AA901BE066
:10A250001216C78518828519831216AF901BE6E087
:10A26000C0E074041216DED0E0F074051216DE743D
:10A2700001F074061216DE740212CB76122903E97D
:10A28000600302A3A7EEFAEFFB122FCF02A3AA905E
:10A290001B6712CB50702C750800780812138B784E
:10A2A0000812138BEE2410F582E43FF58312CB44A1
:10A2B000A3A3A3A3A312B65912CA01122EC77402F4
:10A2C0001213648E828F8312B76A74071216DEE847
:10A2D000F0A3E912A6F812B76A74091216DE12B6D4
:10A2E0006B12BBAFC0E0740B1216DED0E0F012C8E8
:10A2F0001E12896C740F7808121651740C1216DE37
:10A30000E508F074201216DEE0C0E0740D1216DECF
:10A31000D0E0F074221216DEE0C0E0740E1216DEF9
:10A32000D0E0F0741D1216DEE0C0E074101216DEEC
:10A33000D0E0F0741E1216DEE0C0E0740F1216DEDC
:10A34000D0E0F0EE241012B5E6C0E074111216DE73
:10A35000D0E0F074211216DEE0C0E074121216DEB6
:10A36000D0E0F0742E1216DEE0C0E074131216DE98
:10A37000D0E0F074231216DEA982AA8389088A0924
:10A38000750A0078081213837C087D007417121672
:10A39000DEAA82AB83121DED7403121364740712DC
:10A3A00014211229818003122909742F02B302E0BB
:10A3B000FA8E828F83A3A322A3E0F98A828B832261
:10A3C00012CD5064012274F7120D3574C91214476E
:10A3D000122FED901BDFE06408601F903E87E4932E
:10A3E000901BC1F0903E87E493901BBFF0901BE858
:10A3F000740112A53BA30412A53B7C237D007900C8
:10A400007414121421121DF9901BF0E07009741ECF
:10A410001216DE74018006741E1216DEE412A54CBC
:10A42000740FF0901E4112CB76794612274D7401BD
:10A430001216DEE4F0901E02E0C0E074021216DE96
:10A44000D0E0F0901BCDE0C0E074031216DED0E047
:10A45000F074041216DEE4F074051216DEE4F074F3
:10A46000071216DEE4F0901BF0E0C3940F500CE0EE
:10A47000C0E074061216DED0E0800774061216DE05
:10A48000740FF07CF17D1B74081216DEAA82AB8378
:10A490001220697C037D0079FF74101216DEAA82F7
:10A4A000AB83121DF9901C29E0C0E074131216DE74
:10A4B000D0E012C7847401121421122DEF7A2D7B83
:10A4C0001C794512274D122EF7901BE4E0C0E07472
:10A4D0001C1216DED0E0F0901BE5E0C0E0741D1207
:10A4E00016DED0E0F0901BD2E0C0E0741A1216DE47
:10A4F000D0E012898274181216DE12C8437420123A
:10A5000016DEE4F0901BE7E0C0E0741F1216DED008
:10A51000E0F074341216DEE4F074291216DEE41250
:10A52000A54412274D7AD37B1B794B12274D741407
:10A5300012142112276B743702B09EF0A3E4F0A32B
:10A54000F0A3F022F07AD07B1B79532212A550227F
:10A55000F085188285198322C082C0838A828B830A
:10A56000A3E0901BDF6004E4F080777408F0901B98
:10A57000F0E07028901B7412CB506008790012C470
:10A580008512361C901BDD12B6297A057B00121D40
:10A59000B7901BDD12CA0112303B801F79001229CF
:10A5A0007B901BD012B6297A067B00121DB7901B38
:10A5B000D312B6297A047B00121DB7901C6312CB0C
:10A5C00050601F901E12E06401701790834D1211AD
:10A5D000447A007B40901C2AE0F9121F6774041231
:10A5E000136402C1DC74F4120D3574EA1214478A44
:10A5F000088B09EA2402FAE43509FB12287F8A0A4B
:10A600008B0BAE0AAF0BEE4F700302A6E98E828F62
:10A6100083A3A3A3A3E06401602A8E828F83A3A3F4
:10A62000A3A3E06402601D8E828F83A3A3A3A3E093
:10A63000640360108E828F83A3A3A3A3E0640460ED
:10A640000302A6E9E5082402FCE43509FD740B12B7
:10A6500016DEAA82AB8312206912A6EE1216DE1253
:10A66000C84374151216DE7401F074081216DEE485
:10A6700012CB7612275FE9FC7D007A077B00121D62
:10A68000B78E828F83A3A3A3A3A3E0C2E012A6F890
:10A69000740112E3855001097A027B00120AEAE88C
:10A6A0008E828F83A3A3A3A3A3A3A3A3F0901E12C0
:10A6B000E064017034901E0FE06402702C8E828F73
:10A6C00083A3A3A3A3E06401600D8E828F83A3A361
:10A6D000A3A3E06402701212B5DA1216C712BE9F6D
:10A6E0001216AFEE241B12CB2B741602910B8E8226
:10A6F0008F8312D0EF74132212A6FC2212BED5A3B0
:10A70000A3A3A32274F2120D3574F8121447EAFEC3
:10A71000EBFF8C0A8D0B890D90826FAC18AD19740C
:10A720000812128D750C00EEFCEFFDAA18AB191281
:10A730002063E97003750C01901C2B801AEEFCEF6E
:10A74000FDE508240BFAE43509FB122063E97023C8
:10A75000E508241412C83012A7896024E50CA2E091
:10A7600040DB850882850983E0650A7004A3E06503
:10A770000B70DD850882850983A3A3E0650D70D089
:10A78000AA08AB097408028CD8128970E50845093B
:10A7900022C082C083901C2B02C1D974F7120D35E0
:10A7A000901C2B12EAF3800C12D33112B28A121EC3
:10A7B000A7EEFAEFFBEA4B70EF901C2BE4F0A3F04E
:10A7C00002B0A174F4120D35EAFEEBFF12B5E3649A
:10A7D00003700CEE240BFAE43FFB12287F800EE09E
:10A7E0006402707C12C81E12CA011228798A088B72
:10A7F00009E508450960698E828F83A3E0700F85A3
:10A800000882850983A3A3A3A3A3A3E4805164F1D1
:10A81000600A8E828F83A3E064E1702785088285B9
:10A820000983A3A3A3A3A3A3E064017016850882F0
:10A8300085098312CA01122A4DEE240BFAE43FFB6C
:10A8400012288B850882850983A3A3A3A3A3A3E071
:10A85000600E850882850983A3A3A3A3A3A314F094
:10A8600002910E74F1120D358A088B09ECFEEDFF92
:10A87000890A8A828B8312D7478A828B8312A131FD
:10A8800012A9358A828B83A3A3E0C454F0FA88828C
:10A890008983E04A12A94512A13112A93FE033335E
:10A8A00054FCF88E828F83E04812A93FA3E0333333
:10A8B0003354F8F88E828F83E04812A935850882D8
:10A8C0008B83A3A3A3A3A3A3E0A2E0E4331313FA0F
:10A8D00088828983E04AF0E5082407F50CE435090D
:10A8E000F50D750E00780C1213837C087D00EEFACE
:10A8F000EFFB121DED7403121364EE2408FE5001E9
:10A900000FE508240FF50CE43509F50D780C12134A
:10A91000837C037D00EEFAEFFB121DED740312132E
:10A9200064E50AC3940F400A12C82C12A132A3A3F3
:10A93000A3F002E353F0EEF8EFF9A30EAF83221277
:10A94000A945A3A322F08508828B83A3A32274F1D7
:10A95000120D35EAFEEBFF890A8C088D098E828F75
:10A9600083E08C828D8312BBDCAE82AF83E012BFAA
:10A970008B12C189C412BF8B12AA0DE012BF9212B2
:10A98000C187A2E2E4338C828D8312C18613131334
:10A99000541F12BF8B12C185A2E7E4338C828D83D2
:10A9A000A3A3A3A312AA0D8E0C8F0D750E00780C15
:10A9B0001213837C087D00E5082407FAE43509FBBF
:10A9C000121DED7403121364EE2408FE50010F8E65
:10A9D0000C8F0D780C1213837C037D00E508240F87
:10A9E000FAE43509FB121DED7403121364E50AC382
:10A9F000940F40118E828F83A3A3A3E0C0E012C8FE
:10AA00002CD0E0800412C82CE4F002E353A3A3127C
:10AA1000BBE00EAF8322E0F902C1DCC082C0837CC0
:10AA2000777D2D8A828B8312CA0112277102C1DCC5
:10AA3000EAF0A3EBF002C1DC74F6120D35901C3D78
:10AA4000E0701B7C0079017A007B00122E31EA4B0A
:10AA5000600C8A828B8312CB506003122D7D02C45E
:10AA60008EC082C0837904122E2BE9F8903E84E4D4
:10AA700093C398401079FF122E2BE9F8903E83E49F
:10AA800093C398500479018002790002C1DC74F00C
:10AA9000120D358A088B09890B750C008A828B830D
:10AAA000A3A3A3A3A3A3A3A3E0F9122E378A0E8B1B
:10AAB0000FAE0EAF0F750A01EE4F600302AB798542
:10AAC000088285098312ACB2A3A3A3A3A3A312BCDB
:10AAD0009912CA01122E1F8A0C8B0DAE0CAF0DEE0F
:10AAE0004F700302ACA28E828F83A3A3A3A3E4F0D2
:10AAF000A3F0E508240CFAE43509FB8A828B83E095
:10AB0000C0E012E377D0E0F0E508240D12CB351257
:10AB1000D71512C843122F57EE240F12CF8DE50818
:10AB2000241112CB35128AEB12C843E50824131204
:10AB3000ACA9C0E012B5DAD0E0F0750C01EE240645
:10AB400012BB9AE0547FF0A3E054FC12E0AFE05453
:10AB500004600302ABF0901DFBE0F508750900747A
:10AB60000778081215868E828F83A3A3A3A3A3A3BD
:10AB7000E04508F0A3E04509F08E828F83A3A3A3EC
:10AB8000A312896A74077808121651E5085407FC65
:10AB9000E50B606C8E828F83A3A3A3A3A3A3A3A3BF
:10ABA000A3740212C18A12AF78600B901BCB12AC57
:10ABB000C3A3A312C843EC700302AC6BEE240612CD
:10ABC000EE41547FF508A3E054FCF509EC24FFF5B1
:10ABD0000EE434FFF50F7407780E121586E508456C
:10ABE0000EF8E509450FF98A828B8312C843807BF2
:10ABF0008E828F83A3A3A3A3A3A3E0448002AB7898
:10AC0000EC7005750A0080638E828F83A3A3A3A3D3
:10AC1000A3A3E05420600C121E05EA547F7900249F
:10AC20005F80198E828F83A3A3A3A3A3A3E05410F4
:10AC3000601A121E05EA540F7900240A5001098E89
:10AC4000828F83A3A3A3A3F0A3E9800D8E828F83B9
:10AC5000A3A3A3A37401F0A3E412A6F87404F07AEA
:10AC6000207B00901C2AE0F9121E4DE50CA2E0505A
:10AC70003412B655A3A3A3A3A3A3A3A3A3E0F9EE01
:10AC8000FAEFFB122E25E9601C12E7573F12CB4E5C
:10AC9000600912B1BF12CA01121EA7EEFAEFFB1231
:10ACA0001EA7750A00A90A8027F582E43509F583F5
:10ACB000E022A3A3A3A3A3A312B62D85088285092E
:10ACC00083A32212D0EF8E828F83A3A32212136458
:10ACD0007F0802103C74F4120D3574F71214477E8D
:10ACE00000122E37EA4B700302AD8D8A828B83A34C
:10ACF000A3A3A3A3A3A3A3A3E06406600302AD8D53
:10AD00008A828B83A3A3A3A3A3A3A3E0FF8A828B3E
:10AD10008312AD94E0C0E074081216DED0E012B1E8
:10AD2000A712C839122E55EF5408605F8518828526
:10AD3000198312B6297A007B00122E198B0BEA4573
:10AD40000B704812EF991227837C007D007A007BFC
:10AD500000802412B637F47003A3E0F4602D901B3A
:10AD6000DD12B65D12CA0112277DE9641A601C7CEF
:10AD7000007D00EEFAEFFB122E198A0A8B0BAE0A49
:10AD8000AF0BEE4F70CD79001227897E01EEF9747A
:10AD90000902910B12B8E912AD9B222408F582E456
:10ADA00038F58322C082C083EA4B7005901C428034
:10ADB000068A828B83A3A312AFAC60208A828B8326
:10ADC000A3A3A3A3A3A3A3E0540860E5EC4D6010E4
:10ADD00012AFF17003A3E06D70D780047A007B009E
:10ADE00002C1DC74F2120D35EAFEEBFF890A8C0811
:10ADF0008D097A147B00121EA1EA4B603F8A828B78
:10AE000083A3A3A3A3A3A3A3A3A3E412B19CA3E539
:10AE10000A12AE48A3A312D80C8A828B83A3A3A3E1
:10AE2000A3E4F0A312B1B912AE5A12DB12EA12E790
:10AE3000583BF583E4F012AE3FF0A3F0028CDBA3A5
:10AE4000F08A828B83A3A32212AE4C2212AE502230
:10AE5000F08A828B83A3A3A3A322A3F012EE623B0A
:10AE6000F583E4F02274F4120D35EAFEEBFF890855
:10AE70008C0A8D0BEE4F700302AF017401650870F0
:10AE8000127901122E2BE9F8903E85E493C3985075
:10AE90002280167404650870147904122E2BE9F8C8
:10AEA000903E84E493C398500A79118056740265E9
:10AEB00008704E8E828F83A3A3A3A3A3A3A3A3A3EF
:10AEC000E50812B66512D722E4F0A3F0901C4212F6
:10AED000CB5060178003E0F8A312C93AA3A312AFC6
:10AEE000AC88828983A3A370ED8003901C4212DB9F
:10AEF000167A207B00901C2AE0F9121E4D79008002
:10AF00000279C102910EC082C083E9F87900901CD9
:10AF100042801D8A828B83A3A3A3A3A3A3A3A3A37D
:10AF2000E068600574FF687001098A828B83A3A3BF
:10AF300012AFAC70DE02C1DC74F7120D35EA4B7053
:10AF400005901C4280068A828B83A3A312AFAC605B
:10AF5000208A828B83A3A3A3A3A3A3A3A3A3E069B3
:10AF600070E4EC60108A828B83E012AF7870D78037
:10AF7000047A007B0002B0A112EE95E0540422C0D6
:10AF800082C083901C4280068A828B83A3A312AF67
:10AF9000AC60128A828B83A3A3A3A3A3A3A3A3E081
:10AFA0006970E580047A007B0002C1DC12CD74EA8E
:10AFB0004B2274F7120D35EAFCEBFD901C42800623
:10AFC0008A828B83A3A312AFAC601F12AFF1700310
:10AFD000A3E06D70EB8A828B83A3E0C812B8D41211
:10AFE000D48BA2E0E43370D880047A007B0002B0F6
:10AFF000A112B1AC6C2274F2120D358A0A8B0B8C43
:10B000000C8D0D750800750900EA450B6030901C29
:10B010004280068E828F83A3A312B28AEE4F601EF7
:10B02000AC0CAD0DEEFAEFFB850A82850B83123670
:10B030001CE9640170DDEEF8EFF988088909AA08B7
:10B04000AB09028CDB790002133174F7120D3590D5
:10B050001C4212B76A7C007D00800DE8FCE9FD8887
:10B06000828983A3A312B76AE8496030EA68700254
:10B07000EB6970E7901C4212CA01E86A7002E96B42
:10B0800088828983A3A3700812B76A901C42800942
:10B0900012B76A8C828D83A3A312C8438003121354
:10B0A000647F0102103C74F7120D35EAFEEBFFEEEF
:10B0B0004F602F122E4F12B0E412CA01121EA78E3B
:10B0C000828F8312CA01121EA712E7573F12CB4E7E
:10B0D000600912B1BF12CA01121EA7EEFAEFFB12ED
:10B0E0001EA780BD12CB56F5832274F6120D358A49
:10B0F000828B8312B63BF508A3E0F509901C42123F
:10B10000B76A7D007C00802F88828983A3A3A3A3D4
:10B11000A3A3A3A3A3E0640570140C12D73EF58388
:10B120008E82E065087004A3E0650970010D8882D5
:10B130008983A3A312B76AE84970CD903E81E49356
:10B14000F8EDC3985008903E8012E8D1400F8A82F3
:10B150008B83A3A3A3A37401F0A3E48010901BCB63
:10B16000E0F812A3B8A3A3A3A3E8F0A3E912B1B92E
:10B17000740512B19CE0440812B1A7F47003A3E077
:10B18000F46011901BDD12D46E12CA0112277DE902
:10B19000641A7005790112278902C48E12B1A022A7
:10B1A00012AE50A3A3A322F012B1AC228A828B83E9
:10B1B00012D142F5838882E02212B1A0A3A322EE2D
:10B1C00012C91F22C082C083EAFCEBFDEC4D601760
:10B1D000EC24FBF582ED34FF12CB4E700712B21E49
:10B1E000E0F46007121E1179058030901C2AE0C03F
:10B1F000E012B21ED0E0F0903E8DE493F97A447BE9
:10B200001C121E47E9640170107A007B20901C2AF2
:10B21000E0F9121E4D79008002790402C1DCEC24B1
:10B22000FFF582ED34FFF5832274F4120D35A2AFE1
:10B23000E433F508C2AF901C4412B28AEE4F603A74
:10B24000EE24FBF582EF34FF12CB4E7A007B209088
:10B250001C2A6007E0F9121E4D8005E0F9121E530A
:10B26000E4F50AF50B780A121387EEFCEFFD7A4439
:10B270007B1C121E417402121364E508A2E092AF17
:10B28000EEFAEFFB02910EA3A3A312D742FF2274A2
:10B29000F5120D358A088B09750A00901C4212D7E9
:10B2A00042805612B63765087004A3E06509703D08
:10B2B0008E828F83A3A3A3A3E4F0A312BEE654045B
:10B2C00060118E828F83A3A3A3A3A3A3A3A3E0F9FA
:10B2D000122AB98E828F83A3A3A3A3A3A3A3A3A39C
:10B2E0007406F07AF0128AFC122D83050A8E828F82
:10B2F00083A3A312B76AE8FEE9FFEE4F70A5A90A7F
:10B3000080031213647F0302103C74F0120D357435
:10B31000D4121447EAFEEBFF750B00750A0075089E
:10B32000FE7509FF122E07E9600302B5CDEE241564
:10B3300012B5E6603A901E1AE0C43354E0F8E033E8
:10B340003354FC48C0E012D2BAD0E012B66512CA3B
:10B350000179FF122BB58B0DEA450D600F750B01BE
:10B360007508FF12CB2F12CA05D2E0F0750A408E85
:10B37000828F8312C9FF122F4BE9600312B5FA12B4
:10B38000B5E3700D903E74E493C0E012B5DAD0E0FE
:10B39000F08E828F83E0A2E7500454038019EE24DC
:10B3A0001412B5E67012901BBCE0C0E012EE37D06C
:10B3B000E0F0901BBCE004F012EE537016901E04F7
:10B3C000E0600D901BC7E0700A8E828F83E07003EF
:10B3D00012C90F901BCAE0A2E1503FE50BA2E0406A
:10B3E000208E828F8312C9FF122F4BE9602C8E8230
:10B3F0008F83E0600CEE240B12B63F122F27E9601A
:10B400001912B606700302B58212B5E36401600337
:10B4100002B58212B1BFE054FBF08E828F83E064EC
:10B4200001700D12C81E12B63B6402700312B613EF
:10B4300012B606600302B4E8E50BA2E0500302B4C2
:10B44000E8901BCAE0A2E1400302B4E8E50AF50B6C
:10B45000780B12138BEE2406FCE43FFD8E828F8363
:10B4600012C9FFEE2412129B9D122AE374011213DB
:10B4700064E9600612B5FA12B60C8E828F83A3A31C
:10B48000A3A3A3A3E0603CEE2402F50CE43FF50D7A
:10B49000850C8212B64A2407FAE43FFB122E8B8AEF
:10B4A000088B09850C82850D83E065087004A3E094
:10B4B0006509700C8E828F83A3A3A3A3A3A3E4F0DA
:10B4C00012B6138E828F83E06401600BA90A12B654
:10B4D0005912C9FF122A83A90A12B65512C9FF12BE
:10B4E0002A17E9600312B60CAC18AD19EEFAEFFB9F
:10B4F000122E858A0A8B0B74FE6508700474FF6532
:10B50000097003128966EA450B700302B5D18E8279
:10B510008F83E0C0E074011216DED0E0F0740412F4
:10B5200016DE12DB16EE241E12B76474021216DE4B
:10B5300012C8437401121419880C890D780C121367
:10B5400087EE242012B5F212138B12B1BF121148EC
:10B55000EE240E12B5F212138B901BD01211487408
:10B56000081216DEE0F9AC08AD09122E7F7408123D
:10B570001364E9FE74106E705AAA0AAB0B121EA770
:10B58000805112B5E3C0E074171216DED0E012EE5F
:10B59000A6740F1216DE12B66B240412EE4612B712
:10B5A0006A74111216DEE8F0A3E912BC01C0E0745F
:10B5B000181216DED0E012E36D12A3B912B6297488
:10B5C00006121421122AB3E9600302B41A79118019
:10B5D000047E10EEF9742C02ACCD12B5DE22EE1210
:10B5E000C95722EE241312B5EA22F582E43FF5830F
:10B5F000E02212B5EAF50C780C22EE2412F582E472
:10B600003FF583E4F02212B61A54402212B61A44CF
:10B6100020F02212B61A4440F022EE12C923E02292
:10B62000EE2413F582E43FF58312B62D2212B631D3
:10B6300022E0FCA3E0FD228E828F8312B1B022F5BE
:10B6400082E43FF58312B1B0F922F58312B650229D
:10B6500012B631EE228E828F83A3A3A3A312B62D3E
:10B660008E828F832212D72E22A3A3E8F0A3E9F0C3
:10B67000EE22C082C08374D71214479081C974032C
:10B68000121429742612128D8A828B83A3A3A3A37A
:10B6900012B76A740E1216DEE8F0A3E912D0E8744D
:10B6A0000C1216DE12B76E240D12B759C0E0741AD0
:10B6B0001216DED0E0F012D33B12B76874201216D7
:10B6C000DE12B76E241512B759C0E074081216DEE8
:10B6D000D0E0F0EA241CF582E43B12B76874121241
:10B6E00016DE12B76E241112B759C0E07409121693
:10B6F000DED0E0F0EA241212B759C0E07407121647
:10B70000DED0E0F0EA241EF582E43B12B768742430
:10B710001216DE12B76E242012B759C0E07426123A
:10B7200016DED0E012A54C74FFF074011216DE7420
:10B73000FFF074021216DE74FFF09083751211444C
:10B740007404121429740712142112296F7404123C
:10B7500013647900742902D122F582E43BF583E079
:10B7600022EE2413F582E43FF58312D0EF22E8F0B5
:10B77000A3E9F0EA2274F0120D3574EC121447EAD2
:10B78000FEEBFF8C088D09890C750A107A217B006D
:10B79000121EA112D128E849700302B8CD750B0022
:10B7A0007C217D007900851882851983E0FA121DBD
:10B7B000F9AA08AB091228798A0E8B0FA80EA90FD7
:10B7C00074271216DE12CA01E84960238882898331
:10B7D000A3A3A3A3E06401600D88828983A3A3A32C
:10B7E000A3E064037009EA5440700474044BFBEB5B
:10B7F00054046003750B01901BDD12B8DB12B8E531
:10B800002409F582E438F583ECF0A3EDF0742412FA
:10B8100016DE12B76A74111216DEE8F0A3E912B848
:10B82000EE12EE5912B8EE12AD9B740212EEB1F8A0
:10B83000A312C48512D97612B8EE12EE69E50CF0A7
:10B8400074261216DEE0F50885188285198312EE3B
:10B8500072E50812B8EE12B8D4F58312DB1674063E
:10B860001216DE12CF9374081216DEE508F0742A61
:10B870001216DE12DD02C082C083740C1216DEAC1A
:10B8800082AD83D083D082740512128D7429121672
:10B89000DEE0C0E074131216DED0E0F0A90BAA18A7
:10B8A000AB19122E0DE964017017E50BA2E0500CE4
:10B8B000A908122E37EA4B6003122E5B750A00802E
:10B8C0000C85188285198312CA01121EA7A90A7451
:10B8D0001402ACCD241FF582E4382212B62D85184F
:10B8E000828519832212B8E92212D142C82212D1CC
:10B8F00037C82274EE120D35EAFEEBFF8C088D0975
:10B900008E828F83A37408F0EE241612B5E66008C9
:10B910008E828F83A37410F0EE241712B5E66009AF
:10B920008E828F83A3E02408F0EE241512B5E66022
:10B93000088E828F83A3E004F08E828F83A3A3A35B
:10B94000A3A3A3E060198E828F83A3A3A3A3A3A3C1
:10B95000A3E0C3332402F88E828F83A3E028F01281
:10B96000BBA36005750B0E8003750B00EE2423F559
:10B9700082E43FF583E412BBDCE012BBAD28250B6B
:10B980008C828D83F012BBA36013901BC8E0F91268
:10B990002D53E9F8850882850983E029F08508821E
:10B9A000850983E0C3947540097508007509000294
:10B9B000BB93E0FA7B00121EA18A088B09EA4509B5
:10B9C000700302BB938E828F83E0FA901BCD12BB73
:10B9D000D57402780C121586EA450CFAAB0DEE24EC
:10B9E0001212B5E65403F50C750D007406780C12AE
:10B9F0001586EA450CFCEBFDEE241512B5E6600455
:10BA0000780180027800EE2416FAE43FFBE8F9EDB5
:10BA100049FD12BBA3F50C7409780C121586ED458F
:10BA20000DFD8A828B8312BBD5740B780C121586A0
:10BA3000ED450DFDEE241712BBCF740C780C1215DA
:10BA400086ED450DFD8E828F83A3A3A3A3A3A3122E
:10BA5000BBD5740A780C121586ED450DFDEE242336
:10BA600012BBCF740D780C121586ECF8ED450DF96C
:10BA7000E8850882850983F0E9A3F0EE240212BB71
:10BA80009A12BCA312BBF7F0EE240412BB9A12BBAD
:10BA9000C112BBF7A3A312C94D12BBC1A3A3A3A399
:10BAA00012BC01850882850983A3A3A3A3A3A3A332
:10BAB000F0750A088A828B83E06015EE241812B6AE
:10BAC00023E5082408FAE43509FB122069750A10F9
:10BAD000EE241712B5E66019EE241A12B623A80A4E
:10BAE000E50828FAE43509FB1220697408250AF5EF
:10BAF0000A8E828F83A3A3A3A3A3A3E06057EE249F
:10BB000007F510E43FF511851082F583E0C0E012DF
:10BB1000BBB4D0E012BBE7E0C0E00812BBB6D0E097
:10BB200012BBE7129AF4121383851082851183E009
:10BB300025E0FCE433FDA80AE50828FAE43509FB12
:10BB4000121DED7403121364851082851183E0C306
:10BB500033250AF50AEE241512B5E66008C0E01296
:10BB6000BBB4D0E0F012C81E129AF512138312BBB8
:10BB7000AEFC7D00A80B8E828F83A3E0FAE5082A35
:10BB8000FAE43509FBEA28FAE43BFB121DED7403E5
:10BB9000121364AA08AB0902BEEFF8E43FF98882E9
:10BBA00089832212BBA722EE128AF3E022F8EE125A
:10BBB000D719E022A80AE50828F582E43509F583BB
:10BBC0002212BBC522E0850882850983A3A322F542
:10BBD00082E43FF583E0F50C750D002212BBE022F4
:10BBE000F08E828F83A322F0050A8E828F83A3A317
:10BBF000A3A3A3A3A3A322A3A312E0BF12BBC5A325
:10BC000022F0EE241412B5EA2274F4120D3574FDFC
:10BC10001214478A088B09ECFEEDFF740112141907
:10BC2000880A890B780A1213877402121429EEFA13
:10BC3000EFFB122A5F7402121364E97053851882B5
:10BC400085198312BCA3F074011216DEE0F812BC51
:10BC500099A3A312EEAD602914850882850983A3F8
:10BC600012EEB112D59D74011216DEE028F8A3E0A1
:10BC700039F9E824FEF582E934FFF58312EAF3800E
:10BC80000C850882850983A3E4F0EEFAEFFB8004BB
:10BC90007AFE7BFF740302910BA3E0F9850882858D
:10BCA000098322E08508828509832274EE120D350E
:10BCB0008A0A8B0B8910ECFEEDFF750F017C267D47
:10BCC000007900EEFAEFFB121DF9E510C39408505D
:10BCD0000302BE388E828F83E510F0EEFCEFFD8507
:10BCE0000A82850B8312C146122E97E96003750FF5
:10BCF0000012C1288E828F8312C191EE12C1243F9F
:10BD000012C17BC0E0128AEAD0E012C173C0E0EE3B
:10BD10002412F582E43FF583D0E012BBDC740812F4
:10BD2000BECDA3A3E06018E50A2408F8E4350BF9BA
:10BD300012B5DA12C8438E828F83A3E02408F08EF6
:10BD4000828F83A3A3A3A3A3A3A3A3E060178E82E0
:10BD50008F83A385820885830912C13B12D2BA1250
:10BD6000A1472408F0EE241912B5FDEE241B12B5EC
:10BD7000FDA312BECDE0600F12BEB48E828F83A3EE
:10BD8000A3A3A3A312BEE0EE241812B5E67003022B
:10BD9000BE2812BEB4FAEE2419F582E43FF583EA18
:10BDA00012BEE0F8E50A28F582E412EF93F812D704
:10BDB000E0E812BEE0E8C39AEE5068241912B5E636
:10BDC000F8903E8EE493C398500575110C8008EEF0
:10BDD000241912B5E6F5118E828F83A3E0F8E50AE7
:10BDE00028F50CE4350BF50D750E00780C12138355
:10BDF000AC11EC2CFCE433FD7A4C7B0C121DED7481
:10BE000003121364EE241BF582E43FF583744CF0B7
:10BE1000A3740CF0E511C333F8850882850983E02B
:10BE200028800412C906E4F08E828F83A3E0F88E86
:10BE3000828F83E0C398500479008061A3E0FAE523
:10BE40000A28F8E4350B12BEA9E8F0A3E912C18A6A
:10BE5000C39AC0E012BE9FD0E012BEE6603DEE2461
:10BE600017F8E43FF9880889098882F583E024F20D
:10BE7000F0EE241D12BB9AE0240EFAA3E03400FB7E
:10BE80008882898312CF93901BC8E0F9122D53E961
:10BE9000F8850882850983E0C398F0A90F8050EEE9
:10BEA0002417F582E43FF58322F9EE241DF582E4A0
:10BEB0003FF583228E828F83A3858208858309E0E4
:10BEC000F8E50A28F582E4350BF583E02212BED1AD
:10BED0002212BED522F08E828F83A3A3A3A3A32216
:10BEE00012A14F04F02212BED1A3E0221213647FEC
:10BEF0000A02103C74F4120D358A088B09EA12BF4D
:10BF000092A3A3F0EA1313543F12BF8BA3A3A3F091
:10BF1000EAC4131312BF9212BFA57409780A12164D
:10BF20005112BF99A3A3A3A3A3A3F0EB12BF9B122B
:10BF3000BFA4740A780A121651E50A5401C0E0EC55
:10BF40002418F582E43DF583D0E012BFA9740B7884
:10BF50000A12165112BF9912BFA2740C780A121657
:10BF60005112BF99A312BFA2740D780A121651E59F
:10BF70000A5401C0E0EC2424F582E43DF583D0E0CE
:10BF8000F0740E7808121651028AE5540F8C828DD7
:10BF9000832254038C828D8322E50A54018C828D86
:10BFA0008322A3A3A3A3A3A3A3F08A0A8B0B22C07B
:10BFB00082C08379008A828B83A3A3A3A3A3A3E077
:10BFC000901BC7600EE070238A828B83A3A3E0706E
:10BFD0001A8016E060158A828B8312C9F8901BD0F4
:10BFE000E06A7003A3E06B6002790102C1DC74F2C5
:10BFF000120D358A0A8B0B890C8C088D098A828B6D
:10C000008312C146122E9712C128850882850983A2
:10C0100012C191E50812C124350912C17BC0E0E5C7
:10C0200008241112C830D0E012C173C0E012C82C2D
:10C03000D0E012C154740812C165E0601EE50A2404
:10C0400008F8E4350BF9E508241312C83012C84388
:10C05000850882850983A3E02408F0850882850984
:10C0600083A3A3A3A3A3A3A3A3E0601B8508828546
:10C070000983A312C137E508241512C830E8F0A3DC
:10C08000E912C18A2408F0850882850983A3A3A345
:10C09000A3A3E06019850882850983A3AE82AF83DC
:10C0A00012BEBF85088285098312C18504F0AA08E3
:10C0B000AB09122E9DE9F50D706485088285098310
:10C0C000A3A3A3A3A3A312BCA3A3701AE0FAE50A37
:10C0D0002AF8E4350BF9E508241D12C83012C843CC
:10C0E000E50CC39A802C12C137E8240EF8500109E0
:10C0F000E508241D12C83012C843901BC8E0F9128D
:10C100002D53E9F88E828F83E0F9E50CC39924F270
:10C11000C398C0E0E508241712C830D0E0F0A90D9C
:10C12000028CDBEA12EE6322850A82850B83A3A3CD
:10C1300012C1A7E0F9EA22AE82AF83E0F8E50A284F
:10C14000F8E4350BF922E0FAA3E0F8E4C8F9EA28AC
:10C15000E439FB2212C1582212C15C22F085088208
:10C16000850983A32212C1692212C15CA3A3A3A3E0
:10C17000A3A32212C1BAA3A3A3E022F583E812C1AC
:10C18000B3A3A3E022A3A3A3A3A3F08E828F83E093
:10C1900022A3A3A3A3A3A3A3A3A312C1B312C1A7C2
:10C1A000A3A3E0F9EAF822E0FA850A82850B83A3CB
:10C1B000A3A322F0A3E912C1BA22F0850A82850B5B
:10C1C00083A3A3A3A322C082C0837A527B1C79E2FB
:10C1D0001227477A527B1C800312CA01D083D08277
:10C1E000021331C082C083901BD080EDC082C08317
:10C1F000901BD380E4C082C083794A12274780DC39
:10C2000074F6120D35901C5AE0FE04F0EEF9122E71
:10C21000378B09EA450970EDEE60EAF902C48E74C5
:10C22000EE120D35EAFEEBFF8C0E8D0F890C750BAF
:10C2300000750A001230418A088B0974121216DE4A
:10C24000E0F50D74131216DEE0F8EA45097016E801
:10C25000600302C324A90CAC0EAD0FEEFAEFFB1283
:10C26000306502C3C0E8700302C2EF901C5F12CBBE
:10C2700050600612C48512361CE50D700B850882CD
:10C28000850983E4F002C31F901BCAE0A2E14003CA
:10C2900002C33C901C6112CB50600CA90DAA08ABE4
:10C2A0000912C48512361C850882850983E0FA12BA
:10C2B000E362500109C3EA98E499A2D265D03350F1
:10C2C00009850882850983E004F085088285098351
:10C2D000E0F8903E8AE493687062750B01EEFAEF25
:10C2E000FB122AEF850882850983A3E4F0804DE5DF
:10C2F0000D701CEA240212ACA9A80C28F8E4340042
:10C3000013E813F070098A828B83A3A37401F08A67
:10C31000828B83A3A3E0F8901DD0E0C398501D75D5
:10C320000A0180187401687013E50D600F901BCA34
:10C33000E0A2E15007EEFAEFFB122AEFE50AA2E0D5
:10C3400092F0E50BA2E072F05076901BCAE0A2E1F9
:10C350005039EEFAEFFB1228798A088B09A808A950
:10C3600009E8496026E50AA2E0500D88828983A386
:10C37000A3A3A3A3E0C2E0F0E50BA2E050428882B1
:10C380008983A3A3A3A3A3E0D2E0F0E50BA2E0502E
:10C390002F901BCAE0A2E15012EEFAEFFB122867C1
:10C3A000E96008EEFAEFFB79008012901BD3E06E93
:10C3B0007003A3E06F7009EEFAEFFB790112299F79
:10C3C00002BEEF74F4120D358A088B098C0A8D0BAE
:10C3D0009084217808121487700E7A017B00901CDB
:10C3E0002AE0F9121E4D8035901DE978081216607A
:10C3F000EA4509450A450B6018780812137F7A014F
:10C400007B00901C2AE0F9121F61740412136480EF
:10C410000C7A017B00901C2AE0F9121F6D02910E2C
:10C42000C082C083901DED02AA30C082C083901DDF
:10C43000EF02AA3074F6120D357508BC75091B7829
:10C44000081213877C6E7D007A217B00121F1F74F7
:10C4500002121364E9F508122843E9FE1228C1E923
:10C460004E420890033A12CB50600912C48512362E
:10C470001CE94208122BD9E9FE1226C3E9F8E508A7
:10C480004E48F9800912DD092274011213647F02FB
:10C4900002103C74F6120D35121DB17508BC7509F9
:10C4A0001B780812138775086E7509007808121337
:10C4B000877C007D007A217B00121F2B74041213ED
:10C4C000641228491228C790033C12CB5060061210
:10C4D000C48512361C122BDF1226D580B174F612D9
:10C4E0000D3574FF1214477E007508BC75091B7862
:10C4F000081213877C6E7D007A217B00121F1F7447
:10C5000002121364E9600302C5C27808121387752A
:10C51000086E8E0978081213877C007D007A217BD3
:10C5200000121F317404121364E9600302C5C29043
:10C530001BD0E064FE7003A3E0F4700302C5C27E6A
:10C5400001901BDFE064086005E06404706F8518EB
:10C5500082851983EE12CB76794212274D7AE77BDA
:10C560001B794312274D7AE47B1B794712274D7ABA
:10C57000D57B1B794A12274D7AD37B1B794B122727
:10C580004D7ADD7B1B795012274D7AD07B1B795376
:10C5900012274D7AE57B1B795412274D7AD27B1BEB
:10C5A00079E112274D901BCAE0A2E35004D2F0803B
:10C5B00002C2F012CB6C795212274D8005121DB1C8
:10C5C0007E001228371228D990033E12CB50600605
:10C5D00012C48512361C122BEBEEF902C48974F6D4
:10C5E000120D35E9FEA2E050267508BC75091B78CE
:10C5F0000812138775086E75090078081213877C76
:10C60000007D007A217B00121F2B7404121364EE4C
:10C61000A2E3500312283DEEA2E150031228DFEE00
:10C62000A2E2500E90034012CB50600612C4851255
:10C63000361C02C48E74F6120D3574EC1214477455
:10C6400001121429901E41E0F97A2D7B1C122DF560
:10C6500074051216DEE4F074071216DEE4F07A04B4
:10C66000F9122855903E87E493F8C3EA98EB9400BA
:10C670005058122831E97052903E6612C726601950
:10C680007A0479031228558A088B09903E87E4932F
:10C69000F8903E6612C730500874051216DE740119
:10C6A000F0903E6412C72660197A0279011228556B
:10C6B0008A088B09903E87E493F8903E6412C73055
:10C6C000500874071216DE7401F0901E41E0F97CE8
:10C6D0002D7D1C7401121421122DEF7A2D7B1C79F3
:10C6E0004512274D74071216DEE0701174051216FC
:10C6F000DEE07009851882851983E4800885188238
:10C700008519837401F0901E3BE0F8901E3AE058C2
:10C71000F8851882851983E05812CB767941122763
:10C720004D741402C48BE493F8740193F9E8492220
:10C73000E493FA740193FBE8C39AF8E49BF9C3E528
:10C740000898E509992274F7120D3574ED12144713
:10C75000E9FE901C29F0AC18AD19901E41E0F97A61
:10C760002D7B1C122DF574121216DEEE12C784AA50
:10C7700018AB19122DEF7A2D7B1C794512274D74B9
:10C780001302B09EF0901E41E0F97C2D7D1C2274B6
:10C79000F4120D35EAFEEBFF901E43E064FE7003D9
:10C7A000A3E0F470767A167B00121E0B8A088B09C0
:10C7B000EA450960668A828B83740112BEE68A822A
:10C7C0008B83A36004740280027401F0EA240AF8E7
:10C7D000E4350912BEA912EAF8A312D7EAF0A2E3DF
:10C7E000400912C81E12CA01122E6DEE241512B68F
:10C7F00023E5082402FAE43509FB122069E5082440
:10C800001312C830E4F0AA08AB09901C2AE0F91210
:10C810001E1712C81E12D0E112C84302910E12C890
:10C820002222EE240BF582E43FF58322E508241250
:10C83000F582E43509F58322E0F8A3E0F985188252
:10C84000851983E8F0A3E9F02274F2120D3574FD26
:10C850001214478A088B09890A8C0B74011216DEA0
:10C86000740412CB76122F2D8A0C8B0DAE0CAF0DEB
:10C87000EE4F700302C8F712C92C740712D7F0E507
:10C88000082413FAE43509FB8A828B8312C9428A91
:10C89000828B8312C941E508241512C83012D7EAE9
:10C8A00012D7F7E508240BF8E43509F912C905E8B1
:10C8B000F0A3E912D98A122EA912D7D812C94D7441
:10C8C00001F07403650A60067401650A700712C9F5
:10C8D000167404800412C916E4F0901E4312ACC30F
:10C8E00012C8437401650B700312C90FEEFAEFFB17
:10C8F0001228F1E9F980027910901E4374FEF0A32A
:10C9000004F0028CD6EE2418F582E43FF58322EE83
:10C91000128AEFE4F02212C91E7440F0A322EE1234
:10C92000C92322240FF582E43FF58322EE12EE6341
:10C930003FF58312C93722E0F8A3E0F988828983A2
:10C9400022A3E088828983F0A308A9832212C95117
:10C9500022F0EE12C957222413F582E43FF5832218
:10C9600074F4120D35EAFEEBFF7A007B04901C2A6A
:10C97000E0F9121F6D12CA18901BDF7409F0122E15
:10C98000A98A088B09AC08AD0912B5DA12CA0112DE
:10C990002063E96401705A7A0F7B00121E0B8A082B
:10C9A0008B09EA4509604A8A828B83740212CA0D98
:10C9B000F988828983A3E0FC88828983A3A3E0FBB2
:10C9C000EC8A82850983A3A312CF9488828983A3EA
:10C9D000A3A3E08A82850983A312CA05FAA3E0FB18
:10C9E000794A12274DAA08AB09901C2AE0F9121EB9
:10C9F0001702910E8E828F83A3A3A3A3A3A3A3A345
:10CA0000A312CD7422F0EE241512B5EA22F0EE2422
:10CA10001D12B5EAF8A3E022901B6912D0EF901D19
:10CA2000EFE8F0A3E9F0901B6B12D0EF901DEDE85A
:10CA3000F0A3E9F02274F4120D3574FD1214478A44
:10CA4000088B0974011216DE740212CB76122F2D98
:10CA50008A0A8B0BAE0AAF0BEE4F700302CB231288
:10CA6000EE80E412C154A3A3A3E06401700888829D
:10CA70008983A37420F0850882850983A3A3A3A3D7
:10CA8000A3E06401700988828983A3E0D2E6F0857F
:10CA90000882850983A3A3A3A3A3A3E06401700A6A
:10CAA00088828983A3E0D2E7800512B5DA74011287
:10CAB000CB64E064017021850882850983A3A312F9
:10CAC000CB50600312CB28850882850983A3A3126B
:10CAD000CB3C12C90612C843850882850983A3A3EB
:10CAE000A3A3A3A3A3E06401700712E9F3F0A3E4F6
:10CAF000F085088285098312CA01122F4BE9600470
:10CB000012CB2FF0EE241712CB2B122EA912D7D84E
:10CB100012A14B12CB4212B669FAEFFB1228F1E9CF
:10CB2000F98002791002BC94EE241612D7FF22126B
:10CB3000B61A440422F582E43509F58312D0EFEEEB
:10CB400022E0F8A3E0F98E828F832212CB56F58380
:10CB500012D0EFE849228E828F8312B8E9241FF5A4
:10CB600082E4382212C158A3A3A3A322A2F0E43383
:10CB7000851882851983F0AA18AB192274F5120D55
:10CB80003574F3121447890AEAFEEBFF7508007545
:10CB900009007C0D7D007900AA18AB19121DF9124D
:10CBA000BEAA12CD2B741F58600C7AD37B001224BE
:10CBB00071790002CC7BE8A2E55008740C1216DEF5
:10CBC0007401F0E8A2E75008740B1216DE7401F04D
:10CBD000E8A2E6740A50081216DE7401F08008120A
:10CBE00016DEE0640170138E828F83A3A3A3A3A338
:10CBF000A3A3E06032EE241380128E828F83A3A35E
:10CC0000A3A3A3A3A3A3E0601EEE2415F582E43F33
:10CC1000F58312A7896010AC08AD0974021216DE04
:10CC2000AA82AB8312206912C81E12C838740A1275
:10CC300016DEE06401703B12C9F4122F4BE9703923
:10CC4000EE240B12B764901BD3E0687003A3E06975
:10CC50007027E5084509601A122EA98A088B09ACCD
:10CC600008AD0974021216DEAA82AB83122063E9B2
:10CC70006007AA18AB19122999A90A740D02B30208
:10CC800074F7120D3574CD121447EAFEEBFF8E8255
:10CC90008F8312CD49A2E0400302CD2612CD38E0A9
:10CCA00054FE12E769740D12142912CD5C122EA3E2
:10CCB000E97073742A1216DE12CD3270697C0D7D14
:10CCC000007900AA18AB19121DF974161216DE129B
:10CCD000C838742A1216DE12CD2BA2E55008740B48
:10CCE0001216DE7401F0E8A2E75008740A1216DE8C
:10CCF0007401F0E8A2E65004742080027422121637
:10CD0000DE12B62974021216DEAA82AB83122069E3
:10CD10008E828F83A3A3E0C0E0740C1216DED0E0F5
:10CD200012CB76122993743302B09E12DD06A3E073
:10CD3000F82212B1B06404228E828F8312D492A39F
:10CD4000A3A3A3A3228A828B83E0F812CD4F22A350
:10CD5000E0C82406F582E438F583E022EA241EF5D3
:10CD600082E43BF583E0F9EA241FF582E43BF58396
:10CD700012CD742212EAF3FB22E9F87900740468F8
:10CD8000600A740A6860057403687002790102130E
:10CD90003174F6120D358A828B837424F0A3A37448
:10CDA00001F01228F78A088B09AE08AF09EE4F6030
:10CDB000108E828F8312D988122EA9EE241A12CFD8
:10CDC0008DEEFAEFFB02C48EC082C083901BCD02B1
:10CDD000AA16C082C083901E4202AA16C082C083D7
:10CDE000E9901E4202AA34C082C083901C4674019E
:10CDF000F0E9A2E350037403F0E9A2E15004E0D2A9
:10CE0000E2F002C1DC74F6120D3579007C008A086C
:10CE10008B097808121082F8FF073ACE38CE38CE48
:10CE200038CE38CE30CE34CE3ACE2CCE7C01800AED
:10CE30007C0480067C0280027C08901C46E05C60DA
:10CE40000479028005EC6002790102C48E74F41248
:10CE50000D35EAFEEBFF890812287F8A0A8B0BA8A2
:10CE60000AA90BE849604188828983A3A3A3A3E0B0
:10CE70006036C39405503174016508601A88828950
:10CE800083A3A3A3A3E06401600D88828983A3A385
:10CE9000A3A3E06402700A8882898312CA01122A5D
:10CEA0004DEEFAEFFB12288B02910E74F6120D353F
:10CEB0008A828B83E07014A3A3A312CB50600C8AE8
:10CEC000828B8312C9FE122C3980047A007B000207
:10CED000C48EC082C083901BDFE064087003122FF1
:10CEE0006F02C1DCC082C0837C00EC75F003A4F843
:10CEF000ADF0EDF912CFC67003A3E06B7018903E51
:10CF000090E493C0E0744928F582741C3DF583D009
:10CF1000E0F079C580620CECC3940340CD7C00EC5A
:10CF200075F003A4F8A9F0744A28F582741C129ACB
:10CF3000B764FE7003A3E0F4600F0CECC3940340ED
:10CF4000DE7C00EC12CF7B7026EC75F003A4FCAD08
:10CF5000F074492CF8741C3DF988828983A312CFA0
:10CF600093903E90E49388828983F0790080090C45
:10CF7000ECC3940340CD79C702C1DC75F003A4F87B
:10CF8000A9F0744928F582741C12E8E322F582E4C2
:10CF90003FF583EAF0A3EBF022C082C0837C00EC73
:10CFA00075F003A4F8A9F012CFC67003A3E06B706C
:10CFB0000912CF826004790180090CECC39403400C
:10CFC000DE790002C1DC744A28F582741C12E8E3A1
:10CFD0006A2274F2120D3574DD121447EAFEEBFF7B
:10CFE000750800901BD0E06E7003A3E06F7010EE28
:10CFF0004F700302D0CE750801122F7502D0DA12DD
:10D0000028798A0A8B0BEA450B700302D0CE8A82FC
:10D010008B83A3A3A3A3E0640160108A828B83A304
:10D02000A3A3A3E06402600302D0CE851882851911
:10D0300083E412D0E8740B1216DEE8F0A3E912CBF9
:10D0400076122825E9700302D0CE850A82850B83EB
:10D0500012D0E112C8437900122A41850A82850B59
:10D060008312D5B31216DEAC82AD8374181216DEAD
:10D07000AA82AB83122069850A82850B8312B76A64
:10D0800074201216DE12C84374221216DEE4F07CFD
:10D0900002850A82850B83A3A3A3A3E0F9740D1272
:10D0A0001421122F09850A82850B8312B76A740135
:10D0B0001216DEE8F0A3E912CB7612282B750801D0
:10D0C000E50A12E37F350BF583129B1D800C901B44
:10D0D000DD12B64CFAEFFB123029A9087423028C3A
:10D0E000D812D0EF901E432212AE4012D0EF22127F
:10D0F000D142F922C082C08374FE12144779011212
:10D100002A4712D128901BD0E8F0A3E912CB7679F8
:10D110005312274D85188285198312CA011223B72D
:10D12000740212136402C1DC851882851983EAF047
:10D13000A3EB12D137F922F085188285198312D119
:10D140004222E0F8A3E02274F4120D3574F31214B5
:10D15000478A088B09ECFEEDFF750A12EA45097053
:10D1600005790002D228901BD0E065087004A3E086
:10D170006509701D122EA98A0A8B0BAC0AAD0BEE45
:10D18000FAEFFB122063E97005750A018003750A46
:10D1900000851882851983E4F0041216DE12D97610
:10D1A00012CB76122819E9602974031216DEAA82BE
:10D1B000AB831227F5E964017018750A0174031234
:10D1C00016DEAC82AD83EEFAEFFB122063E9701637
:10D1D00080177412650A7011EEFCEFFDAA08AB0906
:10D1E000122861E96003750A00EEFCEFFDAA08ABA6
:10D1F00009123047E9F8740A687005750A01801D44
:10D2000074A0687012EEFCEFFDAA08AB0912305949
:10D21000AA08AB0912306B7401650A70097900AA7B
:10D2200008AB09122F81A90A740D02910B74F61232
:10D230000D35EAFEEBFF8908122F6FE508F5097836
:10D240000912138B790DEEFCEFFD7AFC7BFF122F98
:10D250008D02C48974F7120D35EAFEEBFF8E828FC2
:10D2600083A3A3A3A3A3A3A3A3E0601612D2BA121D
:10D270009BAF12CA01122F7BE96401700512C81E10
:10D2800080298E828F83A3A3A3A3A3A3A3E06025F9
:10D2900012B62012C9F4122F7BE9640170178E8236
:10D2A0008F83A3A3A3A3A3A3A3A3A312CA01122F93
:10D2B0006379018002790002B0A1EE2415F582E4C1
:10D2C0003FF5832274F2120D3574FD1214478A085B
:10D2D0008B09ECFEEDFF890B750A0174011216DE55
:10D2E000740412CB76122F2DEA4B60427411121681
:10D2F000DEE0601412D8EFE412DD0F8A828B83E047
:10D30000D2E7F012D331E4F012D33B12C9317403E7
:10D3100012D5BDEE88828983A3A3F0EF888289832A
:10D32000A3A312AE3F12D80C1228F1E9F50A028C21
:10D33000D4EA2414F582E43BF5832212EE623B2208
:10D3400074F0120D35EAFEEBFF890A750B01EE123F
:10D35000D67F3F12D48BF50C88828983A3A3E0FA91
:10D360008882898312D47AEE241712B5E6640460A9
:10D370000A7AD37B0012247102D469E50C1211F9E8
:10D3800002000295D3030B21D4030C11D40DF3D367
:10D390000E21D41ED4901BCAE0A2E1400302D42186
:10D3A0007900AB09122AD1EA4B603D8A828B83A3B4
:10D3B000A3A3A3A3A3E05418602E12C81E12114801
:10D3C0008A828B83A3A312114879008E828F83A354
:10D3D000A3A3A3A3A3A3A3A312D46E12CA01122AC8
:10D3E000E9740412136480247901AA08AB09122994
:10D3F000A5802E901BCAE0A2E15026AB09122F5D3A
:10D40000AA08AB09122F63E964C57015750B00807B
:10D4100010901BCAE0A2E150081223DB8003750ABA
:10D4200000EE2409F50EE43FF50FAC08AD09A90C98
:10D43000850E82F58312CA011229B7850E82850FE7
:10D440008312CA01122F4BE9601F12BBA3C39402BF
:10D45000401712C81E12DC317003A3E069600AE5B0
:10D460000BA2E05004A90A8002790002ACD012D4C9
:10D47000722212B6318A828B8322A3A3A3E0F8E43E
:10D48000C8F9EA28F508E439F50922F58312D4929F
:10D49000E02212D142F988828983A32274EE120D10
:10D4A0003574F51214478A0A8B0B890D8C0E8D0F7B
:10D4B0007E01EE1216DE740AF0741D1216DEE0F51F
:10D4C0000CE9700FE50CC333240AC0E0EE1216DE3F
:10D4D000D0E0F0AA18AB19122F2D8A088B09EA4563
:10D4E00009700302D59512C123350912D733740987
:10D4F000F0A3E50DC43354E0450C12D74CAC0EAD8F
:10D500000FEEFAEFFB122069EE2408FE50010FE542
:10D510000D702F7C00741E1216DE12D5A4801D1211
:10D52000D59CEA28F8EB39F98882898312D7478895
:10D5300082898312A131F0A30EAF830CECC3950C4A
:10D5400040DDE508241712C8307401F0122EA9E559
:10D5500008241AF582E4350912D5B1121429AA0A51
:10D56000AB0B122801E96019E508241612C83074C3
:10D5700001F07403121419E508241812C83012C8F7
:10D5800043850882850983A3A312D5BBAA08AB09EA
:10D590001228F1E9FEEEF9740B02BEECEC25E0F87E
:10D5A000E433F92212D5A82212D142F9E8FAE9FBB4
:10D5B00022F583EAF0A3EBF0740322E50AF0A3E579
:10D5C0000BF02274F0120D3574F81214478A088B90
:10D5D0000912D67E350912D7C7F8741F58F50A8884
:10D5E0000BA3AE82AF83EEFCEFFDAA18AB1912209D
:10D5F00069EE2408FE50010FAC18AD197AF17B1BBF
:10D60000122063E9607374E0550B7066AA0AEA2A77
:10D61000FA7B00121EA18A0C8B0DEA450D605A7C24
:10D6200000801D8E828F8312C14612D59CE50C2886
:10D63000F582E50D3912CF91EE2402FE50010F0C58
:10D64000ECC3950A40DD780C121387780A12138B0D
:10D6500074031214297900E508240B12C83012CA89
:10D6600001122FA57403121364AA0CAB0D121EA78E
:10D6700080077AD37B00122471740802ACCDEA24AF
:10D680001DF582E42274F0120D358A0A8B0B890D88
:10D690008C088D09901A7F12CB5060757410121689
:10D6A000DEE0F50C12D59DE8240EFAE439FB121EDB
:10D6B0000B8A0E8B0FAE0EAF0FEE4F60548E828F23
:10D6C0008374D4F012D722A3A3E50DF0AC08AD0902
:10D6D000EE2405FAE43FFB12206912D714E50CF0A2
:10D6E00074111216DE12DCF77808121383AC0CECFE
:10D6F0002CFCE433FDEE240EFAE43FFB121DED7426
:10D7000003121364EEFAEFFB901A7F12DD02123659
:10D710001C02ACD0EE12D71922240DF582E43FF59D
:10D720008322A3A3E50AF0A3E50B12D72E2212BB96
:10D73000E0A322F58312D742FF8E828F8322888254
:10D740008983E0FEA3E022E08E828F83F0A3AE8285
:10D75000AF832274F6120D3574F81214478908123B
:10D76000D67E3B12D7C7F9741F59F88909A3AE8238
:10D77000AF837401687042EEFCEFFDAA18AB19127A
:10D780002069EE2408FE50010FAC18AD197AF17B28
:10D790001B122063E9602974E05509701C8E828F8A
:10D7A00083A3E0FA8E828F83A312C1488E828F8377
:10D7B000E0F9122FC9A90880097AD37B00122471DD
:10D7C0007900740802C48BF583E02401FEA3E034E1
:10D7D00000FF8E828F83E02212D7E0EAF0A3EB22D3
:10D7E000EE241AF582E43FF58322E08882898322C1
:10D7F000F0A3A882A98322F0EE241612D7FF22F507
:10D8000082E43FF5837401F02239F58312D976F072
:10D810002274EF120D35EAFEEBFF751000EE12D602
:10D820007F3F12D992F508A3E0F50912D2BA12CAC5
:10D830000112287FEA4B700302D8EA8A828B83A305
:10D84000A3A3A3E0700302D8EAC39403400302D861
:10D85000EAE508C3940F5004E509600575100180DE
:10D8600079EA2412F582E43BF583E4F0E5087022BE
:10D87000903D3B780812153A12D8EF7808121660DE
:10D88000903D3B780812153A12E16678081216604E
:10D89000803975090074027808121586743B2508D2
:10D8A000F582743D12C833780C12153A9083CD7806
:10D8B0000812166F780C7908120BCE12D8EF780C7C
:10D8C00012166012E166780C121660EA241BF582CB
:10D8D000E43BF5837401F012241D901E0FE0FCA9B7
:10D8E0001012C81E12CA01122FB77F0902103CEA9B
:10D8F0002417F582E43BF5832274F0120D3574F59C
:10D900001214478A088B09890B8C0C750A01740163
:10D910001216DE740312CB76122F2D8A0E8B0FAEE9
:10D920000EAF0FEE4F604812C92C740C12D5BDA378
:10D93000E50C12D98A122EA9EE241AF582E43F12C0
:10D94000D5B1121429AA08AB09122801E9600E12F8
:10D95000CB28740312141912C90512C8438E828F82
:10D9600083A3A312D97612D97D1228F1E9F50AA969
:10D970000A740B02ACCDE508F0A3E5092212C951E7
:10D980007401F0EEFAEFFB227401F0EE241712D7C7
:10D99000FF22F583E02401F8A3E03400F9888289AE
:10D9A00083E02274F6120D3574DA121447EAFEEBA6
:10D9B000FF12CB4B60508E828F8312CA01AC18AD20
:10D9C0001912CD5C122E9174091216DE12DC317020
:10D9D00003A3E069603012DCFE1211487508FE7581
:10D9E00009FF7808121387741C1216DEE0F9740D13
:10D9F0001216DE12B629740F1216DE12CA01122A8E
:10DA0000E97404121364742602C48B74F7120D3582
:10DA1000E9FD7A007B007C00800B12DAADE02AFA87
:10DA2000A3E03BFB0C903E8712E8D15029EC75F047
:10DA30001CA4F8AEF0EEF912E8F3F460E7744028A5
:10DA4000F58274073912CB4E60DAED60CD12DAAD93
:10DA5000E4F0A3F080CE7C00800B12DA9AE02AFA80
:10DA6000A3E03BFB0C12E8CE502DEC75F017A4F8A8
:10DA7000AEF0EEF912EA727003A3E0F460E674917E
:10DA800028F58274093912CB4E60D9ED60CC12DAD8
:10DA90009AE4F0A3F080CD02B0A1EC75F017A4F8E1
:10DAA000EEF9749128F582740939F58322EC75F04A
:10DAB0001CA4F8EEF9744028F582740739F5832226
:10DAC00074EC120D35890CEAFEEBFF901C29E0C3C3
:10DAD000950C503B122EFD901C5B12DB16901BC365
:10DAE000E0F508E4F509F50AF50B9082D5781012F7
:10DAF000166F78087910120BCE780812137F7A000F
:10DB00007B02901C2AE0F9121F6174041213640254
:10DB100089618A828B83EEF0A3EFF02274F6120DF6
:10DB200035EAFEEBFF901C47801388828983E06E04
:10DB30007003A3E06F603A88828983A3A312CB505D
:10DB400070E87A047B00121EA18A088B09A808A934
:10DB500009E849601C8882898312DB16901C4712F1
:10DB6000CA0188828983A3A312CF93901C4712C84D
:10DB70004302C48E74F4120D357E00901C4780075A
:10DB80000E8A828B83A3A312AFAC70F4EE25E0FA69
:10DB9000E433FB121EA18A088B09EA4509607F7CE9
:10DBA00000901C4780228A828B83E0F50AA3E0F56F
:10DBB0000B12D59CE50828F582E50939F58312D5C5
:10DBC000BB0C8A828B83A3A312AFAC70D9901C25A7
:10DBD00012DC317003A3E0697808701C121387EE21
:10DBE000F50A780A12138B7CF17D1B7900901C25B5
:10DBF00012CA01122FA5801A121387EEF50A780AAD
:10DC000012138B7CF17D1B7900901C2512CA011226
:10DC10002F997403121364AA08AB09121EA71229C4
:10DC20000902910E8E828F83A3A3A3A3A3A3A3A310
:10DC3000A312D0EF901BD0E06822C082C083801274
:10DC40008A828B83A3A312B76A901C4712C843121F
:10DC50001EA7901C4712AFAC70E602C1DC74F5122F
:10DC60000D35901BDD12B28A901C5B12A12812C8E0
:10DC7000437A5B7B1C795012274D901C5B12DCF7BA
:10DC8000801312E5B37004A3E06509600612E5C0D5
:10DC9000123035050A903E8FE493F8E50AC3985098
:10DCA00020E50A75F017A4F8A9F012E4616E70037C
:10DCB000A3E06F70CD748628F582740912D80980AC
:10DCC000D2901C5B12B28A901A8112CB5060257AD6
:10DCD000067B00121E0BEA4B601A8A828B8374D576
:10DCE000F0A3A3E412E0AA0412DD0F901A8112DD62
:10DCF0000212361C02B305128970750A00228E8248
:10DD00008F8312DD0622E0F8A3E0F58388822212D9
:10DD1000AE4CEEF0A3EFF022C082C083901BD0E0A7
:10DD200064FE7003A3E0F4600E901BCAE0A2E15011
:10DD30000612304D122FF302C1DC74F0120D359033
:10DD40001C1EE06053F50CE4F50DF50EF50F908305
:10DD50004D780812166F780C7908120BCE121E053A
:10DD60008A088B09A808A909903E6EE49358F50823
:10DD7000A3E49359F509E4F50AF50B780C79081238
:10DD80001527780C12137F7A007B01901C2AE0F98A
:10DD9000121F67740412136402ACD074EE120D35B6
:10DDA0007E007F008E0A8E0B1228A9750D00803B25
:10DDB000AA0D7B001228A38A088B09A808A909E8E4
:10DDC00049602688828983A3A3A3A3E06004640436
:10DDD000701788828983A3A3A3A3A3A3A3A3A3A348
:10DDE000E0F912305FE960010F050D903E87E49382
:10DDF000F8E50DC39840B91230238A0E8B0F750CCD
:10DE0000008023AA0C7B0012302F8A088B09A808F7
:10DE1000A909E849600EE8240F129AB4F912305F9C
:10DE2000E960010E050CC3E50C950EE4950F40D397
:10DE3000EF2EFE700302DF318E0875090074027840
:10DE400008121586AA08AB09121EA18A0A8B0BEAD2
:10DE5000450B700302DF2F750C008E0875090074E6
:10DE6000027808121586AC08AD0979FF121DF97504
:10DE70000D00805EAA0D7B001228A38A088B09EA98
:10DE80004509604C8A828B83A3A3A3A3E06004644A
:10DE900004703D8A828B83A3A3A3A3A3A3A3A3A3FC
:10DEA000A3E0F912305FE9F96026050C780A121335
:10DEB00087EEFD850882850983A3A3A3A3A3A3A35B
:10DEC000A3A312DFC212CA01122FF9740212136443
:10DED000050D903E87E493F8E50DC3985006E50CD8
:10DEE000C39F4090750C00C3E50C950EE4950F5050
:10DEF00040AA0C7B0012302F8A088B09EA45096082
:10DF00002AEA240F12ACA9F912305FE9F9601C78F3
:10DF10000A121387EEFDE508240E12C83012DFC284
:10DF200012CA01122FF97402121364050C80B87E14
:10DF3000007F62901BC8E0600BF9122D53E9F87462
:10DF400054C398FF75F003EF84F50D9420400375DA
:10DF50000D1F850A08850B09750C00EF6005750C0F
:10DF6000207F00E50DC39E5005850D0F80088E0FA4
:10DF7000E50CD2E6F50CAC08AD09AA0CA90F122FDE
:10DF8000FFE9F50EE50CA2E6401D150F7800800BA9
:10DF9000E5082404F5085002050908E8C3950F4078
:10DFA000EFE50FCEC39EFEE97006E50CA2E650A891
:10DFB000E50A450B6007AA0AAB0B121EA7A90E02C1
:10DFC000BEEFE0FC8508828509832274F2120D35CC
:10DFD000EAFEEBFF89088C098D0A7C007D00740E37
:10DFE0001216DE12CA01750B00800DEAFCEBFDEA89
:10DFF0002404FA50010B050BE50BC3950A400302FC
:10E00000E09A8A828B83E0F47003A3E0F4607AECF8
:10E010004D600C8C828D83C3E09EA3E09F50CC8A20
:10E02000828B8312E09DEE98EF9950BFEAF8EBF9EE
:10E0300088828983E0F47003A3E0F46010E824048C
:10E04000F8500109050BE50BC3950A40E3E8FCE92C
:10E05000FDE824FCF8E934FFF98882898312E0A204
:10E060008C828D83E50CF0A3E50D12E0B98C828DD6
:10E0700083A3A312E0AFA3A3A3E08C828D83A3A309
:10E08000A3F0C3EA98EB9940C412DB128A828B8317
:10E09000A3A3E50912E0AAE508F0028CDB12D0EF99
:10E0A000C322E0F50CA3E0F50D2212AE40A322122C
:10E0B000E0B322F0888289832212E0BFA3E022121B
:10E0C000E0B3A32274F2120D3574FD1214478908CF
:10E0D0008A09ECFEEDFF750A0175F003E9A424023C
:10E0E000C0E074011216DED0E012CB76122F2DEABA
:10E0F0004B607012D33B12C9317408F0741F55087D
:10E100004509A3F0E82402F8500109750A0080339C
:10E110008E828F8312D7EA12D7F08E828F8312C934
:10E12000418E828F83A3A3E05407C4FC8E828F8329
:10E13000A3A3A3E054074C12C943EE2404FE5001EC
:10E140000F050AE50AC3950840C68A828B83A3A3FC
:10E1500074FCF0A374FFF012E1667401F01228F170
:10E16000E9F50A028CD4EA2413F582E43BF5832214
:10E1700074F1120D358A0A8B0B7508007AFE7BFF4D
:10E180007CFE7DFFE50A12D67F350B12D48BF50994
:10E19000741F5509F50CE82402F8500109E509A29D
:10E1A000E74065E50A2417F582E412EF93FE75F067
:10E1B00003E50CA424026E704FE50C600612D73EF6
:10E1C000FBEEFA750D00801DE05407F50EA3A88242
:10E1D000A983EEFC901BD0E06E7003A3E06F700388
:10E1E000850E08050DE50DC3950C502612D73EFC93
:10E1F000E4CCFDEE2CE43DFFE82402F85001098850
:10E20000828983E0548860C07AD37B001224710233
:10E21000E353E508700BA90912300BE9700302E320
:10E220005312E35812CA011228798A0C8B0DAE0CD6
:10E23000AF0DEE4F605A8E828F83A3A3A3A3A3A337
:10E24000A3E4F0903E8A93F88E828F83A3A3A3A3C6
:10E25000A3A3A3A3E0C398402412E3625001097A68
:10E26000027B00120AEAE88E828F83A3A3A3A3A3F2
:10E27000A3A3A3F0E508C39407500205088E828F7C
:10E2800083A3A3A3A3A3A3A3A3A3E508F002E3533B
:10E290007CFF7DFF12E35812CA011230178A0C8BE3
:10E2A0000DAE0CAF0DEE4F704F12301D8A0C8B0D62
:10E2B000AE0CAF0DEE4F700302E3537C177D007977
:10E2C00000121DF912E35812CB4112897E8E828F03
:10E2D00083A3A3A3A3A3A3A3A312B66912B1C0747B
:10E2E000AA12E3855001097A027B00120AEA12D7CA
:10E2F00014E812E36D7401F0903E8AE49312BBAD12
:10E30000C398401912E3625001097A027B00120A95
:10E31000EA12E9F9E508C394075002050812E9E595
:10E32000E50812E372E4F0129FA51227F5E97023C5
:10E33000850A82850B83A3A3A3A3A3A3A3A3E06061
:10E3400012E50A2415F582E4350B12B64A129FA68F
:10E350001220697F0702103CE50A12EE63350BF5C7
:10E360008322903E8AE49379002401F822F012E996
:10E37000E922F012E37722EE12E37F3FF5832224B5
:10E380000CF582E422F0903E8AE49379002401F8AF
:10E390002274F7120D35E9FE74FE6A700374FF6B88
:10E3A000603474605E6460602DEEA2E5401CA2E6FD
:10E3B000901BD0500DC3E09AA3E09B501979000246
:10E3C000B0A1C3E09AA3E09B40F3901BD012E09D64
:10E3D000EC98ED9940E7790180E574F7120D357EF0
:10E3E000008008EE12E5B91230350E12E41B40F33E
:10E3F0007E00EE75F003A4F8A9F0744928F8741CA7
:10E4000039F988828983A374FEF0A30412E0AFE493
:10E41000F00EEEC3940340DA02B0A1903E8FE49375
:10E42000F8EEC3982274F7120D357E0080010E12AB
:10E43000E41B5026EE12E4716A7003A3E06B70EEE9
:10E4400012E4616C7003A3E06D600A74FF6C7003EA
:10E4500074FF6D70D912E5C080047A007B0002B0B1
:10E46000A112E46522748628F582740939F583E0E7
:10E470002275F017A4F8A9F012E47C2212E8C3E098
:10E480002274F6120D357CFF7DFF7AFE7BFF123081
:10E4900017EA4B703C7508008032E50875F017A448
:10E4A000F8A9F0748B28F5827409129AB7600512E6
:10E4B000E8E87016747C28FE740939FF8E828F8319
:10E4C00012CA01122AEFEEFAEFFB050812E4D4405B
:10E4D000C902C48E903E8FE493F8E508C39822C029
:10E4E00082C0837A007B007C00801012EA6A70038D
:10E4F000A3E0F460050AEA70010B0C12E8CE40EBD1
:10E5000002C1DC74F4120D358A088B09ECFEEDFFB4
:10E51000800B123035EEFCEFFDAA08AB0912301764
:10E52000EA4B70EE02910E74F7120D357D007C00FF
:10E5300080020D0C12E8CE501C12EA6A7003A3E0B0
:10E54000F460F0EDF8EA684B70E8EC75F017A4F8A9
:10E5500012E5C080047A007B0002B0A174F7120DAE
:10E5600035EAFEEBFFEE4F60187C177D0079001254
:10E570001DF98E828F8374FEF0A30412EA00F0A3CB
:10E58000F002B0A174F6120D358A088B097E008066
:10E590001AEE75F017A4F8A9F012E5B37004A3E021
:10E5A0006509600612E5C01230350E12E41B40E129
:10E5B00002C48E12E46565082275F017A4F8A9F06C
:10E5C000747C28FA740939FB2274F4120D358A0818
:10E5D0008B09ECFEEDFF901BDDE06E7003A3E06F96
:10E5E00070141228798A0A8B0BA80AA90BE84960D3
:10E5F00005E82408801AEEFCEFFDAA08AB091230EA
:10E60000178A088B09A808A909E8496009E8240DB8
:10E61000FAE439FB80047A007B0002910E74F41254
:10E620000D358A088B09ECFEEDFF750A00750B00AD
:10E63000802FE50B12EA5A1227F5E96022E50B124A
:10E64000E47165087004A3E065097003750A0AEEB9
:10E65000FCEFFD12EA61122063E96003430AA005A2
:10E660000B903E8FE493F8E50BC3985004E50A60E5
:10E67000C1A90A02910E74F6120D357E00805AEE81
:10E68000FA7B001228A38A088B09A808A909E8497F
:10E69000604688828983A3A3A3A3E06401603988CC
:10E6A000828983A3A3A3A3E06402602CE824071259
:10E6B0009AB4FA74012AF0901C1FE0C39A5019888A
:10E6C000828983A3A3A3A3A3A3A3A3A3A3E412E781
:10E6D0005EA312E769122AEF0E903E8712E41E40F5
:10E6E0009E7E008059EE75F017A4F8AAF0EAF912A0
:10E6F000EA727003A3E0F46044747C28F87409396A
:10E70000F9E8240C129AB4F8740128F0901C1FE068
:10E71000C3985029EE75F017A4F8EAF9747C28F82C
:10E72000740939F9E812E75839F583E4F0E8240E62
:10E73000F582E439F583E412E769122AEF0E12E458
:10E740001B40A27A00EA12CF7B600214F00AEAC3EF
:10E75000940340F102C48EEE240FF582E42212E00D
:10E76000BFA3A3A3A3A3A3A32212E0B312CD742239
:10E7700074F1120D358A0A8B0BECFEEDFF750E005D
:10E780007A007B017508FE7509FF740F1216DE1200
:10E79000E0A28011121E05E50EF5F0EA84E5F0FA1C
:10E7A000750E007B007C00800712E8C312896C0C98
:10E7B00012E8CE505BEC75F017A4F8ADF0EDF9124D
:10E7C000EA727003A3E0F460E612E478650A70046C
:10E7D000A3E0650B60D912EA557003A3E06F60CF28
:10E7E00012E478650C7004A3E0650D60C212E8E8DD
:10E7F00060BDC3940850B8E0640760ADEB050E70CF
:10E80000AEE50EC39A40A8747C28F5827409807D19
:10E810007C00800712E90312896C0C903E8712E895
:10E82000D15072EC75F01CA4F8ADF0EDF912E8FED1
:10E8300064FE7003A3E0F460E112E8FE650A700470
:10E84000A3E0650B60D412E8FE6E7003A3E06F6076
:10E85000C912E8FE650C7004A3E0650D60BC12E807
:10E86000D860B7C3940850B212E8F3640160ABE01B
:10E87000640260A612E8D864076099EB050E709AEE
:10E88000E50EC39A4094743028F58274073DF583F1
:10E8900012CA01802BE50E6011EA700E7401650E3C
:10E8A000600302E7947A0102E7A074FE6508700431
:10E8B00074FF65096006AA08AB0980047AFE7BFF35
:10E8C00002E353747C28F582740939F58322903E63
:10E8D0008FE493F8ECC39822743928F582740712F8
:10E8E000E8E32239F583E022748A28F5827409125C
:10E8F000E8E322743428F582740712E8E32212E96F
:10E9000003E022743028F582740739F5832274F508
:10E91000120D358A088B09ECFEEDFF750A008002A6
:10E92000050A903E8FE493F8E50AC3985022EEFC66
:10E93000EFFDE50A12EA5A122063E960E3E50A7581
:10E94000F017A4F8A9F0747C28F582740912D8098C
:10E9500002B305E9F87907C3940D400479018019E1
:10E96000E8C3940740047903800FE8C3940340048C
:10E9700079058005E87002790002133174F0120DF8
:10E98000358A088B098C0A8D0B890C12301D8A0E72
:10E990008B0FAE0EAF0FEE4F60487C177D007900F5
:10E9A000121DF98E828F8312D97612EA0012D5BB1E
:10E9B000E50C600712B1BFE50C800312E9F3F0909B
:10E9C0001C24E06401700612E9E5E4800512E9E523
:10E9D000740712E3855001097A027B00120AEA12D9
:10E9E000E9F902ACD012E9E922EE240EF582E43F07
:10E9F000F5832212C91E740122EE12D719E8F02203
:10EA000012A6FCA32274F7120D35EAFEEBFF75087F
:10EA100000803AE50875F017A4F8A9F012EA5570DD
:10EA200003A3E06F601474FF6E700374FF6F701BBC
:10EA300012EA727003A3E0F4601112EA611227F582
:10EA4000E97008E50812E5B9123035050812E4D47A
:10EA500040C102B0A112E47C6E2275F017A4F8A99F
:10EA6000F0747E28FA740939FB22EC75F017A4F8CB
:10EA7000A9F012E47C64FE22C082C0837AFF7BFF8F
:10EA800012306B02C1DCC082C083901C5D747DF0CB
:10EA9000A37430F0901C5F7483F0A37430F0901C6A
:10EAA000617489F0A3743002AA3474F7120D35EA48
:10EAB000F8EBF9901B6712EAF3CA2406F582E43AF0
:10EAC000F583E0702B88828983A3A3A3A3A3A3A3C8
:10EAD000A3A3121148901B6712EAF81216A38882AA
:10EAE0008983A3E0F91229B174021213641229096F
:10EAF00002B0A1E0FAA3E02212EAF3F5838A8222AF
:10EB0000C082C083901C2712EBC4F0901C2712CB4C
:10EB10005070057901122FC302C1DC74F6120D3555
:10EB200074FC121447E9FE903E75E493700874E19A
:10EB30006E600302EBBFEA2408F8E43BF98882899F
:10EB40008312EBC412EBCD700E901C27E4F0A3F0FF
:10EB50007901122FC38068901E27E06062F8901C34
:10EB60002712CA01C3E89AE49B50547900122FC3BC
:10EB70008A088B09AC08AD09ECF8EDF9E875F0648A
:10EB8000A4F8AAF075F064E9A42AF9901C2712CA27
:10EB900001120AF2E8941AE994004023901A7912BB
:10EBA000CB50601B901C2712C83874021216DEEC82
:10EBB000F0A3ED12CB76901A7912DD0212361C7496
:10EBC0000402C48BE02401F0A3E034002212E0B37D
:10EBD00012D0EFE84922C082C08374F81214479023
:10EBE000828FAC18AD19740812128DAC18AD1912C1
:10EBF0002063E964017004790080027901740802DD
:10EC0000D12274F6120D35740C1216DE12B28A740B
:10EC10003A6E7001EF6006743B6E4F7023740A12F7
:10EC200016DE1211488C088D097808121387EAFC49
:10EC3000EBFDEEFAEFFB121F317404121364800235
:10EC4000790A02C48EC082C083901C6374AFF0A3A3
:10EC50007428F0901C6574B5F0A37428F0901E0F12
:10EC6000E064017032901C6774A7F0A37430F090D8
:10EC70001C6974ADF0A37430F0901C6B74B3F0A3F6
:10EC80007430F0901C6D74B9F0A37430F0901C6F68
:10EC900074A1F0A37430F0901C6712CB5060061280
:10ECA000C48512361C02C1DC74F4120D3574E612F0
:10ECB00014478A088B0974041216DE7402F00412D9
:10ECC0001421122F2D8A0A8B0BAE0AAF0BEE4F7058
:10ECD0000302EE3212EE80746012C94D12D988120E
:10ECE0002EA912D7D812B66512D97612BC017012AD
:10ECF000901BBCE0C0E012EE37D0E0F0901BBCE00F
:10ED000004F012EE537016901E04E0600D901BC7C5
:10ED1000E0700A8E828F83E0700312C90FAC18ADC9
:10ED200019EEFAEFFB122E858A088B09EA45097065
:10ED30000302EE2B7A217B00121EA174061216DE4E
:10ED400012CF9374061216DE12CB50700302EE241B
:10ED50007C217D00790074061216DEE0FA121DF99E
:10ED60007401121421795012274774011216DE1211
:10ED7000B76A74061216DE12EAF3CA2409F582E4B1
:10ED80003AF58312C843901BD012B76A7417121653
:10ED9000DE12C84374061216DE12B8E512EE59F000
:10EDA00074061216DE12AD94740212EEA6740612E8
:10EDB00016DE12EAF812C84374061216DE12EE8B43
:10EDC00012EEB1C0E074061216DE12B8E512EE695A
:10EDD000D0E0F0EE240E12EE41C0E074061216DE12
:10EDE00012EE72D0E0F074061216DE12B8E512B818
:10EDF000D412D80AEE240F12B764740C1216DE1265
:10EE0000C8438A828B83E0C0E0740E1216DED0E025
:10EE1000F07406121421122DFB74061216DE12CAAB
:10EE200001121EA7AA08AB09121EA7EEFAEFFB12E9
:10EE30001EA7741A02910BEE2414F582E43FF583A9
:10EE40002212EE46E022F8E43FF9E8FAE9FB8A8272
:10EE50008B832212BBA764012212EE6338F5837400
:10EE60000222EA240BF582E422241EF582E438F51E
:10EE7000832212EE762212B8E912E37F38F583225C
:10EE800012C82212C9377404F0A322E012EE95745E
:10EE900001F0A3E422F8A3E0C812EE9D22240DF5B0
:10EEA00082E438F5832212D72E12D0EF22E8F0A3A5
:10EEB000E912A550E02274F6120D357E0080187C10
:10EEC000047D0079FF8E088D09740278081215867A
:10EED00012F0F1121DF90E903E7612E41E40E0028F
:10EEE000C48E74F4120D3574F7121447750800803F
:10EEF0002285080A750B007402780A121586741BA5
:10EF0000250AF582740D12EF9324FFF0A3E034FF7D
:10EF1000F00508903E7612E4D7506D85080A750B0F
:10EF2000007402780A12158612EF8BF47003A3E0C6
:10EF3000F460DE85080A750B007402780A121586E3
:10EF4000741B250AF582740D350B12CB4E70A2741A
:10EF5000081216DE7402F085080A750B00780A1292
:10EF600015867419250AFE740D350BFF8E828F836A
:10EF700012C83812EF991227837C047D0079FFEEC6
:10EF8000FAEFFB121DF9808902AD8F7419250AF57D
:10EF900082740D350BF583E02212F10A2274EE1211
:10EFA0000D3574F7121447EAFEEBFF750CFF740879
:10EFB0001216DE12F0FC12277DE9641A700302F0CB
:10EFC0006F750E00741B1216DE780812166F800B18
:10EFD00074FF650C7003850E0C050E903E76E4936D
:10EFE000F8E50EC3985048850E107511007402782C
:10EFF0001012158612F073F47003A3E0F460D1854B
:10F000000E107511007402781012158612F0736ECE
:10F010007003A3E06F70C2750F007402780E1215B2
:10F0200086741B250EF582740D350FF5838030E450
:10F0300093650E702D74FF650C602E850C0E750F98
:10F04000007402780E1215867419250EF8740D35A9
:10F050000FF98882898312DB1688828983A3A31221
:10F06000D80C7901740902BEEC12EF99122783794A
:10F070000080F174192510F582740D3511F583E0C7
:10F080002274F4120D3574F7121447EAFEEBFF7484
:10F09000081216DE12F0FC122783750800800205A4
:10F0A00008903E7612E4D7504585080A750B007427
:10F0B00002780A12158612EF8BF47003A3E0F46055
:10F0C000DE85080A750B007402780A12158612EFA5
:10F0D0008B6E7003A3E06F70C67C047D0079FF8D9A
:10F0E000097402780812158612F0F1121DF902ADAA
:10F0F0008F74192508FA740D3509FB22740212A5C4
:10F1000050EEF0A3EFF012F10A22901BDD12B6319F
:10F11000AA18AB192274EE120D358A088B09ECFE81
:10F12000EDFF750A00EE65087003EF6509600C12CB
:10F130001F258A0C8B0DEA450D7006750A0102F138
:10F14000D1EEFAEFFB121F258A0E8B0FAC0EAD0F1E
:10F15000EC4D6007EEFAEFFB121F37E4F50EF50FEA
:10F16000780E121387AC0CAD0DEEFAEFFB121F1FD9
:10F170007402121364E96059AA0CAB0D121EA18A25
:10F180000E8B0FEA450F6046780E121387780C122B
:10F1900013877C007D00AA08AB09121F317404128A
:10F1A0001364E9701D780E121387780C1213877C94
:10F1B000007D00EEFAEFFB121F2B7404121364E9BA
:10F1C0006003750A01AA0EAB0F121EA78003750A11
:10F1D00010A90A02BEEF74F0120D35E9F83395E07C
:10F1E000F9E875F01AA4F8AAF075F01AE9A42AF95A
:10F1F000748A28F8740539F9E8FCE9FDE82407FE6B
:10F20000E43DFFEE2407F8E43F8808F5098882F51D
:10F2100083E0A2E7500302F2A4EE2405F8E43F885D
:10F220000AF50B8882F583E0FAEE2403F8E43F88C0
:10F230000EF50F74FF6A6003EA700A8882850F83F7
:10F2400012F51E805ED2F0850882850983E0A2E077
:10F2500030F001B3E433F8A2E0E054FE48F0A2E05D
:10F26000E433FAE0A2E65007E8A2E0B3E433FA8C14
:10F27000828983A3A3E0F91206C8850882850983E1
:10F28000E0A2E05008850A82850B8380048E828F7D
:10F2900083E0C0E012FA6FD0E0F0850E82850F8324
:10F2A00012F518F07F0802103CC082C083E9C454F4
:10F2B0000F5403F8E95407FC74B72CF582E4341DAD
:10F2C000F583E0FCF4FB740168700DEA6005EC4224
:10F2D000F48015EB52F48010740268700BEA60053C
:10F2E000EC42F58003EB52F58002E0F9D083D08246
:10F2F00002133174F7120D35EAFEEBFF8908EA12AA
:10F30000F869E5822406F8E43583F9FBE50860082E
:10F3100088828983E0F9800D7900A3A3A3A3A3E0E9
:10F3200088828B83F07C0112F8577F0102103C74B5
:10F33000EB120D3574FB121447E985188285198389
:10F34000F08A0E8B0FEA2407FEE4350FFFEE240748
:10F35000F508E43FF509D2F0850882F583E0A2E7DD
:10F3600030F001B3E433F50AEE2405F510E43FF57F
:10F3700011851882851983E0851082851183F0E557
:10F380000AA2E0500BE0F874FFC3988E828F83F0DE
:10F39000850882850983E0C2E0F08A828B83A38599
:10F3A0008212858313EC606C850882850983E0A254
:10F3B000E25061851882851983E0FA8E828F83A3DB
:10F3C000A3A3A3A3A3E0F9E4041216DEEAF0A3E9E1
:10F3D000F0A3E4F0A3F004121419880C890D780C42
:10F3E000121387750C04750D00780C1213877C00BE
:10F3F0007D00851282851383E0F50C7403780C126E
:10F400001586E50C2410FAE50D3404FB121F2B744D
:10F4100004121364EE2403F50CE43FF50DE50AA293
:10F42000E0501B851882851983E0C0E012FA6FD086
:10F43000E0F0850C82850D8312F51EF08016AC1865
:10F44000AD197900AA0EAB0F850C82850D8312FAD7
:10F450007412361C751400C200851082851183E079
:10F46000F8600874FF687005751401D200E50E2479
:10F4700002FEE4350FFF850882850983E0A2E5508E
:10F4800015E50AA2E0500FA200B3E433FA8E828F92
:10F4900083E0F9121FDF850882850983E0A2E65028
:10F4A00009E514A2E0B3E433F514E50AA2E0502420
:10F4B000AA148E828F83E0F91206C8A200500B8531
:10F4C0000882850983E0A2E5500A850C82850D83B8
:10F4D00012F518F0750801750900851282851383ED
:10F4E000E07808121586A808A9098510828511837D
:10F4F000E07011E8F4FAE9F4FB900588E05AF0A313
:10F50000E05B8009900588E048F0A3E049F07405CD
:10F510001213647F0D02103C12F524D2E42212F57E
:10F5200024C2E42212FA78E02274F7120D35EAFEC2
:10F53000EBFF7A00121CE5EE240FF8E43FF9E8FE39
:10F54000E9FF8882F58312F9C6EA4B600B121EA709
:10F550008E828F83E4F0A3F002F32A74EA120D3551
:10F560008A12EBFE8C148D15EA12F7E2EA2407F5F5
:10F5700082E43BF583A3A3A3A3A3E0F86E7008A9DC
:10F5800012121FF102F674E8FFEA240FF510E43BB3
:10F59000F511851082F583E0F8A3E0F9E8497012CF
:10F5A0007A0D7B00121EA1851082851183EAF0A3DB
:10F5B000EBF012F9C08F08E4F509F50AF50B90831A
:10F5C0004D780C12166F7808790C120BCE8A828B4C
:10F5D00083A37808121660EE8A828B83F012F7A557
:10F5E000EEC39F5007EFC39EF8E48006EEC39FF87A
:10F5F0007401F012F9C0AC14AD15EC4D600A74FF43
:10F600006C700374FF6D70047C017D008A828B83B3
:10F61000A3A3A3A3A3A3A3A3A3ECF0A3EDF0741649
:10F620001216DEE0C0E012F7D8D0E0F08808E4F56A
:10F6300009F50AF50B90834D780C12166F7808794E
:10F640000C120BCE8C0C8D0DE4F50EF50F780879AD
:10F650000C120CC68A828B83A3A3A3A3A3780812DF
:10F6600016609082D51211447A00A912121CD97426
:10F67000041213647F0E02103CC082C08312F7CACA
:10F68000C8240CF582E438F583E060168C828D8303
:10F69000E0F874FE68700474FF80067401687002FC
:10F6A000E4F002F2EC74EE120D3574FF1214478A86
:10F6B00010E9700302F79BEA75F01AA4F8A9F07438
:10F6C0008A28FE740539FFEE240FF582E43FF583A6
:10F6D00012F9C6EA4B700302F79BEA2409F8E43BEF
:10F6E000F98882F583E0FCA3E0FDEC4D600D888293
:10F6F0008983E024FFF0A3E034FFF088828983E06F
:10F70000F8A3E0F9E8498A828B83700512F9B78083
:10F7100051A3A3A3A3A3780812166F8A828B83A395
:10F72000AC82AD8312F7A5E08C828D8378086005EA
:10F730001215AC80031214D88C828D83780C1216AB
:10F740006F90834D780812166F780C7908120CC6EA
:10F75000851882851983E50CF0F88A828B83E0682E
:10F760007016AC18AD19EEFAEFFB121FFDEEFAEFB2
:10F77000FBA910121FF180129082D51211447A0059
:10F78000A910121CD974041213647C018518828597
:10F790001983E0F9EEFAEFFB121FEB740112136408
:10F7A0007F0A02103CEA240BF582E43BF58322C079
:10F7B00082C083E912F7E212F7CA8882F583E582F4
:10F7C0004583700312F7D802F2EAEA240FF582E4C7
:10F7D0003BF583E0F8A3E022EA240CF582E43BF554
:10F7E000832275F01AA4F8A9F0748A28FA740539EE
:10F7F000FB2274F6120D358909E975F01AA4F8A9EF
:10F80000F0748A28FE740539FFEE12F869A3A3A3E9
:10F81000A3A3E0FA74FF6A70057508008022EAF875
:10F8200074FFC398F895E0F9C3E89414E99400A232
:10F83000D265D03350057508FF800574142AF50889
:10F84000EEFAEFFBA909121FF17C01A908EEFA12EA
:10F85000F8577F0202103CEFFB121FEB7A018E82F9
:10F860008F83A3E0F9121C8B222407F582E43FF575
:10F87000832274EE120D3574FB1214478B0AE9755E
:10F88000F01AA4F8A9F0748A28F510740539F51156
:10F89000E5102407FEE43511FFEB700302F947EE93
:10F8A0002405F508E43FF50974171216DEE0F8A305
:10F8B000E0F974191216DE12F9C67402650A6003C3
:10F8C00002F94B74086C4D700EE849600302F9B000
:10F8D0008A828B83E0803F740C6C4D600302F9B028
:10F8E00074556849600302F9B08A0C8B0D750E00DF
:10F8F000780C1213837C047D00EC121421121DED90
:10F90000740312136474011216DE780C12166F78E9
:10F910000C120A22E50CF98E828F83A3A3A3A3A362
:10F92000A3A3E0A2E15017850882850983E0700E49
:10F93000E98E828F83A3A3A3A3A3A3F080097C01F4
:10F94000AA10AB11121FEB790180677455684970DA
:10F950003E850882850983E0F50CE4F50DF50EF58A
:10F960000F780C120C6974011216DE780C121660F6
:10F970007401121419880C890D750E00780C12137D
:10F98000837C047D00121DED740312136480B8E8BB
:10F9900049701D85088285098312F9B7A818A9192D
:10F9A000880C890D750E00780C1213837C0180D3AE
:10F9B0007900740502F79DE0851882851983F0228D
:10F9C000851082851183E0FAA3E0FB2274F4120D06
:10F9D00035E9FE7901121D09EA4B70067A007B00B9
:10F9E0008028EE12FA0FE0F508E4F509F50AF50BA8
:10F9F0007808120C698A828B83A378081216608AB1
:10FA0000828B83A3A3A3A3A3E4F07F0402103C751D
:10FA1000F01AA4F8A9F0749628F582740539F583D4
:10FA20002274F7120D35E9FF8A087A007B007E0008
:10FA300080010E90065AE0F8EEC398502FEE12F7B0
:10FA4000E28A82F583E0547F650870E6A3E06F7078
:10FA5000E174091216DE12FA74EEF012F7D8E060C3
:10FA6000047401800274008C828D83F002F32A8E6C
:10FA7000828F83A312FA7822E0F8A3E0F5838882CC
:10FA80002274E8120D3574FA121447EB851882853A
:10FA90001983F089178A1690065AE075F01AA4F8AF
:10FAA000A9F0748A28F512740539F513EAF50C7576
:10FAB0000D0074782AF582E43405F583E0FE8512A2
:10FAC00082851383A3EAF0EE851282851383A3A3B4
:10FAD000F0747F5517F8851282851383E0548048AF
:10FAE000F0A3A3A3A3A3A3E4F0E5122415F582E4F5
:10FAF0003513F5837403F0A37420F0E5122413F595
:10FB000082E43513F583741BF0A37420F0E512240E
:10FB100017F582E43513F5837403F0E5122418F524
:10FB200082E43513F5837415F0A37420F0E51224F4
:10FB30000FF582E43513F583E4F0A3F0E512240712
:10FB4000F514E43513F51574802AF582E43405F5CF
:10FB500083E0851282851383A3A3A3F07508017542
:10FB60000900EA780812158685080A85090B908035
:10FB70002B12FFCF600C90803312FFCF600478010E
:10FB800080027800E5142407F508E43515F509E846
:10FB9000C333F8850882850983E054FD4812FFC20B
:10FBA00074FF12FFC2A312FFB0C0E074051216DE8C
:10FBB000D0E0F0EEA2E65004D2F08002C2F0A2F053
:10FBC000E433F8A2E0E433C43333F9E0A2E0E433F1
:10FBD0003333F8850882850983E054BA4849F0EE4A
:10FBE000543FFE74196517600A741A65176004782B
:10FBF0000180027800E8A2E0E4331313F8E0547FB8
:10FC00004812FFB0700302FCAE74011216DEE4F07D
:10FC1000A3F0A3F0A3F07403780C121586E50C246E
:10FC200010F8E50D3404880CF50D740112141988D0
:10FC300010891178101213877C047D00850C1085C3
:10FC40000D11AA10AB11121F1F7402121364E97078
:10FC50005D740112141988108911781012138775B8
:10FC6000100475110078101213877C007D00AA0C17
:10FC7000AB0D121F317404121364E9703174011258
:10FC800016DE780C12166F851482851583A3A3A344
:10FC9000A3A3E50CF074011216DE780C12166FE5C2
:10FCA0000D851482851583A3A3A3A3A3A3F08508C0
:10FCB00082850983E0A2E1501590058812FFCF707C
:10FCC0000D851482851583A3A3A3A3A3E4F074195F
:10FCD0006517700575100180037510007F00850899
:10FCE00082850983E0A2E7500302FF5D750B007572
:10FCF0001107750A00851282851383A3A3A3E0FA76
:10FD0000EEF9120591E510A2E04033901DD312FFE9
:10FD1000DB50047E138022901DD512FFDB50047E41
:10FD2000108016901DD412FFDB50047E14800A90C0
:10FD30001DD612FFDB50027E11751103801385085A
:10FD400082850983E0A2E65005750A288003750ABA
:10FD50003074011216DEE4F0A3F0A3F0A3F0041255
:10FD600014297A01A916121CF1E960157401121602
:10FD7000DE780C12166FE50CF8E511C39840028886
:10FD80000B7407C3950BC43354E0F50B85148285BF
:10FD90001583A3A882A983E5142403FAE43515FB8F
:10FDA0007404450AF50A74136E603274146E602F81
:10FDB00074166E602874176E602574106E700302DE
:10FDC000FE9F74116E700302FEA174206E70030218
:10FDD000FE9F74236E700302FEA102FFA67F0185C1
:10FDE0000882850983E0D2E3F08A828B8374CB1288
:10FDF000FFB950047ACD80027ACF7B7088828983E4
:10FE0000EAF0A3EBF074136E600574146E70055382
:10FE1000F1DF800343F12043F52043FFC0E510A24A
:10FE2000E050077A01EEF9121FDF53CBEF43CB040A
:10FE300053CBF7E510A2E053CBFC400343CB09EFD3
:10FE4000A2E0E510500EA2E05005850ACC801175A5
:10FE5000CC44800CA2E05005850ACE800375CE44C8
:10FE600053CB1FE50B42CBEFA2E0500575CDFF80D1
:10FE70000375CFFF43CB10E510A2E04002D2BB8553
:10FE80000882850983E0A2E3EF400302FF4CA2E071
:10FE900090065AE0400302FF47901DD302FF5C7FAB
:10FEA00001850882850983E0C2E3F08A828B83742E
:10FEB000EB12FFB950047AED80027AEF7B708882F2
:10FEC0008983EAF0A3EBF074106E600574116E7014
:10FED0000553F1EF800343F11043F51043FFC0E5F4
:10FEE00010A2E050077A01EEF9121FDF53EBEF4347
:10FEF000EB0453EBF7E510A2E053EBFC400343EBBC
:10FF000009EFA2E0E510500EA2E05005850AEC8052
:10FF10001175EC44800CA2E05005850AEE80037553
:10FF2000EE4453EB1FE50B42EBEFA2E0500575EDFD
:10FF3000FF800375EFFF43EB10E510A2E0500302D2
:10FF4000FE7FD2BC02FE7F901DD48010A2E09006FE
:10FF50005AE05005901DD58003901DD6F0E510C4E1
:10FF60003354E0F8EFC454F0F9850882850983E042
:10FF700054CF4948F0851282851383E0D2E7F0859B
:10FF80000882850983E0A2E740167C0085148285FB
:10FF90001583A3A3A3A3A3E0F9AA12AB13121FEB2B
:10FFA00090065AE004F074061213647F1002103CAD
:10FFB000F0851882851983E022F0A37470F0EFA217
:10FFC000E022F0851482851583A3A3A3A3A322E0D6
:10FFD000550AF8A3E0550BF9E84922E0C39400A2C2
:10FFE000D265D03322C082C0837A007900121A1BF6
:0DFFF0009061967406F0D083D08202133128
:020000040001F9
:10000000C082C083790012CCDBC082C083901B63A6
:1000100012C58FD083D082C3E09CA3E09D500DEA2F
:10002000240B12804F12802F60027901029CFFEA9C
:1000300075F00BA4FAA8F075F00BEBA428FB901B4D
:1000400065E02AF8A3E03B8882F583E0540F22F5AF
:1000500082E43B12B7CF2274F7120D35890812AE35
:10006000DE1283B7ACF075F00BE9A42CF9901B6598
:10007000E028F8A3E039F9E8FEE9FF7401650860BB
:10008000067402650870228A828B8312856D740261
:1000900065087021EA2403FA50010B1227F5E97074
:1000A000148E828F83E4F0800CEA2403FCE43B127C
:1000B00085641227EF8E828F83E0D2E7F01223E768
:1000C00002AAE174F4120D3512863E79008E828FF9
:1000D00083E06078890A890B8063E50A75F00BA4D8
:1000E000FAA8F075F00BE50B12803B7048E50A7535
:1000F000F00BA4F8AAF075F00BE50B1285818E8247
:100100008F83E085088285098312A3CF1284E2EEF3
:100110002403FCE43F1281FA1227EF12ACE2E50A55
:10012000F0A3E50B129B43D2E7F01223E77901908D
:100130001B6312943B050AE50A7002050B901B63D2
:1001400012BED2C3E50A9AE50B9B408E029B4D740A
:10015000F5120D35EAFEEBFF750A01740B1216DE7F
:1001600012C9ECEC4D6015EC12BB9C3D12864C792B
:10017000011227D7E508450960758023E508450980
:10018000604412BB9A350912864C1281FB1227F586
:10019000E96401701BEEFAEFFB1227DDE9F50A8531
:1001A00008828509831284DA7902AA08AB098011D2
:1001B0001285651227F5E9640170347903EEFAEFD0
:1001C000FB1227D780298E828F83A3E064FE700301
:1001D000A3E0F4700B1285651227F5E96401700C39
:1001E000EEFAEFFB1227DDE9F50A8003750A00023B
:1001F0008CCBE50A2403FCE4350BFDE5082403FA67
:10020000E43509FB2274F7120D35901B6312AE1210
:10021000EA4B602FEA75F00BA4FAA8F075F00BEB2F
:10022000A428FBEAFEEBFF121EA1901B6512AE1282
:10023000901B6512AC316012EEFCEFFD7900121DCF
:10024000F98007901B65E4F0A3F002AAE1C082C028
:1002500083EC4D600512206980097C087D007900DF
:10026000121DF9029CFFC082C0837900EA4B601620
:100270007800E8FCEA2C12AEEA60047901780808FC
:10028000E8C3940840EC029CFFC082C0837901EC73
:100290006A7002ED6B6011EA4B600BEC4D60071267
:1002A0002063E9F980027900029CFF74F7120D3592
:1002B00074F3121447ECFEEDFF851882851983E470
:1002C000F0041216DEEAF0A3EB12B18212281974C0
:1002D000031216DEAC82AD83EEFAEFFB1227EFEECF
:1002E000FAEFFB1227F502AADC74F7120D3574F34E
:1002F000121447ECFEEDFF851882851983E4F0EABD
:10030000FCEBFD74031216DEAA82AB831227EFAA60
:1003100018AB1912281F74011216DE12A3E08E8288
:100320008F8312ADCE74FE68700374FF6960047928
:10033000018002790002AADC74F7120D35EAFEEBA7
:10034000FF1227D1E9F5087401650870111283A224
:10035000F4FA88828983E05A4480F01223E7A908DE
:1003600002AAE174F7120D35EAFEEBFF7508008E64
:10037000828F83E0602A1227D1E9F50874016508AD
:10038000701E1283A2FA88828983E05A70128E82CC
:100390008F83E04480FA88828983E04AF01223E761
:1003A00080BC12AB8FF81283B7128759F8A3E039DB
:1003B000F98E828F83E022A3E0F9E875F00BA4F8B0
:1003C0002274F4120D358A088B097C007D00EA1234
:1003D00081FD1227EFE5081284FC790085088285EB
:1003E0000983A3E064FE7003A3E0F460787E007FDD
:1003F000008065EEFAEFFB12802F6057EEFAEFFBFC
:10040000EA75F00BA4FAA8F075F00BEBA428FB90AA
:100410001B65E02AF50AA3E03BF50B8508828509F8
:100420008312BED1850A82850B83A3E06A7003A381
:10043000E06B701FE50A2403FAE4350BFB1227F585
:10044000E9640170061281F21227EF1284F179013A
:1004500012C6F60EEE70010F901B6312BED2C3EEF1
:100460009AEF9B408E029B4D74F3120D358A088BD8
:10047000098A828B831284DAEA1284FC750C00EA02
:100480001281FD1227F5E9640170477E007F00802C
:100490003C12874BFAA3E0398A82F583E0540F605F
:1004A0002712874BF50AA3E039F50B1281F21220CF
:1004B00063E964017012850A82850B831284E2125B
:1004C00084F1750C0112C6F60EEE70010F128768EA
:1004D00040BFA90C7F0502103CA3A374FEF0A30447
:1004E000F022A312AACD850882850983A312A0FF5A
:1004F00022E508128506EEF0A3EFF02212850674BD
:10050000FEF0A304F022240BF582E43509F58322E2
:1005100074F5120D35EAFEEBFF8E828F831284DABA
:100520007C007D001285651227EFEEFAEFFB1227A3
:10053000D1E9F50A7401650A702712AAC6128575F9
:10054000850882F58312856D1281FB1227F5E96417
:1005500001700EE5082403FCE435091285641227B6
:10056000EF028CCBFDEE2403FAE43FFB22A312BE84
:10057000E012A0FF22E875F00BA4F8AAF075F00BCA
:10058000E912875FF508A3E039F5092274F2120D2C
:100590003574E612144712863E750A017508007517
:1005A0000900750C00750D00851882851983E4F02B
:1005B000EE2403FCE43FFD74031216DEAA82AB8333
:1005C0001227EFAA18AB1912281FE96401701F74D3
:1005D0000B1216DE12864E74011216DE12BEDA708F
:1005E00003A3E069604AA818A91988088909740D4D
:1005F0001216DE12A3CEA312A3E0740E1216DE12A0
:10060000ADCE740D121421122819E9640170097419
:100610000D121419880C890D780C121387AC08ADD3
:1006200009EEFAEFFB1227E37402121364E9F50AEC
:10063000EEFAEFFB122813A90A741A02ACF4EAFED0
:10064000EBFF12ACE674FEF0A304F022F58312BEB9
:10065000C0F912ACE612A0FF22C082C083780079F4
:1006600000800508E8700109901B63129850E99B0F
:100670005029E8FAE9FBEA75F00BA4FAACF075F042
:100680000BEBA42CFB901B65E02AFCA3E03B8C82C7
:10069000F583E0540F70CC790080027901029CFF51
:1006A00074F6120D357E007F008039EEF8EFF912F6
:1006B0008575780812138775080B7509007808127C
:1006C0001387EEFCEFFDEC75F00BA4FC75F00BED61
:1006D000A42AFD7A237B00121F3174041213640EC6
:1006E000EE70010F12876840C2028BE374F6120DA0
:1006F000357E007F00804C12874BF8A3E039F988E3
:10070000828983E0A2E75036C2E7F08582088583BC
:1007100009780812138775080B75090078081213F9
:1007200087EEFCEFFDEC75F00BA4FC75F00BEDA46F
:100730002AFD7A237B00121F2B74041213640EEE21
:1007400070010F12876840AF028BE3EEF8EFF9E813
:1007500075F00BA4F812875922AAF075F00BE9A4E2
:100760002AF9901B65E02822901B6312AACDC3EEE4
:1007700098EF992274F6120D35E4F508F50978081A
:10078000121387901B6312943675F00BA4FCA8F02B
:1007900075F00BEDA428FD7A237B00121F1F740255
:1007A000121364E9FE600312284902C3EB74F612C7
:1007B0000D3574FF1214477E007F00803C8518823F
:1007C000851983E412919E1213877508017509003B
:1007D0007808121387EEFCEFFDEC75F00BA4FCA873
:1007E000F075F00BEDA428FD7A237B00121F2B740B
:1007F000041213640EEE70010F12876840BF74017B
:10080000028BE0C082C083903E87E49375F01CA405
:10081000FCADF079FF7A307B07121DF9029CFF7462
:10082000F7120D35E9FCEAFD7A007B008010EB122F
:100830008E799C4008E0F8EDC39840010A0B903E89
:1008400087E493F8EBC39840E57B0002AAE174ECDF
:10085000120D3574F31214478A0C8B0D8C088D0918
:10086000890AEC45096016AA08AB0912287F8A0E8E
:100870008B0FAE0EAF0FEE4F600302894C7A0080F3
:10088000010A903E8712BE17500F128A4170F2740F
:100890003028FE740739FF80047E007F00EE4F7021
:1008A000030289F5903E66128A1260257403650A78
:1008B00060067404650A70197A0479031228558A4F
:1008C0000E8B0F903E87E493F8903E66128A2B5071
:1008D0002D903E64128A12602C7401650A600674C1
:1008E00002650A70207A0279011228558A0E8B0F50
:1008F000903E87E493F8903E64128A2B40077A007A
:100900007B00028A0D8518828519837401F0121606
:10091000DEE50CF0A3E50DF0AC08AD09740312168A
:10092000DEAA82AB831227EFAA18AB1912282B7408
:100930000B1216DE12A0F88E828F83A3A3A3A3A3AB
:10094000A3E412C58BAA0CAB0D1230297800E50A7E
:100950006007C39405500278048E828F83E50CF003
:10096000A3E50D128D3CA3A3E50AF0E88E828F83E8
:10097000A3A3A3A3A312C19D5001097A027B001275
:100980000AEA12982BA3129C96129857E50A605B0C
:10099000C394035056901E10E07018903D3B780CA5
:1009A00012153A129802121660903D3B780C1215FF
:1009B0003A8027F508750900740278081215861226
:1009C0008A1C12153A9083CD781012166F780C7924
:1009D00010120BCE129802121660EE241312980514
:1009E000121660EE241B12C194800912980E128414
:1009F000DDA3F0A3F07A047900122855128D2D4062
:100A000005901E3BE4F0122EF7EEFAEFFB740D0298
:100A10009F05E493F8740193F9E84922743B250893
:100A2000F582743D3509F583780C22E493FA74015C
:100A300093FBE8C39AF8E49BF9C3E50E98E50F9998
:100A400022EA128A47F42275F01CA4F8A9F0743443
:100A500028F582740739F583E02274EE120D35749F
:100A6000F3121447EAFEEBFF8C108D11750800AAF3
:100A700010AB1112287FEA4B7003028B758A828BB0
:100A800083E06E7003A3E06F7003028B758A828B24
:100A900083A3A3A3A3E0C394054003028B758A82BA
:100AA0008B8312C6E4E060728A828B83A3A3A3A324
:100AB000E0C394035064901E10E07021903D3B7899
:100AC0000812153A128B7C121660903D3B78081282
:100AD000153AEA2413128B7F1216608030F50875E0
:100AE000090074027808121586128A1C12153A90B1
:100AF00083CD780812166F780C7908120BCE129AF3
:100B00002C121660EA2413129A2F121660EA241B84
:100B1000F582E43BF583E4F0801B7508FE7509FF60
:100B2000750AFF750BFF128B7C121660EA241312F4
:100B30008B7F121660750800750900750A00750B29
:100B400000EA240C128B7F121660851882851983A7
:100B50007401F01216DEEEF0A3EFF0AC10AD1174DC
:100B6000031216DEAA82AB831227EFAA18AB191262
:100B7000282B750801A908740D02C6DCEA2417F5B4
:100B800082E43BF58378082274F6120D3512287939
:100B90008A088B09A808A909E84960148882898312
:100BA000A3A3A3A3E06009C39405500479018002C4
:100BB0007900802F74F6120D351228798A088B0976
:100BC000A808A909E849601488828983A3A3A3A37C
:100BD000E06009C394035004790180027900800326
:100BE0001213647F0202103C74F6120D351228793C
:100BF0008A828B83E5824583600BA3A3A3A3E07065
:100C00000479018002790080DAC082C083EAFCEBBB
:100C1000FD7A007B00029CFCC082C0837C007D00CA
:100C2000029CFC74F5120D3574F3121447EAFEEBC6
:100C3000FF8C088D09C3EC94F8ED94FF4004EE4F4F
:100C40006065750A00801974FF6508700474FF659B
:100C500009600B12CCD57004A3E06509603B050A5E
:100C6000903E87E493F8E50AC398503BE50A128A60
:100C70004260EBEE4F60D0128CB21216DE12B17EE3
:100C8000122825E960D874031216DEAC82AD83EE1B
:100C9000FAEFFB122063E960C5E50A75F01CA4F8C1
:100CA000A9F0128E7080047A007B00740D12136418
:100CB000801B8518828519837401F0743228F582AF
:100CC000740739F58312AACD740B22A90A7F030297
:100CD000103C74F4120D3574F312144775080012A9
:100CE000287F8A0A8B0BAE0AAF0BEE4F6025851862
:100CF00082851983128D3A128CC51216DE12B17ECE
:100D000012280D7C1C7D0079FFEEFAEFFB121DF915
:100D10007508017A047900122855128D2D5009901A
:100D20001E3B7401F0122EF7A908029B48903E87E3
:100D3000E493F8C3EA98EB940022740112A3D3A3BE
:100D4000A32274F7120D35E9FE74FE6A700374FF76
:100D50006B7C00700380240C128DA5501EEC128A4F
:100D60004260F4128F3F7003A3E06B70EA800BECDB
:100D7000128DBA6019E0640360140C128DA5501E28
:100D8000EE60ECEC128DAF60F1C3940550ECEC75A5
:100D9000F01CA4FCADF012D24B12BED280047AFE3D
:100DA0007BFF02AAE1903E87E493F8ECC39822759A
:100DB000F01CA4F8A9F0128A4E2275F01CA4F8A920
:100DC000F0128A4E640122122891029CFFC082C058
:100DD00083790180F274F0120D358A0A8B0B7A0444
:100DE00079011228558A0C8B0DEA450D6040EA2ADC
:100DF000FAEB33FB121EA18A088B09AE08AF09EE8D
:100E00004F60267AFE7BFF12289774FE6A70037487
:100E1000FF6B601E85088285098312AE12E50824E7
:100E200002F50850E2050980DE750C0080047E00A2
:100E30007F00850A82850B83E50CF0EEFAEFFB025A
:100E40009106C082C0837C008009EA24FF1AEB343B
:100E5000FFFB0C128DA55011EC128E79940550F207
:100E6000EA4B70E6128E7080047A007B00029CFFD1
:100E7000743028FA740739FB22128A47C32274F7A8
:100E8000120D3574F31214477E00807DEF75F01754
:100E9000A4F8A9F0128F3012BED2EE75F01CA4F89F
:100EA000A9F0128F3F7003A3E06B603DEF75F01760
:100EB000A4F8AAF0EAF9128F3012A3E07401121616
:100EC000DEE0687003A3E069601FEF75F017A4F817
:100ED000EAF9747E28FC740939FD74031216DEAA3F
:100EE00082AB83122063E96013EF75F017A4F8A9B1
:100EF000F0747C28FA740939FB1230350F903E8F5C
:100F0000E493F8EFC39840840E12D238501FEE12CB
:100F1000D7ACF47003A3E0F460EE128CB21216DECC
:100F200012B17E122825E960DF7F0080D002AADCA2
:100F3000128F3422747C28F582740939F5832212C9
:100F4000D7B76A2274F4120D3574F31214477E0079
:100F50008038908321780812166FEE75F01CA4F883
:100F6000A9F0744328F582740739F58378081214C0
:100F7000876016908335780812166FEE75F01CA402
:100F8000F812900C78081215AC0E12D238507AEE86
:100F9000128DAF60F4C3940350EF12900C1216C779
:100FA000E8494A4B70AC901E0FE06401702D901C14
:100FB0006B12AC316025EE75F01CA4F8A9F074300A
:100FC00028F8740739F912906212114488828983D3
:100FD0001290F712361C7404121364851882851956
:100FE000837401F0EE75F01CA4F8A9F0128CBB120A
:100FF00016DE12B17E122825E9608E74031216DE09
:10100000AA82AB8312288B8080029B48744728F504
:1010100082740739F5832274F6120D351228798A05
:10102000088B09A808A909E849603288828983A346
:10103000A3A3A3E06023C39403501E129062121670
:101040008BE82417F582E439F5831216BBE8241BDC
:10105000F582E439F5837401F079018002790002A8
:101060008BE3E82413F582E439F5832274F0120D42
:1010700035EAFEEBFF901C6512AC316072901C6B80
:1010800012AC31606A901C6F12AC31606212D0C435
:1010900012361CE97059901E10E0700A903D3B78A2
:1010A0000812153A8028F5087509007402780812AC
:1010B000158612D2A6743D12D0A5780812153A9062
:1010C00083CD780C12166F7808790C120BCE780845
:1010D00012137F1290F112361C7404121364E96427
:1010E00001700C8E828F83A3A312D0B212361C80A3
:1010F000158E828F83A3A312B7D1901C6B12D0BC24
:1011000022740D1213647F0802103C74F6120D3520
:10111000E4F508F5097808121387903E87E493F503
:101120000874037808121586129428121F1F74027F
:10113000121364E9FE740A6E6025E4F508F5097877
:1011400008121387903E87E49375F005A4FCADF078
:101150007A3F7B00121F1F7402121364EE600312A9
:1011600028C702C3EB74F6120D3574FE12144785BE
:101170001882851983E4F0A312919E1213877508D3
:101180000275090078081213877C007D007A227BA3
:1011900000121F2B74041213647402028BE0F0A877
:1011A00018A9198808890978082274EE120D357477
:1011B000DE1214478A0E8B0F8C088D09750C007A8D
:1011C000227B00121F258A0A8B0B7A3F7B00121F9D
:1011D000258A108B11AE10AF11E50A450B6017E59B
:1011E00008650A7004E509650B600BAC0AAD0B7A63
:1011F000227B00121F3774361216DE12943BEE4F1C
:101200006015E50A6E7003E50B6F600BEEFCEFFDF9
:101210007A3F7B00121F37E4F510F5117810121396
:1012200087AC08AD097A227B00121F1F74021213CB
:1012300064E9640A700302941EE4F508F50978086D
:10124000121387AC0AAD0B7A3F7B00121F1F74028A
:10125000121364E9640A700302941E7404121419D0
:1012600088088909780812138775080275090078BB
:10127000081213877C007D007A017B03121F3174F2
:1012800004121364E9600302941E85188285198391
:10129000E4F0A3F07E0002939574061214198808F6
:1012A00089097808121387750808750900780812EB
:1012B00013878E0874037808121586E5082402FC4B
:1012C000E43509FD7A017B03121F317404121364A3
:1012D000E9600302941E74081216DEE0F47003A3A2
:1012E000E0F47003029394740612141988088909B3
:1012F0007808121387750808750900780812138793
:1013000074041216DE12C9EC7403780812158612E2
:101310009428121F2B7404121364E9600302941EB4
:10132000740212141988088909780812138775083D
:10133000057509007808121387EE75F005A4FCAD59
:10134000F07A027B03121F317404121364E97041B6
:10135000740212141988088909780812138775080D
:1013600005750900780812138774041216DE1294AA
:101370003675F005A4FCA8F075F005EDA428FD7AFB
:101380003F7B00121F2B7404121364E96003029464
:101390001E1299440E851882851983C082C08390DD
:1013A0003E87E493F8D083D082C3E098A3E0940012
:1013B0005021851882851983C082C0837404121657
:1013C000DE12A3E0D083D082C3E098A3E09950035B
:1013D000029299A818A91988088909780812138710
:1013E00075080275090078081213877C007D007A61
:1013F000227B00121F2B7404121364E97020AC0EC0
:10140000AD0F7A017B03121F37E970127434121684
:10141000DE12C58F7A027B03121F37E96003750C59
:1014200001A90C742202C6DCE5082402FCE435099B
:10143000FD7A227B002212C593EC22E0F50AA3E09C
:10144000F50B2274EC120D3574FE121447750A0068
:10145000851882851983E4F0A3F0903E8793F50EFA
:10146000F50875090074037808121586E50824024A
:10147000F50850020509E50E75F005A4F50EE5F036
:10148000F50F7A227B00121F258A0C8B0DAE0CAF54
:101490000D7A3F7B00121F258A108B11A818A919FD
:1014A000880C890D780C121387750C02750D007865
:1014B0000C1213877C007D007A227B00121F31748E
:1014C000041213647A017B03121F258A0C8B0D7A98
:1014D000027B03121F258A128B13A812A913E50C95
:1014E000450D700AE5086E7003E5096F7025E8493F
:1014F000700CE50E65107004E50F65117015E50CB4
:10150000450D607BEE4F604E85188285198312AEC3
:101510001860437C017D037A227B001230BFE9F81A
:10152000880A705B7C027D037A3F7B001230BFE942
:10153000F8880A704AEEFCEFFD7A227B00121F3712
:10154000E9700EAC10AD117A3F7B00121F37E960D5
:1015500011750A018029AE0CAF0DE84960048810AE
:101560008911780E1213877810121387AC08AD0911
:10157000EEFAEFFB1228CD7404121364E9F50AA900
:101580000A7402029F0574EC120D3574D0121447D0
:10159000851882851983E4F0A3F01228D3E960034B
:1015A0000297EAA818A919880889097808121387E8
:1015B00075080275090078081213877C007D007A8F
:1015C000227B00121F317404121364E96003029736
:1015D000EA903E87E493F885188285198312985023
:1015E000E49B50030297EA750A00750B007508002A
:1015F000803D74031216DE1216C71298211216AF20
:1016000074031216DE1216C712A6EF1216AFEE24DE
:101610001BF582E43FF583E4F07A04790012285543
:10162000128D2D4005901E3BE4F0122EF705081296
:1016300097F740030297EA12A3DAC3E50A98E50B8D
:101640009940030297EA7414121419880C890D78D2
:101650000C121387750C08750D00780C1213878512
:10166000080C7403780C121586E50C2402FCE43592
:101670000DFD7A227B00121F317404121364E9708D
:10168000AC74161216DEE0F47003A3E0F4609E055D
:101690000AE50A7002050B74071216DE7401F07475
:1016A000161216DE12A3E074121216DE12ADCE74FC
:1016B00007121421122825E9700302962D12C58CF9
:1016C00074141216DE12BED2123029E50875F01C11
:1016D000A4F8A9F0743028FE740739FF74141214AA
:1016E00019880C890D750E00780C1213837C087D07
:1016F00000EEFAEFFB121DED740312136412C1A287
:101700005001097A027B00120AEA12982B129857AC
:101710007402121419880C890D780C121387750C39
:1017200005750D00780C121387E50875F005A4FC0B
:10173000ADF07A3F7B00121F317404121364E9602C
:1017400003029619908335780C12166F74031216E3
:10175000DE780C12148760030295F2E50875F01C20
:10176000A4F8AAF0EAF9128DB66071C39403506C24
:10177000901E10E07018903D3B780C12153A1298AC
:1017800002121660903D3B780C12153A8033F50C2E
:10179000750D007402780C121586743B250CF582C9
:1017A000743D12B79F780C12153A9083CD781012C1
:1017B000166F780C7910120BCEEAF91298021216F5
:1017C00060EE2413129805121660E50875F01CA44B
:1017D000F8744B28F58274073902961512980E0496
:1017E000141284DDA3F0A30296188518828519834C
:1017F000E0F97430029F05903E87E493F8E508C352
:101800009822EE2417F582E43FF583780C22129893
:101810002174FEF0A304F0A3F0A3F012A6F374FE6B
:1018200022EE2417F582E43FF58322E88E828F832F
:10183000A3A3A3A3A3A3A3A312AAA1740112AAA161
:10184000A374AAF0EE2410F582E43FF583E4F022BD
:1018500012B7D1C3E89A22A3F012ACE6E4F0EE246A
:101860000CF582E43FF583E4F0A3F0A3F0A3F022AB
:1018700074F2120D3574FE1214478518828519838F
:10188000E4F0A3F075080002990FE50875F01CA4B8
:10189000F8A9F0743028F50C740739F50DAE087806
:1018A0000C121387750A08750B00780A1213878EBD
:1018B0000A7403780A121586E50A2402FCE4350B43
:1018C000FD7A227B00121F2B7404121364E50C2492
:1018D00012F50AE4350DF50B780A121387750A051F
:1018E000750B00780A121387EE75F005A4FCADF0B5
:1018F0007A3F7B00121F2B7404121364850C8285BF
:101900000D83A3A3A3A3E0F4600312994405081276
:1019100097F7500302988AA818A9198808890978A6
:101920000812138775080275090078081213877C5E
:10193000007D007A227B00121F2B74041213647442
:101940000202ACF4851882851983E02401F0A3E03B
:101950003400F02274F0120D3574F3121447EAFECD
:10196000EBFF7A027901122855EA8E828F83F0709C
:1019700003029A1F75F00CA4FAABF0121EA18A089C
:101980008B09EA45097003029A25AE08AF09750A6A
:1019900000801C908335121144EEFAEFFB121E7783
:1019A00074041213648A0C8B0DAE0CAF0D050A90F3
:1019B0003E87E493F8E50AC398506AE50A128DBAA7
:1019C0006005E0640270E6128CB21216DE12B17E7F
:1019D000122825E9601874031216DEAC82AD83EE7E
:1019E000FAEFFB1220698A0C8B0DAE0CAF0DE50AE5
:1019F00075F01CA4F8A9F0744B28F582740712CF77
:101A0000236401708E128E70EA2413129A2F12161C
:101A10006F129A2C121401780C12137F0299997587
:101A20000800750900AA08AB09029101EA2417F51C
:101A300082E43BF583780C22C082C083901B7274D1
:101A4000B9F0A3742DF0029CFF74F7120D35EAFE75
:101A5000EBFF901BDFE06408601FE06404601A8EF7
:101A6000828F83E054036401704412AB8BF8A3E0CF
:101A7000F5838882E0640670358E828F83A3A3E0AD
:101A800064FE7003A3E0F460258E828F83A3A3120B
:101A9000C59C7003A3E0697008EE241512C583602D
:101AA00005122E738003122E79E9F508800375085C
:101AB000C2EEFAEFFB121EA702835E74F4120D351C
:101AC0008A088B098A828B83E0FAA3E0F8EA28FA75
:101AD000E43400FB121EA18A0A8B0BAE0AAF0BEE98
:101AE0004F605A850882850983E0FC7D00790012E9
:101AF0001DF98E828F831284D9122EAF8E828F832E
:101B0000A3A3A3A3EAF0A3EB129B43F8EE28F8E407
:101B10003F128651850882850983A3E0C0E012C187
:101B200087D0E0F0122EC1EE240EF582E43FF5835B
:101B3000E912A35BE0C0E012A0CAD0E0F0EEFAEF39
:101B4000FB800A12A353E022740D1213647F040277
:101B5000103C74F4120D3574E81214478A088B098E
:101B60008C0A8D0BE9FE901BDFE064046005E064E5
:101B700008700479C2803CA37808121660EE901BAE
:101B8000E6129C9B121DF98518828519837808122C
:101B9000166074051216DEEEF074041216DE74017F
:101BA000F074071216DEE4F0901BDF740212B182AB
:101BB0001227657418809374F4120D3574E81214AA
:101BC00047EAFEEBFF901B6712AC316003029C9169
:101BD0007A077B00121EA1901B6712AE12901B6742
:101BE00012AC317003029C8D8E828F831216C790C7
:101BF0001B67E0FCA3E0F5838C821216AFEE240491
:101C0000F50AE43FF50B850A82F583E0C0E0901BFE
:101C10006712B7A6A3A3A3D0E0F0EE2405F508E46D
:101C20003FF509850882F583E0C0E0901B6712B795
:101C3000B7D0E0129C96E0C0E0901B6712BEC0C80F
